:020000021000EC
:1090000000600020499201000192010003920100DA
:109010000592010007920100099201000000000082
:109020000000000000000000000000000B920100A2
:109030000D920100000000000F920100119201004A
:109040000DAC010013920100E1AD0100139201008B
:10905000139201000000000095AC01001392010082
:109060001392010013920100139201001392010068
:109070001392010013920100139201001392010058
:10908000139201001DBF0100139201001392010011
:1090900013920100139201004DD4010013920100BC
:1090A0001392010013920100000000000000000074
:1090B0001392010013920100000000000000000064
:1090C00000000000000000000000000000000000A0
:1090D0000000000000000000000000000000000090
:1090E0000000000000000000000000000000000080
:1090F0000000000000000000000000000000000070
:10910000000000000000000000000000000000005F
:10911000000000000000000000000000000000004F
:10912000000000000000000000000000000000003F
:10913000000000000000000000000000000000002F
:10914000000000000000000000000000000000001F
:10915000000000000000000000000000000000000F
:1091600000000000000000000000000000000000FF
:1091700000000000000000000000000000000000EF
:1091800000000000000000000000000000000000DF
:1091900000000000000000000000000000000000CF
:1091A00000000000000000000000000000000000BF
:1091B00000000000000000000000000000000000AF
:1091C000000000000000000000000000000000009F
:1091D000000000000000000000000000000000008F
:1091E000000000000000000000000000000000007F
:1091F000000000000000000000000000000000006F
:10920000FEE7FEE7FEE7FEE7FEE7FEE7FEE7FEE736
:10921000FEE7FEE709480068094909680A280AD1FB
:10922000002908D1074802686FF070031A404FF018
:1092300040031A43026000F009B80000300100103A
:1092400034010010E40E0040FFF7E4BF0B484FF07C
:109250000701884385460A48804700F019B8094845
:1092600009490A4A884207D0521A05D003780130CA
:109270000B700131013AF9D1704700000060002005
:109280004198010018DA0100E01A0020E01A0020DD
:10929000344935480A1A02D0072291438D46334992
:1092A00033480A1A06D00722914381F30988022223
:1092B00082F314882F483049304A00F041F8304892
:1092C0003049314A00F03CF830483149314A00F029
:1092D00037F831483149324A00F032F831483249E2
:1092E000324A00F02DF832483249334A00F028F86B
:1092F00032483349334A00F023F8334833490022D7
:1093000000F029F832483349002200F024F83248AE
:109310003249091A04F0F4FA314A90471F482049AB
:10932000884205D00268043003B4904703BCF7E7D5
:1093300000208646EC46002000212A4A9047FEE79E
:10934000884207D0521A05D0037801300B700131E2
:10935000013AF9D17047884202D002700130FAE731
:1093600070470000006000200058002000600020CE
:1093700000600020BCE60100E01A0020301B002045
:10938000E8930100E893010014D90100BCE6010054
:10939000E01A0020E01A002018DA010018DA0100B3
:1093A00018DA010018DA010018DA010018DA0100F1
:1093B00018DA010018DA0100B9E601000CE7010033
:1093C000301B0020301B0020301B00205C270020B9
:1093D0005C2700205C2700205C2700205C2F0020F9
:0893E0005F9201001D950100E0
:1093E80076DF70477ADF70477CDF70477FDF704732
:1093F8008FDF7047B1DF704702F0C2B90388212BB5
:1094080013B504463FD007D8112B27D0132B32D0E1
:10941800102B0CD002B010BD522B40D0562B01D0CF
:109428003B2BF7D1A0881321FFF7DAFF0FE0204B81
:1094380020482149C01AC008000440F0030003F086
:109448003FFD1E4BA1881E48198001F031FA002803
:10945800E0D002B0BDE8104002F092B9144B1548B4
:109468001849C01AC008000440F0030002B0BDE863
:10947800104003F025BD114800231A4685210088B5
:10948800FFF7B4FFE3E700238088ADF8043001A9B3
:10949800FFF7AEFF0028BDD002F072F9BAE707481F
:1094A80000231A4619460088FFF7A4FFCFE700BF3C
:1094B80080D90100A8D9010018DA0100E81A0020B3
:1094C800381C002022DA0100032809D10548064B80
:1094D8000649C01AC008000440F0030003F0F0BCBD
:1094E800704700BFA8D9010080D901002FDA010018
:1094F80008B503784BB9054B3B211888FFF770FF77
:1095080018B1BDE8084002F03BB908BDE81A0020D0
:1095180002F036B900B54FF48041ADB0002003F039
:1095280037FB08B102F02CF903F06EFA02F008FAE2
:1095380008B102F025F903F0C3F808B102F020F9E8
:1095480003F028FF08B102F01BF9002301A901204C
:10955800019303F0ABFF08B102F012F901A804F07F
:1095680047F808B102F00CF911233D498DF8003095
:109578000D226846FFF738FF08B102F001F9002311
:10958800ADF80830374B019301A84FF4C873ADF814
:109598000A30FFF727FF08B102F0F2F8324800213D
:1095A80001F0B0F808B102F0EBF8AC22002101A8F4
:1095B80004F072F902238DF80430ADF814302B4B07
:1095C800069301238DF88030402340F201622393F3
:1095D8002748284BADF8062001A92A9300F01AFD68
:1095E80008B102F0CDF82248012100F010FD224B0D
:1095F8002248019301A901F049F908B102F0C0F825
:109608001422002101A804F047F94FF4A0334FF4C5
:10961800A022CDE9022303238DF81030184B0693BE
:1096280001A8184B079300F095FF08B102F0A8F8BD
:10963800154B16481649C01AC008000440F003002C
:1096480003F03EFC0A48032100F054FD08B102F083
:1096580097F803F0EFFA0028FBD103F047F8F8E792
:1096680041DA01005000A000281C0020E01A002068
:10967800301B0020D194010001940100381C002007
:10968800F99401001995010080D90100A8D90100B9
:109698004FDA0100022811D8012A0AD101290FD175
:1096A80000F10E02D2B20D4B00EB40001A5400201C
:1096B80070470129F7D0022904D049B10720704723
:1096C8000022F8E7054B00EB400003445A70EEE730
:1096D80000EB4003014803449A70E8E7441C00206B
:1096E80008B5012202210020FFF7D4FF08B107289E
:1096F80010D1072202210120FFF7CCFF08B107286B
:1097080008D100210A220846FFF7C4FF10B1072834
:1097180008BF002008BD00000388102B10B502D038
:10972800112B1ED010BD1A4C2168B1B90122084670
:10973800FFF7B0FF08B1072824D107220221012032
:10974800FFF7A8FF08B107281CD104220221002036
:10975800FFF7A0FF08B1072814D12368013323605D
:10976800E0E70B4A1368013B1360002BDAD1FFF7DF
:10977800B7FF0028D6D0074B1B68002BD2D0BDE816
:1097880010401847034B1B68002BE6D09847E4E7C6
:10979800541C0020501C0020BFF34F8F0549064B76
:1097A800CA6802F4E0621343CB60BFF34F8F00BF77
:1097B800FDE700BF00ED00E00400FA054FF080531C
:1097C800D3F83001421C04BF4FF0704393F8E00F08
:1097D800831F5842584170474FF0704393F8E02F69
:1097E800062A09D1D3F8E83FC3F30313033B042B3C
:1097F80002D8024AD05C70470020704776DA010030
:109808004FF08053D3F83001421C04BF4FF070432F
:1098180093F8E00F062804D0A0F10A0358425841F3
:109828007047012070470000024AD2F80034002B2C
:10983800FBD0704700E0014010B5FFF7BFFF40B113
:109848004FF080539C4AD3F82433C3F30423C2F85F
:109858004035FFF7C1FF10B1984B994A5A67FFF797
:10986800CFFF48B14FF080534FF08042D3F84432D5
:10987800C3F34233C2F83C35FFF7AEFF30B1914A2B
:10988800D2F8FC3023F08073C2F8FC30FFF7B8FF41
:1098980040B14FF080430022C3F80C21C3F81021D7
:1098A800C3F83825FFF798FF20B14FF08043032213
:1098B800C3F8A025FFF790FF60B1834B0522C3F8DA
:1098C80010260122C3F888260022C3F818263F2252
:1098D800C3F814264FF08053D3F83021511C09BF28
:1098E8004FF07043D3F8343193F8E02FD3F8E83FC2
:1098F80008BFC3F30313062A4ED1033B042B03D836
:10990800724AD35C002B49D04FF08052704BD2F88A
:109918000414C3F82015D2F80814C3F82415D2F893
:109928000C14C3F82815D2F81014C3F82C15D2F863
:109938001414C3F83015D2F81814C3F83415D2F833
:109948001C14C3F84015D2F82014C3F84415D2F8F3
:109958002414C3F84815D2F82814C3F84C15D2F8C3
:109968002C14C3F85015D2F83014C3F85415D2F893
:109978003414C3F86015D2F83814C3F86415D2F853
:109988003C14C3F86815D2F84014C3F86C15D2F823
:109998004424C3F8702501E00A2AB5D0FFF70EFF6A
:1099A80048B14FF080534FF08042D3F8583203F05B
:1099B8004F03C2F8E43EFFF723FF48B14FF080435E
:1099C800D3F80024D20744BF6FF00102C3F8002483
:1099D8004FF08053D3F83021062A0ED1D3F8343112
:1099E800033B042B02D83B4AD35CBBB13A4AD2F8BA
:1099F8003C3743F48063C2F83C374FF08053D3F8C8
:109A080030210A2A0AD1D3F834313BB14FF08042D1
:109A1800D2F8E43E43F00F03C2F8E43E4FF080531F
:109A2800D3F83021062A0FD1D3F83431033B042B65
:109A380002D82A4AD35C3BB14FF01023D3F808224E
:109A48004FF08043C3F858254FF01021D1F8003269
:109A5800002B03DBD1F80432002B17DA204901234D
:109A68004FF01020C1F804351524FFF7DDFEC0F8CB
:109A78000042FFF7D9FEC0F80442FFF7D5FE0023E5
:109A8800C1F80435FFF7D0FEFFF786FED1F80C3297
:109A9800DB070DD512480123C0F804350024FFF771
:109AA800C3FEC1F80C42FFF7BFFEC0F80445E9E762
:109AB8000C4B0D4A1A6010BD0030014000C0074031
:109AC8000DF0ADBA00ED00E00050004067DA01008B
:109AD80000C000406CDA01000010004071DA01009B
:109AE80000E00140EC1A00200090D0036DDF7047C1
:109AF80079DF70477DDF704764DF70472DE9F04FED
:109B080085B000250E9CBDF83CB0B4F800A00191CA
:109B1800074690461E46A9463A884A450DDC45B197
:109B28002388013BA3EB0A039BB2FF2B39D806F825
:109B38000A30002005B0BDE8F08F7A6852F8290095
:109B4800039000220DF10B0103A8FFF7D5FF0028B1
:109B5800F0D19DF80B20424520D1228885F00100E4
:109B680002EB080101EB400159451ADC3DB901320D
:109B780092B2019B2280B35422880132228022882B
:109B88000DF10B01324403A8FFF7B6FF0028D1D12D
:109B980021889DF80B200A442280012509F101093A
:109BA800BAE70C20C6E72DE9F341089FBDF82480E9
:109BB8001546CDE90078022204461E46FFF79EFFAF
:109BC80050B93346102229462046CDE9087802B01C
:109BD800BDE8F041FFF792BF02B0BDE8F0812DE982
:109BE800F04F00231788138090F82D3085B0064673
:109BF8000D4614465BB3082F01D80C2028E102A8B3
:109C0800FFF774FF002840F023812388DDF809104E
:109C18000822EA54238801339BB21B222380EA548A
:109C2800238801339BB2EA182380E950BDF80D3030
:109C3800938023889DF8082006339BB212F0FE0219
:109C480018BF01222380EA54238801332380B37884
:109C5800FBB123880433BB42CFD802A8FFF748FFE3
:109C6800002840F0F58023880322EA542388013332
:109C78009BB219222380EA542388BDF808200133B7
:109C88009BB2E9182380EA54120A4A7023880233E7
:109C98002380F2789AB12388D91CB942ADD8022121
:109CA800E954238801339BB201212380E954238896
:109CB8000B449BB22380EA5423880B4423807368A7
:109CC800ABB193F900202388D91CB94295D8022159
:109CD800E954238801339BB20A212380E95423885D
:109CE80001339BB22380EA542388013323803389CC
:109CF800002B40F0A180338A5BB1CDE900472B46A9
:109D08000722032106F11000FFF74DFF002840F05D
:109D18009F80338B5BB1CDE900472B461522142178
:109D280006F11800FFF73FFF002840F09180326AE3
:109D3800002A40F09080D6F82480B8F1000F30D087
:109D4800B8F804302188981C8A1C0244BA423FF6AD
:109D580054AFFE283FF651AF03336B5423880133C9
:109D68009BB2FF222380EA54238801339BB22380CD
:109D7800B8F80020EA54E918120A4A70208802301C
:109D880080B22080B8F804205AB1D8F80810002909
:109D98006BD0284403F04AFD2388B8F80420134404
:109DA800238096F82C30002B40F0988030780028DB
:109DB8004ED03388012B58D0228802F1020CBC45C2
:109DC8003FF61BAF012805D17378023313449F4235
:109DD800FFF413AF023FBF1ABFB202A905EB0C0094
:109DE800ADF80870FFF786FE90BB3178BDF80830F3
:109DF800022900F0B98072789A4202D39F4280F01B
:109E0800B180012940F0B280974293B2C0F0AE8091
:109E1800ADF808300821BDF80830FE2B3FF6EDAE4E
:109E280022880133AB542288013292B22280A9548D
:109E38002288134423800BE0CDE900472B460622F5
:109E4800022106F10800FFF7AEFE00283FF453AFE9
:109E580005B0BDE8F08FB4F800C00CF10603BB42B2
:109E68003FF6CBAE1188052901D80720F0E76FF43B
:109E7800486E01EB0E039BB24FF27D3E7345F4D959
:109E88005388052BF1D96FF44860181880B27045D3
:109E9800EBD94FF6FF70814201D09942E5D80523EE
:109EA80005F80C30238801339BB212212380E95432
:109EB800238801339BB223801188E954E818090AE2
:109EC8004170238802339BB223805288EA54E918F0
:109ED800120A4A702388023323802CE7B36A002BC6
:109EE800C3D04FF000084FF00C0A4FF0160BB16AC0
:109EF8005FFA88F20AFB02F201EB0209B9F80430B2
:109F0800981CFE283FF679AE208803332B5423880B
:109F180001339BB2238005F803B0238801339BB239
:109F280023808A5AEA54E918120A4A7020880230B3
:109F380080B22080B9F804205AB1D9F80810002955
:109F480093D0284403F072FC2388B9F80420134402
:109F5800238096F82C2008F101085FFA88F39A42CA
:109F6800C5D823E7092156E79F42FBD2ADF8087010
:109F780050E730B5C8B1F2B10024651C8D4206DA4D
:109F88001588A54212D805196D789D420ED1A142B7
:109F980011D9005D48B1013880B230B10234A3B2A2
:109FA80010FA84F4A14206DB138030BD055D01354B
:109FB8002C44A4B2E1E70020F7E713B513460022CA
:109FC800ADF806200DF106020446FFF7D2FF10B1E6
:109FD800BDF80600204402B010BD72DF704773DF81
:109FE800704738B5012204460D46B0F8D810D0F8AD
:109FF800D400FFF7E2FF00B1057004F13C0204F160
:10A00800D40104F15400BDE83840FFF7E6BF80F8FA
:10A0180030107047F8B504460F46002966D000286E
:10A0280064D091F87A301BB191F89830002B5FD149
:10A03800D7F8A030042B5BD0D7F89C30042B57D02E
:10A048004FF0000C84F802C007F178060FCE251DEA
:10A058000FC50FCE0FC596E8070085E8070084F8FE
:10A0680030C0D7F8A4306363D7F8A830A36304F1ED
:10A07800D4024FF6FF73C4F8EAC0A4F8E830C4F875
:10A08800E420C4F8EDC022780AB984F85430224696
:10A0980004F155011F25C4F8D410384622F8D85FBA
:10A0A800FFF79DFD08BB224604F19301C4F8DC10BC
:10A0B80007F13C0022F8E05FFFF791FDA8B9A3691A
:10A0C800A4F848304FF480730125A4F85030636930
:10A0D8002064014684F83C50636404F13C0204F1B6
:10A0E8005400FFF77AFF00B92570F8BD0E20FCE791
:10A0F8000720FAE7F8B5077804460D46002F00F068
:10A10800F2800023C0F8EA30C0F8ED30C3888170CF
:10A1180000F1EA060BB1012903D0E37943B1022D1E
:10A1280006D1636BA3B1012284F8F1200820984777
:10A13800334604F1F00113F8012F12B98B42FAD11A
:10A1480017466B1E032B4CD8DFE803F0050B0F12E4
:10A1580084F8F130ECE7A3791BB194F8243003B903
:10A168004FB9E3790BB1002F3DD1237A002B3CD1B5
:10A17800657AAD00EDB2636BA570002B37D0033D57
:10A18800012D34D8627992B394F8F2207ABB84F81E
:10A19800F420012284F8F3200720984704F13C05B5
:10A1A80018220021284603F077FBE36A591E012292
:10A1B800022928BF134684F8513094F8243084F8D3
:10A1C8003C2033B1A36A591E022928BF134684F8DC
:10A1D8005230A378042B1CD8DFE803F06C0D23332E
:10A1E80051000025C7E70225C5E70325C3E700237B
:10A1F80084F8F330D2E7012384F831300023C4E92E
:10A208001063C4F8E430022384F83C308023A4F8B7
:10A218004830A378002B51D1636B002B5FD100200D
:10A228005CE0022384F83130032384F83C3023694E
:10A23800A4F848300023C4F8E430E3682664636473
:10A24800E7E762696264A269A4F8482062797AB192
:10A2580094F8F22062B994F8F4204AB1022384F801
:10A26800503004212046FFF7BCFE0028D1D1052339
:10A2780084F8313004F1D403C4F8E430C9E7E26962
:10A288006264226AA4F848206279002AF0D094F81F
:10A29800F220002AECD194F8F420002AE8D0022316
:10A2A80084F8503004212046FFF79BFE0028B0D1E7
:10A2B8000623DDE7002384F83130AAE7D4F8E41058
:10A2C8002A4604F15400FFF788FE38B994F8301094
:10A2D80094F85400FFF783FE00289DD0F8BD94F849
:10A2E800310098479BE70820F8E70388112B10B541
:10A2F8000C460AD0262B1FD0102B05D1C27B838891
:10A30800012A01D1A1F8E83010BD0022838881F824
:10A31800F220B1F8E8209A42F6D10B79002BF3D15C
:10A3280001212046FFF7E6FE0028EDD0A36B002BA5
:10A33800EAD0BDE810401847037A013B012BE3D867
:10A34800897805230131B1FBF3F303EB8303C91AC1
:10A35800C9B2E6E775DF704776DF70477ADF704786
:10A368007BDF7047034B1A8882420CBF18460020D7
:10A37800704700BF741C0020024B9B6903B118474B
:10A38800704700BF581C002073B585B22846FFF7F8
:10A39800E9FF044638B3174E027A337B9A420CD24F
:10A3A80000F10A012846FFF7D5FFF0B111281AD0AD
:10A3B80002B0BDE87040FFF7DFBF00230372337CB3
:10A3C80043B13B212846FFF7C7FF30F0080301D00F
:10A3D800FFF7D2FF736933B100228DF80420ADF87E
:10A3E800065001A8984702B070BD237A0133237242
:10A3F800F9E700BF581C002013B50B46497A0246FE
:10A408000E4871B9D0E901101C7A002C18BF01461A
:10A41800586801F0D9FA78B102B0BDE81040FFF7EA
:10A42800ABBF00211972436933B101218DF80410C3
:10A43800ADF8062001A8984702B010BD581C0020AE
:10A448004B8802889A4212D842889A420FD3808851
:10A458008B8840F2F311884294BF021A421A9A423A
:10A4680005D80844984234BF0020012070470020D6
:10A47800704700000388122B70B5014659D004D8E4
:10A48800102B1ED0112B44D070BD502BFCD12F4B5C
:10A49800C288DB899A42F7D1038A022BF4D18688D5
:10A4A8003046FFF75FFF05460028EDD001F11200A6
:10A4B80000F020F938BB686801F0B4FA0028E3D04E
:10A4C8000AE0C37B8688012BDED14FF6FF70FFF7C9
:10A4D80049FF054620B90420BDE87040FFF74CBF8E
:10A4E8001B4A0680002303721368C0F80A305368B9
:10A4F800C0F80E3010310A30FFF7A2FF134B687214
:10A50800DB89002BC0D129463046BDE87040FFF7F3
:10A5180073BF8088FFF726FF04460028B4D0406840
:10A5280001F080FA08B1FFF727FF4FF6FF73238089
:10A53800AAE786883046FFF715FF05460028A3D00E
:10A5480008310A30FFF77CFF6872DCE7581C0020EE
:10A55800881C0020F8B5064648B305460FCD154FB0
:10A568003C460FC495E8070084E807003068124CA1
:10A578003C60B0B1FFF7F2FEC0B9326813682360DF
:10A58800536863600D480E4A4FF6FF7303800D4B06
:10A5980040F8043F002101F005FA002818BF032005
:10A5A80004E02046FFF7DCFE0028EBD0F8BD0E20C3
:10A5B800FCE700BF581C0020881C0020741C0020E9
:10A5C80091A30100901C00200AB101F035BD01F0F3
:10A5D8003CBD73B50191019C06466CB100252C4623
:10A5E800294601A801F03BFD18B106EB44030134EC
:10A5F8009D800135142DF3D13046346002B070BD12
:10A608002DE9F04303888488103B8DB00A2B1ED8AF
:10A61800DFE803F006361D1D1D1D1D1D1D5B3D00D9
:10A628002E4FBB68DB4300937968684601F043FD11
:10A63800009901A8FFF7CDFF0DF106080026019B40
:10A648009E4207D3132C12D9042001F099F80DB0BB
:10A65800BDE8F08338F8029F00250135494607EB2D
:10A66800850001F0F2FC1E2DF7D10136E7E72146FF
:10A678001B4801F0E1FC1B48214601F0DDFCE6E740
:10A68800174821460DB0BDE8F04301F0DEBC027A60
:10A6980015483F2A4FEA1215214694BF002201228D
:10A6A800FFF792FF022D94BF002201220F48214696
:10A6B800FFF78AFF012D0E4894BF00220122214690
:10A6C8000DB0BDE8F043FFF77FBF037A002BBED182
:10A6D800427A0548C2F3C0022146F1E7B01C0020C7
:10A6E800B81C0020B41C0020C81C0020C41C00207A
:10A6F800C01C0020008800F001007047A5DF7047EB
:10A70800B5DF704750B14FF0171303601B23037177
:10A718001723C160C3808360002070470E207047F4
:10A7280013B5034680880C4690B91A883A2A64D033
:10A7380010D8102A3AD0112A5BD0A37A43B1E18805
:10A748000020FFF7DBFF00286FD14FF4807363818F
:10A7580002B010BD552AF0D1DB88C988A072172B2A
:10A7680038BF17238B4228BF0B462381FFF7C8FF4A
:10A7780060B102F029F83649364B5B1ADB081B0436
:10A788000246354943F0010002F09EFBE37A002BB4
:10A79800D3D1E368002BD0D040F6772200922289EB
:10A7A800ADF80420694620469847C6E7DB7B012BB5
:10A7B80004BF0B88CB80C98823898B42BDD2002077
:10A7C800FFF79CFF10B90123E372B6E7112802D105
:10A7D8000123A372B1E701F0F7FF1D491D4B5B1A76
:10A7E800DB081B0402461D4943F0010002F06CFB24
:10A7F800A3E71723CB808B609FE75B89CA889342C6
:10A8080028BF1346172BCA6838BF17230B814AB1D4
:10A81800C97A39B140F677210091ADF8043069461C
:10A82800204690470023638187E7112890D001F0E4
:10A83800CBFF0749074B5B1ADB081B040749024695
:10A8480043F0010002B0BDE8104002F03DBB00BF7C
:10A8580080D90100C8D90100ACDA01007BDA010017
:10A86800B0DF704766DF704710B5002104464088A6
:10A87800FFF7F8FF034608B9237210BD112801D16C
:10A888000123F9E76368BDE81040184760B159B182
:10A898000378DE2B0AD00B684360DE2303704FF683
:10A8A800FF734380002070470E20704708207047D0
:10A8B80028B10378DE2B04D14180002070470E2098
:10A8C800704708207047F0B5054685B00C4600294A
:10A8D80042D0002840D00B78DE2B3DD182884B88AF
:10A8E8009A4204D10B7A13B10846FFF7BDFF2B88B3
:10A8F800112B33D0512B0FD0012B2DD12B7AAA88B5
:10A90800012B29D16188914226D12046237205B0B6
:10A91800BDE8F040FFF7A8BFAB8866889E421BD110
:10A92800AF79022F18D1AD7B2B1F022B14D8002131
:10A938001022684602F0B0FF052D0CBF00234FF42B
:10A94800C073694630468DF80070ADF80430FFF7E3
:10A9580087FF08B16368984705B0F0BD6388AA8887
:10A968009A4204BF4FF6FF736380F5E738B5074C8A
:10A97800051E04F1080318BF1C4623682BB11A688A
:10A9880022605B6828469847F7E738BD341D0020E9
:10A9980020B9054B01225A70FFF7E8BF012802D100
:10A9A800014A9070F8E770472C1D002020B9034B2E
:10A9B80001225A70FFF7DABF704700BF2C1D002034
:10A9C80038B50E4C2378B3B90D486360A360236192
:10A9D800E36000F0E7F8054602F01AFD08B900F058
:10A9E800EDF801232370074BD3F800340BB1012392
:10A9F800A370284638BD8525F5E700BF2C1D00202B
:10AA080099A901000000014037B50D4C00230DF154
:10AA180007008DF8073001F011F9E368013BE360A6
:10AA2800E36833B9074BD3F8005415B900F0D8F8E8
:10AA3800A5709DF8070001F025F903B030BD00BFEF
:10AA48002C1D002000000140012813B50CD003285C
:10AA580020D038B9134B0122C3F88020BFF34F8FA1
:10AA6800BFF36F8F02B010BD0F4C00230DF107002C
:10AA78008DF8073001F0E2F823780BB9FFF7A0FF53
:10AA8800E3689DF807000133E3600123A37001F038
:10AA9800F9F8E7E700F092F802B0BDE81040FFF7D8
:10AAA800B3BF00BF00E100E02C1D00201FB50378F4
:10AAB8008DF800304368019383688DF80830C368C7
:10AAC800054A0393054B684653F8213052F8211084
:10AAD800984705B05DF804FB401D0020441D002088
:10AAE8001FB503788DF800304368019383688DF8AB
:10AAF8000830C368054A0393054B684653F821306C
:10AB080052F82110984705B05DF804FB401D00205D
:10AB1800441D0020F0B5194B90F800C091F81DE0D5
:10AB280043F82C20164B16460A6943F82C20154B7F
:10AB380003F80CE00C4607460FCC89B06D460FC5EC
:10AB480094E80F0085E80F00CDF810C0BEF1000FA3
:10AB580009D0002E0C4A694608BF3246381D00F05D
:10AB680067FC09B0F0BD002E084A694608BF3246A6
:10AB780007F10C0000F042FAF3E700BF441D002083
:10AB8800401D0020481D0020B5AA0100E9AA0100C7
:10AB980000F18040002382B0036003680193019BA9
:10ABA80002B07047044B0246187918B91A6001229E
:10ABB8009A807047852070474C1D0020074B1A6803
:10ABC800D20704D4C02283F8002301221A604FF070
:10ABD80080430122C3F81825704700BF00E100E058
:10ABE8004FF0804208B50223C2F808334FF4827050
:10ABF800FFF7CEFF0123D360D2F81834DB03FBD470
:10AC080008BD00004FF0804110B5D1F8003163B1A4
:10AC18004FF48070FFF7BCFF0D4B58790122C1F843
:10AC2800082310B95A711B6898474FF08042D2F830
:10AC3800043163B14FF48270FFF7AAFF0223C2F810
:10AC48000833034BBDE810401B680120184710BDAE
:10AC58004C1D002000F1804000F5C040002382B068
:10AC6800036003680193019B02B07047800000F104
:10AC7800A040D0F8003723F44033C0F80037D0F8AC
:10AC8800003743EA0143C0F8003770472DE9F3471E
:10AC980000244E4D01944FF48072012102F180434B
:10ACA80003F5C04390B21B68012B06D1D5F80433D5
:10ACB8000B4202D0FFF7CEFF0C430432B2F5907F6F
:10ACC8004FEA4101EAD1414BD3F87C31012B0CD139
:10ACD8004FF4BE70FFF7BEFF4FF0A04344F00044AE
:10ACE800D3F820250192C3F82025E3B2D3B1384F19
:10ACF80000250126344210D0AB0003F1804303F550
:10AD0800C043D3F81005D3F8101557F8253023B1F0
:10AD1800C1F30141C0F3042098470135082D4FEADB
:10AD28004606E7D1002C48DA294C4FF0A047294DB8
:10AD38004FF00008012615F9013F5A1C31D0C3F322
:10AD4800C20108316944DAB211F8041C03F03F0962
:10AD580003F0070306FA03F3194222D009F5E0735A
:10AD6800484657F82330C3F3014ABAF1020F0CBF23
:10AD780003210221FFF77AFF06FA09F3C7F8203505
:10AD880004EB090393F9303054F823304BB191099F
:10AD9800032904D0BAF1020F12D1012901D1484682
:10ADA800984708F10108B8F1040FC4D1D7F8203545
:10ADB8000193C7F82035002BB9D102B0BDE8F08760
:10ADC800BAF1030FEDD10229E8E700BF00600040A7
:10ADD800541D0020A31D0020014B1B68184700BF0D
:10ADE800B01D00200E4B984237B50C4602D000200B
:10ADF80003B030BD00230DF107008DF8073000F0D7
:10AE08001DFF084B1D7915B901221C601A719DF8A8
:10AE1800070000F037FF002DE9D01120E8E700BF58
:10AE280000200040B01D0020034B984201BF034B97
:10AE380000221A601A71704700200040B01D0020DF
:10AE48000023435082B043580193019B02B07047DE
:10AE58000A4610B54FF48E71FFF7F2FF136A916836
:10AE6800C95C136A01331362C0F81C1510BD8B69E5
:10AE78000A4610B54FF4847123B9FFF7E1FFD0F803
:10AE8800183510BDFFF7DCFF536AD168D0F81805F4
:10AE9800C854536A01335362F3E700001FB5012316
:10AEA8008DF80030044BCDE90110D3E90012684653
:10AEB800904705B05DF804FBB81D002030B54D4D36
:10AEC800D5F804339A0585B051D5D5F82431002B2F
:10AED8004DD04FF492712846FFF7B2FF4FF401733B
:10AEE800C5F80833444B93F829200AB901226A604F
:10AEF800404902228DF80020D1F88024C1F880242E
:10AF080003929A690292DA6801920022C3E9062242
:10AF18006846D3E9001290473648D0F81C315BB137
:10AF2800354A5169136A99424DD992F82830002B55
:10AF380049D11146FFF78CFF2E48D0F84431002B39
:10AF480056D04FF4A271FFF77BFF2B4B93F82920C3
:10AF58000AB1012202609A69002A49D0586AD96860
:10AF680000229A6105B0BDE83040FFF797BFD5F8D9
:10AF780004335B07D0D5D5F80831002BCCD01E4C54
:10AF88001C482146FFF773FF636AA2699A42C3D13E
:10AF9800E369E1684BB1A3612369E3600023606A58
:10AFA800E3616362FFF77AFFB6E794F829300BB9DB
:10AFB80001236B600F4B4FF40172C3F80823002381
:10AFC800606AA361EEE70B484FF48E71FFF738FF14
:10AFD8005369002BB0D051690291002391688DF814
:10AFE8000030019153616846D2E900139847A3E7FE
:10AFF80005B030BD00200040B81D00202DE9F84301
:10B00800534D90F804802C2303FB0853064693F80D
:10B018002A300C469146002B40F095804D49006837
:10B02800FFF7E0FE0746002840F08F80216833686C
:10B03800481C0BD04FF0A04001228A40C0F80825D8
:10B0480001F5E0724FF0030C40F822C06068421C22
:10B058001FBF00F5E0724FF0A04C4FF0000E4CF807
:10B0680022E0A269C3F8242594F814C0627DBCF1DB
:10B07800010F4CEA0202C3F86C25C3F81405C3F8A3
:10B088000C151DD1A1684A1C1FBF01F5E0724FF0D5
:10B09800A0404FF0000C40F822C0E268501C0BD0D2
:10B0A8004FF0A04C01209040CCF8080502F5E07064
:10B0B8004FF0030E4CF820E0C3F80825C3F810152C
:10B0C8002C2303FB08F3EA18C2F804902269EA501B
:10B0D800B9F1000F1FD03068227F4FF48E71FFF74F
:10B0E800AFFE4FF4A271FFF7ABFE1B4BC0F8043361
:10B0F80040F3073153010029C0F30730DBB21DDBF1
:10B10800164A541884F800330123490900F01F0037
:10B11800834042F8213033680422C3F800252C23E9
:10B1280003FB08530022C3E9062283F829205A6149
:10B13800012283F82A203846BDE8F883084A00F03F
:10B148000F001354E7E70827F5E71127F3E700BFD7
:10B15800B81D0020C5AE01008000020000E100E03B
:10B1680014ED00E0F8B503680579304C0022C3F807
:10B1780000252C2202FB05425268A2B12C4AC3F8D2
:10B188000823190B43F30733002B0CDB01F01F01D5
:10B198005B0901228A402033264941F82320BFF366
:10B1A8004F8FBFF36F8F0068D0F80C65D0F8141577
:10B1B800D0F80835D0F810254FF0FF37BE42C0F858
:10B1C800147518BF06F5E076C0F80C75C0F8087558
:10B1D800C0F810751EBF4FF0A0474FF0020C47F89B
:10B1E80026C04E1C1FBF4FF0A04601F5E071022794
:10B1F80046F82170511C1FBF4FF0A04102F5E072C4
:10B20800022641F822605A1C1FBF03F5E0734FF075
:10B21800A042022142F82310FFF706FE2C2303FB6D
:10B228000544002384F82A306360F8BDB81D002067
:10B238008402020000E100E00279044B2C2101FBAA
:10B2480002335869003818BF01207047B81D002024
:10B258002DE9F84F074690F8048089469346FFF792
:10B26800EBFF0446002839D11E4E2C2508FB056A41
:10B278004FF48E71CAF814B0CAF80890CAF82000C2
:10B288008AF828003868FFF7DBFD01238360514600
:10B29800FFF7DEFDDAF8043055460BBBDAF8144048
:10B2A8002B6A9C4210D8D0F81C31002BFBD001230C
:10B2B800C36000202C2303FB086600237361BDE8EC
:10B2C800F88F95F828303BB9D0F81C31002BF8D00E
:10B2D8005146FFF7BDFDE3E70F20EBE71120EEE74E
:10B2E8002046ECE7B81D00200023435082B04358A5
:10B2F8000193019B02B070471FB501238DF8003000
:10B30800044BCDE90110D3E900126846904705B017
:10B318005DF804FBE41D00207FB5434AD2F82461A0
:10B32800002E60D010464FF49271FFF7DDFF022324
:10B338008DF80030D2F88034C2F880340393D2F804
:10B348003C350293394BDA6801920022C3E90622A0
:10B358006846D3E9001290473348D0F8443173B1B6
:10B368004FF4A271FFF7C0FF304B9A693AB100223F
:10B37800C3E90622D968D0F83C05FFF7BDFF2A4883
:10B38800D0F82031ABB14FF49071FFF7ADFF012336
:10B39800C360264B5A6962B1D0F84C15029100225D
:10B3A80099688DF8002001915A616846D3E9001226
:10B3B80090471D48D0F858319BB14FF4AC71FFF756
:10B3C80093FF1A4B5A6962B1D0F84C1502910022CA
:10B3D80099688DF8002001915A616846D3E90012F6
:10B3E800904704B070BDD2F81031002BB4D04FF4A0
:10B3F80088711046FFF778FF0C4BD2F83C05996925
:10B408008842A9D1DC69D96864B1D2F8005225F024
:10B418002005C2F800521A699C61DA60DE61FFF704
:10B428006BFF99E79C61FAE700200040E41D0020CB
:10B438002DE9F843584D90F80480242303FB085362
:10B44800064693F820300C469146002B40F09F802A
:10B4580052490068FFF7C6FC0746002840F099806B
:10B4680021683368481C0BD04FF0A04001228A4065
:10B47800C0F8082501F5E0724FF0030C40F822C02F
:10B488006068421C1FBF00F5E0724FF0A04C4FF0FF
:10B49800000E4CF822E0A269C3F8242594F814C0E1
:10B4A800627DBCF1010F4CEA0202C3F86C25C3F8B7
:10B4B8000C15C3F814051DD1A1684A1C1FBF01F55E
:10B4C800E0724FF0A0404FF0000C40F822C0E26854
:10B4D800501C0BD04FF0A04C01209040CCF8080530
:10B4E80002F5E0704FF0030E4CF820E0C3F8082591
:10B4F800C3F81015242303FB08F3EA18C2F80490D4
:10B508002269EA50B9F1000F2BD03068227F4FF43E
:10B518008871FFF7E9FE4FF49071FFF7E5FE4FF4ED
:10B528009271FFF7E1FE4FF4A271FFF7DDFE4FF4D1
:10B53800AC71FFF7D9FE1A4BC0F8043340F307315A
:10B5480053010029C0F30730DBB21BDB154A54183E
:10B5580084F800330123490900F01F00834042F8B2
:10B56800213033680822C3F80025242303FB08553B
:10B578000023C5E906336B61012385F8203038467E
:10B58800BDE8F883084A00F00F001354E9E70827DC
:10B59800F5E71127F3E700BFE41D002021B3010000
:10B5A8001003420000E100E014ED00E0F8B5444C5F
:10B5B8000579242303FB054302465B680068ABB1A9
:10B5C800404BC0F8083340F30733002B4FEA1036DE
:10B5D8000CDB06F01F065B090121B14020333A4E0F
:10B5E80046F82310BFF34F8FBFF36F8FD0F80032A8
:10B5F80023F02003C0F80032242303FB05439B6992
:10B608002BB14FF4A271FFF76FFE012343604FF493
:10B61800AC71FFF769FE0123C360242303FB0543D4
:10B62800D0F858110029FBD0996919B1D0F8441104
:10B638000029F5D00023C0F800351368D3F80C753D
:10B64800D3F81465D3F80825D3F810154FF0FF3C4C
:10B658006745C3F80CC518BF07F5E077C3F814C5EC
:10B66800C3F808C5C3F810C51EBF4FF0A0434FF07C
:10B67800020C43F827C0771C1FBF4FF0A04306F504
:10B68800E076022743F826704E1C1FBF01F5E071D3
:10B698004FF0A043022643F82160531C1FBF4FF010
:10B6A800A04302F5E072022143F82210FFF7BCFB29
:10B6B800242303FB0544002384F820306360F8BD8D
:10B6C800E41D00201003420000E100E00279044B71
:10B6D800242101FB02335869003818BF0120704744
:10B6E800E41D002001F06043B3F1005F2DE9F0474D
:10B6F8000746884692463AD190F80490FFF7E6FF4D
:10B708000446002835D11D4E3A68242505FB0965F5
:10B718004FF490711046C5F814A0C5F80880FFF7DB
:10B72800E3FD4FF4AC71FFF7DFFD6B69A968C2F860
:10B738004415C2F84835012393606B68DBB9D2F829
:10B748002031D2F858011BB90028F8D00F2007E0A3
:10B758000028FBD10123D360D2F85831002BFBD04D
:10B76800242303FB096600237361BDE8F0871020DA
:10B77800FBE71120F9E72046F7E700BFE41D0020AA
:10B788001FB50021039001AA44F20100CDE901117F
:10B7980000F004F805B05DF804FB000038B572B697
:10B7A80001F0C8FB01F046FA0028FBD1104B114C00
:10B7B800114D1249E41AE408240444F0010001F090
:10B7C8007FFBD5F8F030DB0700D500BE0C4944F00C
:10B7D800020001F075FBBFF34F8FEA68094B02F4D2
:10B7E800E0621343EB60BFF34F8F00BFFDE700BF7C
:10B7F80080D90100A8D9010000ED00E015DB0100A7
:10B8080021DB01000400FA0510B5D0E90242D1E9B4
:10B818000203A04293412CBF0120002010BD00006C
:10B8280008B50A4800F05FFB094AD2E90031C018A0
:10B83800084BD3E9002341F10001904271EB030367
:10B8480003D210F1807041F1000108BDF01A002008
:10B85800101E0020881E002037B505460C460A48F1
:10B8680001A900F074FB60B10570446001A90648A5
:10B8780000F097FB18B1054800F03AFB002003B030
:10B8880030BD0420FBE700BF741E0020F01A002022
:10B89800294B73B51E7804461EB90026304602B0FF
:10B8A80070BD0028F9D0FFF7BBFFD4E9022390420E
:10B8B800994139D300230DF107008DF8073000F0C6
:10B8C800BDF923692BB94FF0FF324FF0FF33C4E9BC
:10B8D80002239DF8070000F0D5F9D4E90530984710
:10B8E80000250DF107008DF8075000F0A7F923692E
:10B8F800C3B1D4E90212B2F1FF3F08BFB1F1FF3F73
:10B9080005D05B1842F10002C4E9023235469DF8C1
:10B91800070000F0B7F9002DBFD00848214600F015
:10B928000EFFBBE71D46F2E7B3F1FF3F08BFB2F1D8
:10B93800FF3FB2D0F1E700BF181E00203CDB01003A
:10B9480013B5114B11491868019008231048582263
:10B9580000F0EAFA044698B90E4A0F4801A900F027
:10B96800B3F9044660B90C48012100F09FFA01239D
:10B978000A4A0948194600F001FA094B01221A70CF
:10B98800204602B010BD00BF38DB01001C1E00209D
:10B99800741E002089BA0100F01A0020FFFF7F0002
:10B9A800181E002030B56AB103684FF0FF344FF01D
:10B9B800FF355A614A1E5142C3E902455141196196
:10B9C800002030BD0720FCE7F7B5044600250DF13F
:10B9D800070017460E468DF8075000F02FF9D4E9F6
:10B9E8000223B3F1FF3F08BFB2F1FF3F07D1FFF7D2
:10B9F80017FF301841F10001C4E9020101259DF843
:10BA0800070000F03FF955B12369A76103B126612A
:10BA18002146002003B0BDE8F040FFF71DBF2846CF
:10BA280003B0F0BD37B5054600240DF107008DF8C9
:10BA3800074000F003F9D5E90223B3F1FF3F08BF3F
:10BA4800B2F1FF3F06D04FF0FF324FF0FF33C5E9A8
:10BA5800022301249DF8070000F014F934B12946A7
:10BA6800012003B0BDE83040FFF7F6BE204603B022
:10BA780030BD0000014800F036BA00BFF01A0020BF
:10BA88002DE9F743064600F019FA40B1634AD2E9B6
:10BA9800003113F1807341F10001C2E90031002146
:10BAA800304600F01AFA38B15D4C236823B120689B
:10BAB800FFF7EEFE002323600121304600F00DFA67
:10BAC80020B1FFF7ADFE574BC3E900015648544F6C
:10BAD80001A900F076FA4FF0FF344FF0FF35A0B916
:10BAE800DFF848814E4D404600F03FFE002800F048
:10BAF8008680D0E90223B3F1FF3F08BFB2F1FF3FD0
:10BB080033D1404600F02BFEEDE70378012B21D01E
:10BB1800022B09D1DFF81481404600F020FE0028EE
:10BB280077D0C0E90245F7E75BB94168D1E902235C
:10BB3800B3F1FF3F08BFB2F1FF3F02D03B4800F02E
:10BB4800FEFD01A9384800F067FA01A9364800F05F
:10BB580038FAC4E741683B68994202D100233B6048
:10BB6800EFE7324800F004FEEBE7296891B1296855
:10BB7800D1E9020182428B412FD22B68D3E90223FB
:10BB8800B3F1FF3F08BFB2F1FF3F03D02968404639
:10BB980000F0D5FD404600F0E2FDD0E90249074635
:10BBA800FFF73EFE201A69EB0109012879F1000927
:10BBB80018DBB0F5350F13D3FFF75CFF1C4A0244BE
:10BBC8001C484FF49603002100F0F8F890B92B6850
:10BBD80013B9304600F0CAF82F6003B0BDE8F0830F
:10BBE8002246EDE71348002100F06DF93846FFF7CB
:10BBF8004FFE01E00D28F9D000232B6073E7084BB6
:10BC08001B68002BE9D1304603B0BDE8F04300F0D3
:10BC1800B1B8094B01221A7093E700BF101E00202B
:10BC2800901E0020881E0020741E00203CDB0100AE
:10BC3800FFFFB400F01A0020181E002070B5EFF3C3
:10BC4800108672B60C4A9468012384B993600B4B32
:10BC58000B4DD3F8801029401160C3F88050D3F8F9
:10BC6800841051604FF0FF32C3F8842023460370DC
:10BC780006B962B670BD00BF941E002000E100E066
:10BC8800FC06FFBD084B9A6810B55AB150B9EFF3DE
:10BC9800108172B6054A1C6814605C68546098602C
:10BCA80001B962B610BD00BF941E002000E100E09B
:10BCB8000346405882B028B100225A505B5801937D
:10BCC800019B012002B07047F8B5204B4479204E03
:10BCD80043F824201F4B204A06EBC4049B1ADB08B8
:10BCE80005461804237933B140F002001B4901F0DE
:10BCF800E7F80820F8BD2B680A88C3F8082595F9E5
:10BD080004408B782A795B01002CDBB218DB1449DC
:10BD18000F1987F800330123640902F01F029340CA
:10BD280041F824306B7906EBC3020121117140F010
:10BD380003000C4946F8335001F0C2F80020D9E757
:10BD4800094902F00F028B54ECE700BFA81E00203F
:10BD5800A01E0020B8D9010080D9010048DB0100ED
:10BD680000E100E06ADB010014ED00E00368012255
:10BD78001A607047036801225A60704773B501F171
:10BD88005005AD000068ADB24FF480348C400026F9
:10BD9800C0F80843C0F84843465101F5A871455911
:10BDA800019522F07F42019D40F82120C0F84443CC
:10BDB8000BB1C0F8044302B070BD00002DE9F74F85
:10BDC8000D4622F07F4402684FF4803705F1500693
:10BDD8008F408046B60002EB8500C2F84873B6B2C1
:10BDE800C2F80873D2F8041599464FF0000BD0F842
:10BDF8004035C0F8401542F806B05B1A92590092D7
:10BE080023F07F43012B009A4FEA850A0CD1264B79
:10BE18004FF4806043F001039847D8F8003043F8A6
:10BE280006B09B590193019BD8F80020D2F804650D
:10BE3800C2F84473A31B23F07F43012B1CD11A4B78
:10BE480005F5A875013443F0010342F825404FF485
:10BE580080609847D8F80030D3F804359E4209D15D
:10BE6800D8F800300020C3F84473C3F8047303B053
:10BE7800BDE8F08F0D20FAE79244C9F1FF13CAF824
:10BE88004045D2F80405211A013921F07F4103F514
:10BE98007F438B42EED30029E2D10134CAF84045F2
:10BEA800D2F804359842DAE780DB01000368022201
:10BEB800C3F8442309B1C3F80423704700684FF45A
:10BEC8008271FFF7F5BE4FF4803303FA01F103687E
:10BED800C3F84813C3F80813704750318900006845
:10BEE80089B2FFF7E5BE0368D3F804057047000080
:10BEF80090F90430002B09DB5A09012103F01F03D4
:10BF0800994002F14003024A42F82310704700BFEB
:10BF180000E100E0024B034A1B681068184700BFA5
:10BF2800A81E0020A01E002010B561B1B2FBF3F4DA
:10BF380003FB1424A4B244B9C0E9001484608281CC
:10BF4800C381204610BD0E20FCE70920FAE737B56B
:10BF580050E8013F9DB2C48925448489A54228BF81
:10BF68002D1B0489A54202BFBFF32F8F002207E0D3
:10BF7800C5EA030540E80154002CE9D14FF001025D
:10BF88008DF803200193019A0A609DF8031001F0CF
:10BF9800FF0321B1006810FA82F003B030BD1846E3
:10BFA800FBE70A884B889A4209D150E8012FC2EA78
:10BFB800024240E80123002BF7D1012070470020FE
:10BFC800704737B550E8023F1FFAA3F5C488A54269
:10BFD80002BFBFF32F8F00220DE0C4892544848956
:10BFE800A54228BF2D1BC3EA054540E80254002C92
:10BFF800E8D14FF001028DF803200193019A0A60FD
:10C008009DF8031001F0FF0321B1006800EB124016
:10C0180003B030BD1846FBE70A884B889A4209D11D
:10C0280050E8022FC2EA224240E80223002BF7D14F
:10C03800012070470020704701F01F024B090121C1
:10C04800914000EB830000F01EB801F01F030122AD
:10C058009A404B0900EB8300D14300F02CB84B0900
:10C0680001F01F0150F82300C84000F0010070479C
:10C0780010B5034653E8000F0A4643E8002494F03D
:10C08800000FF7D110BD10B5034653E8002F42EA60
:10C09800010043E8000494F0000FF6D110BD10B57C
:10C0A800034653E8000F00EA010243E8002494F035
:10C0B800000FF6D110BD10B5034653E8002F02EA71
:10C0C800010043E8000494F0000FF6D110BD10B54C
:10C0D800034653E8002F02EB010043E8000494F004
:10C0E800000FF6D110BD10B5034653E8002FA2EBA0
:10C0F800010043E8000494F0000FF6D110BD0121BF
:10C10800FFF7C1BF0021FFF7CABF10B590B1D0E952
:10C11800012301689B1ADBB20A60013BDBB2FF2BEB
:10C12800026802D10020107110BD11684C1C146007
:10C138000B70F2E70E20F7E737B5054600240DF13E
:10C1480007008DF80740FFF779FD2A6869681368CA
:10C158008B420ED9591E116013F8013C288AEC68ED
:10C1680000FB0344AB685B1A1179DBB2994238BF14
:10C1780013719DF80700FFF785FD204603B030BD19
:10C1880037B5054600230DF107000C468DF807303A
:10C19800FFF754FD2A681368591C1160EA68A41A4D
:10C1A8002A8AB4FBF2F41C709DF80700FFF76AFDB9
:10C1B80003B030BD826810B504462AB143690168EE
:10C1C800006998470023A36010BD0EB403B5039916
:10C1D80021B104AB01AA019300F076F802B05DF832
:10C1E80004EB03B070470A2938B504460D4602D15E
:10C1F8000D21FFF7F8FFA3682268591CA160D554E8
:10C20800D4E901329A4204D32046BDE83840FFF70A
:10C21800D1BF38BD2DE9F84F9846DDE90A431546E8
:10C2280082460F460A464FF00109AA420FD2C1457D
:10C2380038BFC14613F0010B01D16CB900240126A7
:10C24800B8F1010F1BD908F1FF386E43F8E709F17F
:10C258000109B2FBF5F2E8E79B070ED5B8F1000F2C
:10C268000CBF30262026A145E9D2013C3146504674
:10C27800FFF7B9FF002CF6D1E0E72026F3E7B7FB7C
:10C28800F6F39D42E1D9DFF83C80B7FBF6F3504660
:10C2980018F8031006FB1377FFF7A5FF3346AB42E8
:10C2A800B6FBF5F6F1D2BBF1000F02D00CB1A145F7
:10C2B80001D3BDE8F88F20215046013CFFF793FFDA
:10C2C800F4E700BF86DB01002DE9F74F0546174666
:10C2D8008846002900F03E8118F8011B49B92B7BDC
:10C2E800002B00F03781284603B0BDE8F04FFFF778
:10C2F80061BF252940F0B780002698F800302D2B23
:10C30800424608F1010823D0302B24D02B2B25D00E
:10C3180000242A2B02F1010123D13B681A1D1B6856
:10C328003A601C440A4613782E2B26D101324FF06E
:10C33800000A104610F8011BA1F1300CBCF1090FDE
:10C348001DD80A2303FB0A11A1F1300A0246F0E7BF
:10C3580046F00106D1E746F00206CEE746F00406AD
:10C36800CBE711F8013CA3F130000928DBD80A22F9
:10C3780002FB0434303C0A46CBE74FF0000A12F8BF
:10C38800011B01F0FB0068289046F8D0782909D8ED
:10C398006F290CD8632962D022D8252963D058295F
:10C3A80000F0888098F80030002B95D197E7703915
:10C3B8000829F7D801A252F821F000BF37C50100BB
:10C3C800ADC30100ADC30100CDC40100ADC3010080
:10C3D800ABC40100ADC30100ADC30100BDC4010081
:10C3E800642901D06929DDD13A68D2F80090111D7D
:10C3F80089EAE9723960A2EBE9724FF0010B092A68
:10C4080035DCD34538BFD3462CB1B9F1000F01DB79
:10C41800720700D5013CB30702D5BAF1000F03D06B
:10C42800F00701D44CBB0024B9F1000F2DDAC9F193
:10C4380000092D212846FFF7D6FE06F00302022A3E
:10C4480004D1BAF1000F01D11CBB0024CDE900468C
:10C4580053460A2249462846FFF7DCFEA2E73B6816
:10C468001A1D19783A602846FFF7BDFE9AE70A2395
:10C478000BF1010BB2FBF3F2C1E7A345D4D22021A3
:10C488002846013CFFF7AFFECCE77107D5D52B2135
:10C49800D0E7A345DAD230212846013CFFF7A3FEB6
:10C4A800D2E73968CDE900460A1D3A6053460A22A8
:10C4B8000968D0E739680A1D3A60CDE90046534655
:10C4C8001022F5E73B681A1D3A6016F00106D3F80A
:10C4D800009024D1B9F1000F03D0484601F076F955
:10C4E8000646B4421DD809F1FF3919F8011F002981
:10C4F8003FF458AF2846FFF776FEF6E728460136A0
:10C50800FFF771FE19F806100029F7D1A642BFF40B
:10C5180049AF20212846013CFFF765FEF6E70026D3
:10C52800F0E720212846013CFFF75DFED9E73B688C
:10C538001A1D3A60302128461C68FFF754FE7821FE
:10C548002846FFF750FE00220823CDE90032214695
:10C55800102280E703B0BDE8F08F00BF2DE9F84F47
:10C56800B0F806A04579D2F800B09DF828900AFBEB
:10C5780005F5043D88460BEB0301A94203F10404C9
:10C5880088BFA5EB030BB4FBFAF607460AFB164473
:10C59800C2F800B04EB9AAEB04055D4528BF5D4658
:10C5A800BBF1000F04D1BDE8F88F3F68013EF1E709
:10C5B800043408EB06003C442A46B9F1000F0DD0BC
:10C5C8002146ABEB050B01F031F9DA452E443F6803
:10C5D80055464FF0000428BF5D46E1E70146204676
:10C5E800EFE7FFF792BDF8B546790146721E05469A
:10C5F800002393422D6803D30024A64202D8F8BD35
:10C608000133F6E70F682846FFF7BAFD01343946CB
:10C61800F3E72DE9F843068ACD1C0746FFF78CFDA2
:10C62800043E35440446B5FBF6F5F0B14FF480738B
:10C63800EDB28380C680013D076081464FF0000857
:10C64800A84512D23846FFF777FD064648B1637908
:10C658000133637108F10108C9F8000007608146D9
:10C66800EEE72046FFF7BFFF34462046BDE8F883D3
:10C6780001210430FFF72BBD10B501210446043019
:10C68800FFF731FDC0B220B92046BDE81040FFF7E2
:10C69800AABF10BD1FB503920022009203AAFFF79C
:10C6A8005DFF05B05DF804FB1FB5039201220092FF
:10C6B80003AAFFF753FF05B05DF804FB41DF70479D
:10C6C800064B10B500241C70054B1C60BFF35F8F30
:10C6D8000449054800F01FF8204610BDB41E00208C
:10C6E800B81E0020A0DB0100AC1E002008B500F039
:10C6F8008FFE18B1BDE80840FFF7E0BF20BF40BF7C
:10C7080020BF08BD836800225A60C3E904229A60EA
:10C71800DA601A607047D1E90032934208BF0023FB
:10C72800016043607047436843B10268916852688A
:10C738000B449342436004BF00234360704770B5C5
:10C74800446806460D46206818B1B36829469847DC
:10C7580018B923682B60256070BD2468F3E7436827
:10C76800186808B102681A6070474368186870470B
:10C778004368186800B97047884203D102681A6094
:10C788000120704703460068F4E7000010B50D4922
:10C79800A1F59472914201D800200FE08C1AE30FA2
:10C7A80003EBE4035B1002EBC30452F8333083421B
:10C7B80005D802D204F10802ECE7606810BD2146F2
:10C7C800E8E700BFACE0010008B5FFF7DFFF024B68
:10C7D800002808BF184608BD6FDF01007047000039
:10C7E80007B5044B0093044A402300F032F803B025
:10C7F8005DF804FB05C80100BD1E00202DE9F843C3
:10C8080088461446B2B10F4B0F4E0325002743F05C
:10C818000109224608EB0701002000F03BFD074410
:10C82800241A48B933782BB14FF47A40C847013DF0
:10C8380002D13570BDE8F88301233370002CE8D1AC
:10C84800F8E700BFB0E00100BC1E0020704700F010
:10C8580055BDF0B595B01D46164608460C46FFF77F
:10C8680007FF1A9B0D93CDE9086500252B46082282
:10C8780005A920460A958DF82C500C95FFF714FF52
:10C88800079B0293069B03939DF814308DF8115073
:10C8980003F00302012A1DD1BDF81420059DC3F33E
:10C8A800C203C2F383168DF81030B20008230EA914
:10C8B8002046FFF7F9FEC5F3952508AB00933246ED
:10C8C80002AB0EA9284600F0A3FB2046FFF7D4FED2
:10C8D80015B0F0BD022AF8D1BDF81650C3F3C20353
:10C8E800C5F389158DF810300827082D2E4628BF66
:10C8F80008263B4632460EA92046FFF7D5FEAD1B5B
:10C9080008AB02AA31460EA8374400F0E5FB002D1B
:10C91800EBD1DAE7014B01221A7070473E1F002065
:10C928007047000070B50E4D06460FCD88B06C46B6
:10C938000FC495E80F00002E84E80F00094A0A4842
:10C948004FF0060308BF002269460093FEF7E2F89D
:10C9580008B1FEF715FF054B1E7008B070BD00BF8B
:10C96800C4E001001DC90100F81A0020FD1E0020C6
:10C9780007B5044B0093044A4023FFF76AFF03B04E
:10C988005DF804FB95C90100FE1E002038B50D486E
:10C998000D4C0E4D002323700378EB5CD2B263B1CB
:10C9A8000430FEF79FFE08B1FEF7EAFE084B1A783E
:10C9B80012B12378002BFBD038BD0C30FEF748FCB1
:10C9C800F1E700BFF81A00203E1F0020481D002094
:10C9D800FD1E002008B50848084A0378D35C3BB11F
:10C9E8000430FEF7E3FDBDE808400020FFF79ABFDA
:10C9F8000C30FEF7B7FBF6E7F81A0020481D0020B8
:10CA08000120FFF78FBF000038B50A4DFFF71FFF61
:10CA18000421284600F06CFA074B01245C71FFF7EB
:10CA2800EFFF042105F1100000F062FA034B5C717E
:10CA380038BD00BFF8D901000C1B0020141B0020D2
:10CA48000378024613F0040006D003F0030001281F
:10CA580003D0022809D0012070470B6812880233DE
:10CA6800C2F3831213440B6070470B685288023379
:10CA780003EB92130B60EEE72DE9F04F434C87B0C0
:10CA8800884600230546871C0DF1070016468DF8D9
:10CA98000730FFF7D3F86268C8F80020A36803F5E9
:10CAA80080739B1A04F21C4804F5836A04F2144943
:10CAB800BB4218D30021002E64D005F00F05AD014C
:10CAC80045F0050565F30F0163689DF80700DAB2C4
:10CAD80003323B4444F822106360FFF7D3F8012087
:10CAE80007B0BDE8F08F01214046FFF7F0FA504645
:10CAF800FFF705FB4846FFF702FBA0680290C0B2AB
:10CB0800033004EB800002A9FFF79AFF20BB029BC9
:10CB1800DAB204EB8202D16803919A1C0133DBB2CA
:10CB280004EB83030292D3F80CB001F00303012B4A
:10CB380020D0022B13D083464846FFF7E3FA08B10A
:10CB4800029BA36059464046FFF7C1FAA368626892
:10CB580003F580739B1AABE79DF80800D0E7BDF892
:10CB68000E30C3F3891303334FEA1B4B02EB9303D5
:10CB78000293E1E7BDF80C30C3F383134FEA1B4B74
:10CB88001344F5E7AD0545F006019DE710200020A8
:10CB9800064B074810B500221A70FFF722FD04461D
:10CBA80010B90448FFF7AEFD204610BD1020002044
:10CBB8006CD9010028E1010030B50A4C71B10A4A6C
:10CBC8000A49121BD20800239A4201D1002030BD25
:10CBD80031F82350854202D00133F5E7034654F873
:10CBE8003300F4E780D90100F8D90100E01A0020E9
:10CBF800094B013903EBC000032909D8DFE801F02C
:10CC08000A0204060420704700797047407970478B
:10CC1800002070470220704780D90100704700004B
:10CC2800034BD3E90130C31A58425841704700BF3B
:10CC3800102000202DE9F04387B0FFF7F1FF0546EB
:10CC4800002840F0E680744CC4F81804BFF34F8FF6
:10CC5800A3680293DBB2033304EB830002A9FFF756
:10CC6800EFFE029B18B1D4F81824002A5CD0DAB27F
:10CC78009F1C013304EB8202DBB204EB8303D2680E
:10CC8800DB68049302F00303022B0392029756D148
:10CC9800BDF80E306148C3F389184646502E28BFA8
:10CCA800502666F38F1306F10801ADF80E30FFF732
:10CCB800B0FC0546002800F09780FFF7D9FC002358
:10CCC80003A908222846FFF7E5FCFB43DBB2013342
:10CCD800F9B20331B6EB830F4FEA830904EB810104
:10CCE8002AD908234A46A6EB09062846FFF7D2FCAC
:10CCF800F6B24B4909F10803324608F10308284601
:10CD080007EB9807FFF7C6FC0297D4F81834D4F855
:10CD18001064002B53D02846FFF7AEFCFFF780FFC6
:10CD280080F00105EDB203E062689A4292D8A260F1
:10CD3800284607B0BDE8F08308233246DDE7012B1B
:10CD480052D1BDF80C303548C3F38311062928BFEA
:10CD5800062161F38913023101F00F018900ADF852
:10CD68000C30FFF756FC054600283DD0FFF780FC45
:10CD78000023082203A92846FFF78CFC0026BDF8EB
:10CD88000C20C2F38312B300964203F10803BCD20D
:10CD980002994A1CC9B20331029204EB81010422B0
:10CDA8002846FFF777FC0136E9E7F3685B7923B19A
:10CDB800336829461B6830469847F3681E68002E7A
:10CDC800F3D12846FFF758FC0DF107008DF80760EE
:10CDD800FEF734FFD4F818340BB9029BA3609DF812
:10CDE8000700FEF74FFF99E7D4F8104454B90D4BEC
:10CDF8000D480E49C01AC008000440F0020000F0B7
:10CE08005FF88BE7236820469B689847E3681C68AF
:10CE1800ECE700258CE700BF102000206CD901004A
:10CE28001C20002080D90100A8D9010011E10100CF
:10CE38002DE9F34704460E46924601A901221846F9
:10CE48009946FFF719FE1C4F10B3019D4FF00008DB
:10CE5800AA1CC84508EB020125D118480021FFF794
:10CE680007F980F31000000440EA1440E4006B1C4A
:10CE780004F03804DBB2EDB244F0010407EB83039D
:10CE8800033544EA881444EA8624D86047F82540E4
:10CE98003B781BB1FFF7CEFE0028FBD1FFF7BEFEA3
:10CEA80002B0BDE8F087C9B207EB81015AF8283013
:10CEB800CB6008F10108CCE7102000202C240020CA
:10CEC80000231A46FFF7B4BF07B50123019201AA50
:10CED800FFF7AEFF03B05DF804FB07B5CDE900230B
:10CEE80002236A46FFF7A4FF03B05DF804FB0000C5
:10CEF80030B50F4CD4F8102403460020114631B940
:10CF0800D96808714AB9C4F810340A6030BDC968D4
:10CF18000D79854206D00968F1E7D26814680C607B
:10CF28001360F3E701300A28E8D14FF0FF30EDE74E
:10CF38001020002038B5084B0125D3F810441D7087
:10CF480004B938BDE3685D71236820465B6898477B
:10CF5800E3681C68F4E700BF1020002010B5037ACE
:10CF6800052B0C460FD0437A23B1084A08492046BE
:10CF7800FFF72BF907492046FFF727F92046BDE8B8
:10CF88001040FFF717B9002AF8D0F3E734E10100A1
:10CF980039E1010059E10100C38873B504460D4623
:10CFA80033B1144A00921449144A2846FFF70DF980
:10CFB800217A05291CD0637A4BB1A088FFF718FEA7
:10CFC8000F4B104953F820202846FFF7FEF8227A25
:10CFD8000D4BA08853F822600021FFF7EDFD0B49A7
:10CFE80003463246284602B0BDE87040FFF7EDB868
:10CFF80002B070BD34E1010044E101003CE10100F0
:10D00800C0E1010039E10100E4E101005CE1010057
:10D018002DE9F04385B01F460C9D002395F80C9030
:10D028002B7306460C46904629463846FFF7B4FF50
:10D03800B8F1060F09D8DFE808F00412181F2833E2
:10D04800400031462846FFF7C0F8002229463846F6
:10D05800FFF784FF85F80C9005B0BDE8F0832268DF
:10D0680031462846FFF7B1F8EFE7D4E90023314607
:10D078002846FFF7AAF8E8E7A36800933146D4E901
:10D0880000232846FFF7A1F8DFE7E3680193A368C8
:10D0980000933146D4E900232846FFF796F8D4E7F1
:10D0A80023690293E3680193A36800933146D4E9A6
:10D0B80000232846FFF789F8C7E7636903932369C4
:10D0C8000293E3680193A36800933146D4E90023EF
:10D0D8002846FFF77AF8B8E708292DE9F74F804680
:10D0E8000E4617461C463DD800251B7B2573214656
:10D0F80010460193FFF750FFDFF888A0DFF888B0EB
:10D10800AE4232D918F8052059462046FFF75DF897
:10D118000135082DF4D11D49DFF874A0DFF874B08B
:10D128002046FFF752F84FF000094E4524D918F869
:10D1380009507E2D1ED8284600F0F5FA002814BFA5
:10D148002A462E2259462046FFF73FF809F10109E1
:10D15800B9F1080FE9D1012221463846FFF7FEFE52
:10D16800019B237303B0BDE8F08F51462046FFF7BB
:10D178002CF8CDE72E22E5E751462046FFF725F8A3
:10D18800E4E700BF6CE1010066E1010070E1010025
:10D198006EE1010072E101000369C26893429CBF1D
:10D1A80081685B18013B981A70472DE9F041D0E976
:10D1B80002840546A8EB04064068964220440F46C0
:10D1C800144404D900F032FBEC60BDE8F08132462B
:10D1D800A4EB080400F02AFB68682246B919F1E7B5
:10D1E8002DE9F843C5680646894617464FF00008FA
:10D1F8003369B46870689D4228BF1B19641BBC4220
:10D2080003F1FF3328BF3C465B1B9C4228BF1C46EA
:10D2180049462844224600F009FBB3682544AB423E
:10D2280008BF00253F1BA044A144F560E0D140465B
:10D23800BDE8F88310B5114C114AA2610223C4E974
:10D248000433104BE361A2644FF400730E4A0F4994
:10D258002362E26400231022E01DA3626362E3629A
:10D26800A3656365E365226500F098FA08492046DE
:10D2780000F094FA2023A37110BD00BFC824002039
:10D28800F8E10100502500204025002001E20100BE
:10D2980005E20100F8B51824174B00FB04451D44AE
:10D2A80004FB00330F46DC6A012C16460FD0022C13
:10D2B8001AD0F4B92846FFF76FFF864205D83246E0
:10D2C80039462846FFF771FF34462046F8BD284600
:10D2D800FFF762FF8642344628BF04462246394695
:10D2E8002846FFF762FFF0E72846BDE8F840FFF759
:10D2F80077BF0024E9E700BFC8240020FFF79ABFE2
:10D3080010DF704713B5044609496846FFF703FA6A
:10D31800019808B902B010BDD0E9003120469847FD
:10D3280018B16846FFF7FFF9F2E71120F2E700BFEE
:10D3380018E2010013B5044607496846FFF7EBF900
:10D34800019B0BB902B010BD2046D3E900219047DC
:10D358006846FFF7E8F9F3E730E201000B4991F876
:10D368001623EC2352091341DB0706D5084B9A68AC
:10D378003AB94FF480030B60704742F20200FEF79F
:10D38800FFB91A6842F480021A60704700E100E0B1
:10D39800941E0020F7B5194F3C7864BB184E012540
:10D3A80020463570FFF7AEFF112821D02046FFF741
:10D3B800C1FF144B8DF80340186801900DF103006C
:10D3C800FEF73CFC104901A8FFF79AFF0446B0FAA3
:10D3D80080F0400938709DF80300FEF753FC3CB913
:10D3E8000A4B34701C70FFF7B9FF2846FFF7A2FFFD
:10D3F800204603B0F0BD0824FAE700BF51270020FB
:10D408005027002014E20100A5B701005227002090
:10D41800014B1878704700BF5127002007B508490D
:10D428006846FFF778F9019B13B903B05DF804FB70
:10D43800D3E9002090476846FFF775F9F3E700BF86
:10D4480024E20100FFF7EABF60DF704769DF704739
:10D4580061DF704730B5134B1B7891B0FBB1124DAB
:10D4680034240DF1020103A8ADF80240FFF7F0FFE4
:10D4780070B9294601A8FFF74EF9029B002BF0D09E
:10D4880003A8D3E90021904701A8FFF74CF9F4E776
:10D49800052804D011B0BDE83040FEF771B911B0CD
:10D4A80030BD00BF5327002074E4010030B50C469E
:10D4B80085B0002900F089800023CDE90133444A72
:10D4C800039301230A608DF804008DF8063001A942
:10D4D80006232020ADF80830FFF7B8FF60B1FFF74A
:10D4E80073F93C493C4B5B1ADB081B0402463B4979
:10D4F80043F00100FFF7E8FC0023CDE90133039373
:10D508002268012301A940208DF80530FFF79EFF0E
:10D5180060B1FFF759F92F492F4B5B1ADB081B0441
:10D5280002462F4943F00100FFF7CEFC0023CDE966
:10D538000133039322680A2301A901208DF80430DE
:10D54800FFF784FF60B1FFF73FF92249224B5B1ACE
:10D55800DB081B040246234943F00100FFF7B4FC33
:10D568000023CDE9023322684FF4B06301A9A1205A
:10D578000193FFF76BFF60B1FFF726F91549164BCA
:10D588005B1ADB081B040246174943F00100FFF74A
:10D598009BFC00252268039501A9A020CDE901552F
:10D5A800FFF754FF034668B1FFF70EF909490A4B24
:10D5B8005B1ADB081B0402460C4943F00100FFF725
:10D5C80083FC2B46184605B030BD0E23FAE700BF92
:10D5D800E01A002080D90100D8D901003CE20100FE
:10D5E80082E20100CEE201001AE301006BE30100D0
:10D5F800F8B506460768FFF727FF3368BB420546BC
:10D608001DD9194B194C1A49E41AE408240444F0AA
:10D6180002042046FFF754FC336816493A46204670
:10D62800FFF75BFC4FF080533268D3F80C31124996
:10D638009B0203F100539A1A2046FFF745FC25B9CF
:10D648000E4B01221A702846F8BD2846FFF7BCF891
:10D658000549064B5B1ADB081B040246084943F0E0
:10D668000100FFF731FCEEE780D90100D8D90100AD
:10D67800BEE30100EDE301001EE401005327002092
:10D6880048E401004BDF70471FB50E4C01A8FFF7B7
:10D69800F9FF70B9214602A8FFF73DF8039B002B5C
:10D6A800F4D00198D3E90021904702A8FFF73BF88E
:10D6B800F4E7052804D004B0BDE81040FEF760B8D0
:10D6C80004B010BD8CE40100002A04BF002070479C
:10D6D8008446097848B2002844BF6FF001007047BB
:10D6E800BCF1000F18BFCCF800100021C3E90011ED
:10D6F800002818BF012070477F298EBF6FF00100F6
:10D7080001700120704742F25472C2F2000213689D
:10D71800002B02BF41F61C33C2F2000313605A68A3
:10D728009268126810470921FFF7EDBF7F2884BF70
:10D73800002070474EF22C62C0F20102105C4EF2DB
:10D74800AC62C0F20102515C08407047A0F161016F
:10D758001A2938BF20387047A0F141011A2938BF6B
:10D76800203070477F2884BF002070474EF22C621B
:10D77800C0F20102105C4EF2AC62C0F20102515CD0
:10D7880008407047A0F161011A2938BF2038704756
:10D79800A0F141011A2938BF203070470246F0B481
:10D7A8004FF00137FB0151F8044BE51BA5431D4021
:10D7B80002D142F8044BF6E70439F0BC11F8013BFA
:10D7C80002F8013B002BF9D1704700BF411C8207CA
:10D7D8000CD010F8012B3AB3820707D010F8012BB0
:10D7E80012B3820702D010F8012BEAB14FF0013CC6
:10D7F80050F8042BCCFA52F37BB950F8042BCCFA2E
:10D8080052F353B950F8042BCCFA52F32BB950F811
:10D81800042BCCFA52F3002BEAD004381BBAB3FA23
:10D8280083F300EBD3000130401A704772B384468B
:10D8380090EA01039B0721D1830709D011F8013B26
:10D8480000F8013B013A20D08307F7D100E0844675
:10D85800202A0AD32DE9F007B1E8F807A0E8F8076D
:10D86800203A202AF8D2BDE8F007042A06D351F856
:10D87800043B40F8043B043A042AF8D22AB111F8D0
:10D88800013B00F8013B013AF9D16046704700BFFF
:10D8980000220B0011001A0084465AB3830704D0F3
:10D8A80000F8011B013AF9D124E0C9B241EA01218B
:10D8B80041EA0141202A11D3203A2DE9F0030B4611
:10D8C8000C460D460E460F4688468946A0E8FA03E0
:10D8D800203AFBD2BDE8F00320320BD0042A05D34E
:10D8E80040F8041B043A05D0042AF9D200F8011BB9
:10D8F800013AFBD160467047072904D90023024A40
:0CD90800C0E90031106070475827002073
:08D91400B5A9010000000000AC
:10D91C0009A6010000000000F3A20100301B00204A
:10D92C0029A70100281C00202197010000000000FD
:10D93C007DA4010000000000CFA80100381C0020CD
:08D94C00059401000000000039
:08D9540051AA010000000000CF
:10D95C005DD401000000000091D601000000000021
:10D96C00401F00200820002010200020481F00200D
:04D97C00180000008F
:10D98000EEDA010000000000F4DA010000000000FF
:10D99000FBDA010000000000FFDA010000000000D7
:10D9A00004DB01000000000022E10100000003038D
:10D9B0000ADB0100000000002EDB01000000000077
:10D9C000E8DA010000000000DBDA010000000303D8
:10D9D0000CE201000000030365E401000000030302
:10D9E00080E401000000030396DB0100000000005A
:08D9F000ACDB010000000000A7
:10D9F800B8E001000000000001E101000C1B00205C
:10DA0800E4E0010000000000F0E00100141B002029
:10DA1800436F6E6E656374656400446973636F6E0B
:10DA28006E6563746564004661737420616476652D
:10DA380072746973696E672E004E6F726469635FF2
:10DA4800426C696E6B7900426C696E6B79206578FF
:10DA5800616D706C6520737461727465642E00006A
:10DA680000010101000000010100000000010100A7
:10DA780000000073645F626C655F67617474635F64
:10DA880065786368616E67655F6D74755F726571EF
:10DA98007565737428292072657475726E656420C3
:10DAA80025732E0073645F626C655F6761747473BD
:10DAB8005F65786368616E67655F6D74755F7265D1
:10DAC800706C7928292072657475726E65642025DA
:10DAD800732E006E72665F626C655F6761747400B6
:10DAE800636C6F636B00434C4F434B004750494F87
:10DAF8005445005052530055415254005541525418
:10DB080045006170705F627574746F6E0046617471
:10DB1800616C206572726F720053797374656D2041
:10DB28007265736574006170705F74696D65720009
:10DB38000100060000000000081E002011B80100C6
:10DB480052544320696E7374616E636520616C7210
:10DB58006561647920696E697469616C697A656464
:10DB68002E005254433A20696E697469616C697A6F
:10DB780065642E00000000000338FDD8704730317E
:10DB88003233343536373839414243444546707765
:10DB9800725F6D676D7400001CD901001CD901000B
:10DBA80004000000736F72746C697374004E5246FF
:10DBB8005F53554343455353004E52465F455252B7
:10DBC8004F525F5356435F48414E444C45525F4D58
:10DBD800495353494E47004E52465F4552524F52A1
:10DBE8005F534F46544445564943455F4E4F545F33
:10DBF800454E41424C4544004E52465F4552524FB5
:10DC0800525F494E5445524E414C004E52465F4574
:10DC180052524F525F4E4F5F4D454D004E52465F38
:10DC28004552524F525F4E4F545F464F554E440037
:10DC38004E52465F4552524F525F4E4F545F5355B6
:10DC480050504F52544544004E52465F4552524F31
:10DC5800525F494E56414C49445F504152414D0034
:10DC68004E52465F4552524F525F494E56414C49BB
:10DC7800445F5354415445004E52465F4552524FFB
:10DC8800525F494E56414C49445F4C454E475448B3
:10DC9800004E52465F4552524F525F494E56414CD4
:10DCA80049445F464C414753004E52465F455252E5
:10DCB8004F525F494E56414C49445F4441544100DC
:10DCC8004E52465F4552524F525F444154415F5352
:10DCD800495A45004E52465F4552524F525F544989
:10DCE8004D454F5554004E52465F4552524F525F74
:10DCF8004E554C4C004E52465F4552524F525F466D
:10DD08004F5242494444454E004E52465F45525296
:10DD18004F525F494E56414C49445F41444452007A
:10DD28004E52465F4552524F525F42555359004E2C
:10DD380052465F4552524F525F434F4E4E5F434FDC
:10DD4800554E54004E52465F4552524F525F52450F
:10DD5800534F5552434553004E52465F4552524F1A
:10DD6800525F4D4F44554C455F4E4F545F494E49A5
:10DD78005449414C495A4544004E52465F45525217
:10DD88004F525F4D555445585F494E49545F46417F
:10DD9800494C4544004E52465F4552524F525F4DE2
:10DDA800555445585F4C4F434B5F4641494C454499
:10DDB800004E52465F4552524F525F4D555445589A
:10DDC8005F554E4C4F434B5F4641494C4544004ECE
:10DDD80052465F4552524F525F4D555445585F4326
:10DDE8004F4E445F494E49545F4641494C454400B3
:10DDF8004E52465F4552524F525F4D4F44554C4527
:10DE08005F414C52454144595F494E495449414C40
:10DE1800495A4544004E52465F4552524F525F534D
:10DE2800544F524147455F46554C4C004E52465F51
:10DE38004552524F525F4150495F4E4F545F494DD2
:10DE4800504C454D454E544544004E52465F455250
:10DE5800524F525F464541545552455F4E4F545FAD
:10DE6800454E41424C4544004E52465F4552524F42
:10DE7800525F494F5F50454E44494E47004E524607
:10DE88005F4552524F525F4452565F5457495F455F
:10DE980052525F4F56455252554E004E52465F45BC
:10DEA80052524F525F4452565F5457495F4552523F
:10DEB8005F414E41434B004E52465F4552524F52CE
:10DEC8005F4452565F5457495F4552525F444E4132
:10DED800434B004E52465F4552524F525F424C45AB
:10DEE8005F495053505F52585F504B545F545255DE
:10DEF8004E4341544544004E52465F4552524F529C
:10DF08005F424C455F495053505F4348414E4E4530
:10DF18004C5F414C52454144595F4558495354530D
:10DF2800004E52465F4552524F525F424C455F4940
:10DF38005053505F4C494E4B5F444953434F4E4EEC
:10DF48004543544544004E52465F4552524F525F36
:10DF5800424C455F495053505F504545525F5245CA
:10DF68004A454354454400556E6B6E6F776E206585
:10DF780072726F7220636F64650000000000000019
:10DF8800B5DB010001000000C1DB01000200000058
:10DF9800DFDB01000300000000DC010004000000DA
:10DFA80013DC01000500000024DC0100060000006D
:10DFB80038DC01000700000050DC01000800000008
:10DFC80068DC01000900000080DC01000A00000094
:10DFD80099DC01000B000000B1DC01000C0000001E
:10DFE800C8DC01000D000000DCDC01000E000000B0
:10DFF800EEDC01000F000000FDDC01001000000055
:10E0080011DD01001100000028DD010012000000F0
:10E0180037DD0100130000004CDD01008000000026
:10E0280060DD01008100000081DD01008200000048
:10E038009DDD010083000000B9DD010084000000BF
:10E04800D7DD010085000000F8DD01008600000032
:10E058001DDE01009000000034DE01009100000088
:10E0680052DE01009200000070DE01000082000014
:10E0780085DE010001820000A3DE010002820000AB
:10E08800BFDE010000840000DBDE01000184000027
:10E09800FFDE01000284000029DF01000384000084
:10E0A8004EDF0100000000000338FDD87047000073
:10E0B800E9C7010055C80100E5C70100FFFFFFFFE0
:10E0C800FFFFFFFFFFFFFFFFFFFFFFFF0000000054
:10E0D800000000000000D6010601000079C9010017
:10E0E800DDC9010029C90100756172745F6C6F6731
:10E0F8005F6261636B656E64007274745F6C6F67F6
:10E108005F6261636B656E64004261636B656E6438
:10E118007320666C75736865640061707000000038
:10E12800302400207F000000B02400201B5B306DED
:10E13800002573001B5B313B33316D0025734C6F39
:10E1480067732064726F70706564202825642925C0
:10E15800730D0A003C25733E2025733A20002025C4
:10E1680030327800202020007C002563001B5B31C2
:10E178003B33306D001B5B313B33326D001B5B3131
:10E188003B33336D001B5B313B33346D001B5B311C
:10E198003B33356D001B5B313B33366D001B5B3108
:10E1A8003B33376D007761726E696E6700696E6622
:10E1B8006F0064656275670034E1010075E1010074
:10E1C8003CE101007DE1010085E101008DE10100F4
:10E1D80095E101009DE10100A5E1010000000000BA
:10E1E8001BDB0100ADE10100B5E10100BAE101006E
:10E1F8005465726D696E616C005254540053454702
:10E20800474552006E72665F736468000010020131
:10E2180054D9010054D90100080000005CD901005C
:10E228006CD901000800000054D901005CD9010034
:10E238000800000073645F626C655F6366675F7304
:10E24800657428292072657475726E65642025735B
:10E25800207768656E20617474656D7074696E6787
:10E2680020746F2073657420424C455F434F4E4EB7
:10E278005F4346475F4741502E0073645F626C6599
:10E288005F6366675F7365742829207265747572A9
:10E298006E6564202573207768656E2061747465E7
:10E2A8006D7074696E6720746F2073657420424CBA
:10E2B800455F4741505F4346475F524F4C455F4378
:10E2C8004F554E542E0073645F626C655F636667DA
:10E2D8005F73657428292072657475726E65642091
:10E2E8002573207768656E20617474656D70746934
:10E2F8006E6720746F2073657420424C455F434FEE
:10E308004D4D4F4E5F4346475F56535F5555494401
:10E318002E0073645F626C655F6366675F73657424
:10E3280028292072657475726E65642025732077BC
:10E3380068656E20617474656D7074696E672074A9
:10E348006F2073657420424C455F47415454535FB6
:10E358004346475F415454525F5441425F53495AC0
:10E36800452E0073645F626C655F6366675F736503
:10E378007428292072657475726E6564202573206F
:10E388007768656E20617474656D7074696E672056
:10E39800746F2073657420424C455F474154545351
:10E3A8005F4346475F534552564943455F4348419B
:10E3B8004E4745442E00496E737566666963696504
:10E3C8006E742052414D20616C6C6F63617465649A
:10E3D80020666F722074686520536F667444657692
:10E3E8006963652E004368616E67652074686520FF
:10E3F80052414D207374617274206C6F636174694B
:10E408006F6E2066726F6D203078257820746F20CB
:10E41800307825782E004D6178696D756D205241F0
:10E428004D2073697A6520666F72206170706C691F
:10E43800636174696F6E20697320307825782E00C7
:10E4480073645F626C655F656E61626C6528292024
:10E4580072657475726E65642025732E006E72661F
:10E468005F7364685F626C65000000001CD901007E
:10E4780054D90100080000006E72665F7364685F1B
:10E48800736F630014D901001CD901000800000053
:10E49800A4E40100D4E50100A8E401004300000061
:10E4A80035D7010055D7010061D701006DD70100AC
:10E4B8008DD7010099D7010001D70100D1D60100FD
:10E4C80053756E004D6F6E00547565005765640096
:10E4D800546875004672690053617400004A616EA1
:10E4E80000466562004D617200417072004D6179AD
:10E4F800004A756E004A756C004175670053657077
:10E50800004F6374004E6F760044656300002E0070
:10E518000053756E646179004D6F6E6461790054C3
:10E52800756573646179005765646E6573646179B4
:10E538000054687572736461790046726964617920
:10E5480000536174757264617900004A616E756187
:10E558007279004665627275617279004D61726305
:10E568006800417072696C004D6179004A756E658A
:10E57800004A756C7900417567757374005365704E
:10E5880074656D626572004F63746F626572004EE8
:10E598006F76656D62657200446563656D6265726C
:10E5A8000000414D00504D0000256D2F25642F259A
:10E5B800790025483A254D3A2553002561202562E2
:10E5C80020256520255420255900000016E5010066
:10E5D80018E5010018E5010018E5010018E501003B
:10E5E80018E5010018E5010018E5010018E501002B
:10E5F80018E50100FFFFFFFFFFFFFFFFFFFFFFFF21
:10E60800FFFF000019E50100C8E4010053E501001F
:10E61800E5E40100AAE50100B1E50100BAE5010061
:10E62800C3E5010020202020202020202068282861
:10E6380028282020202020202020202020202020C2
:10E64800202020204810101010101010101010104A
:10E65800101010108484848484848484848410102A
:10E668001010101010818181818181010101010147
:10E678000101010101010101010101010101011073
:10E68800101010101082828282828202020202021C
:10E698000202020202020202020202020202021044
:10E6A800101010200007032004170201085710401B
:01E6B80080E1
:10E6BC000A1801000F180100FFFF00000090D003A2
:10E6CC000010014011000400000000000020004078
:10E6DC0000000000002000400000000000000000CE
:10E6EC00FF00000000000000FF00000098E40100A3
:10E6FC0098E4010098E4010098E4010098E401001A
:04000003100092490E
:00000001FF
