:020000021000EC
:1090000000600020499201000192010003920100DA
:109010000592010007920100099201000000000082
:109020000000000000000000000000000B920100A2
:109030000D920100000000000F920100119201004A
:10904000A1AB010013920100E5AF010013920100F2
:10905000139201000000000099AE0100139201007C
:109060001392010013920100139201001392010068
:109070001392010013920100139201001392010058
:109080001392010059C401001392010013920100D0
:10909000139201001392010089D90100139201007B
:1090A0001392010013920100000000000000000074
:1090B0001392010013920100000000000000000064
:1090C00000000000000000000000000000000000A0
:1090D0000000000000000000000000000000000090
:1090E0000000000000000000000000000000000080
:1090F0000000000000000000000000000000000070
:10910000000000000000000000000000000000005F
:10911000000000000000000000000000000000004F
:10912000000000000000000000000000000000003F
:10913000000000000000000000000000000000002F
:10914000000000000000000000000000000000001F
:10915000000000000000000000000000000000000F
:1091600000000000000000000000000000000000FF
:1091700000000000000000000000000000000000EF
:1091800000000000000000000000000000000000DF
:1091900000000000000000000000000000000000CF
:1091A00000000000000000000000000000000000BF
:1091B00000000000000000000000000000000000AF
:1091C000000000000000000000000000000000009F
:1091D000000000000000000000000000000000008F
:1091E000000000000000000000000000000000007F
:1091F000000000000000000000000000000000006F
:10920000FEE7FEE7FEE7FEE7FEE7FEE7FEE7FEE736
:10921000FEE7FEE709480068094909680A280AD1FB
:10922000002908D1074802686FF070031A404FF018
:1092300040031A43026000F009B80000300100103A
:1092400034010010E40E0040FFF7E4BF0B484FF07C
:109250000701884385460A48804700F019B8094845
:1092600009490A4A884207D0521A05D003780130CA
:109270000B700131013AF9D1704700000060002005
:10928000F99801004CDF0100E01A0020E01A0020EC
:10929000344935480A1A02D0072291438D46334992
:1092A00033480A1A06D00722914381F30988022223
:1092B00082F314882F483049304A00F041F8304892
:1092C0003049314A00F03CF830483149314A00F029
:1092D00037F831483149324A00F032F831483249E2
:1092E000324A00F02DF832483249334A00F028F86B
:1092F00032483349334A00F023F8334833490022D7
:1093000000F029F832483349002200F024F83248AE
:109310003249091A04F092FD314A90471F4820490A
:10932000884205D00268043003B4904703BCF7E7D5
:1093300000208646EC46002000212A4A9047FEE79E
:10934000884207D0521A05D0037801300B700131E2
:10935000013AF9D17047884202D002700130FAE731
:1093600070470000006000200058002000600020CE
:10937000006000203CEC0100E01A0020601B00208F
:10938000E8930100E893010050DE01003CEC01008D
:10939000E01A0020E01A00204CDF01004CDF010041
:1093A0004CDF01004CDF01004CDF01004CDF01000D
:1093B0004CDF01004CDF010039EC0100BCEC010086
:1093C000601B0020601B0020601B0020FC2600208A
:1093D000FC260020FC260020FC260020FC2E00207D
:0893E0005F920100E595010018
:1093E80072DF704773DF704776DF70477ADF704748
:1093F8007CDF70477FDF70478FDF7047B1DF7047D2
:1094080002F05CBC08B5064B01211878FFF7EAFFAB
:1094180008B102F053FCBDE80840002000F0D8B9BC
:10942800F81A00200388212B13B5044658D007D812
:10943800112B32D0132B4BD0102B0CD002B010BDF7
:10944800522B59D0562B01D03B2BF7D1A088132192
:10945800FFF7CAFF1AE02C4B2C482D49C01AC00848
:10946800000440F0030003F0C9FF012000F0B0F948
:10947800002000F0B9F9274BA1882748198001F08E
:109488003BF908B102F01AFC02F0D6FB0028D5D04F
:1094980002B0BDE8104002F011BC1B4B1B481F492D
:1094A800C01AC008000440F0030003F0A7FF012021
:1094B80000F09AF9174B4FF6FF721A8002F0D2FBB0
:1094C80008B102F0FBFB02B0BDE81040FFF79ABFFD
:1094D800104800231A4685210088FFF78BFFD5E73F
:1094E80000238088ADF8043001A9FFF785FF002824
:1094F800A4D002F0E3FBA1E7064800231A46194668
:109508000088FFF77BFFC1E7B4DE0100DCDE010065
:109518004CDF0100FA1A0020C81B002056DF0100AA
:1095280008B503784BB9054B3B211888FFF75CFF5A
:1095380018B1BDE8084002F0C1BB08BDFA1A002006
:10954800052810B50C461AD10F4B10481049C01AFF
:10955800C008000440F0030003F050FF0D4B0E4913
:109568001888224601F0AEF930F008020BD043F219
:109578000202904207D043F20142904203D0BDE874
:10958800104002F09BBB10BDB4DE0100DCDE010020
:1095980063DF0100FA1A0020B01B002010B50A4B47
:1095A8000A4CE41AE408240444F0030402203AB103
:1095B80000F00EF906492046BDE8104003F01EBF32
:1095C80000F012F90349F6E7B4DE0100DCDE010021
:1095D8007DDF01008EDF010002F070BB00B54FF4A3
:1095E8008041A7B0002003F071FD08B102F066FBCE
:1095F80003F0A8FC012000F00FF902F03FFC08B1CD
:1096080002F05CFB624840F23332012102F0BCFAFE
:1096180008B102F053FB03F0F1FA08B102F04EFB77
:1096280004F056F908B102F049FB002317A90120FC
:10963800179304F0D9F908B102F040FB17A804F019
:1096480075FA08B102F03AFB112352498DF820301F
:109658000D2208A8FFF7CCFE08B102F02FFB00236B
:10966800ADF860304C4B179317A84FF4C873ADF89A
:109678006230FFF7BBFE08B102F020FB474800212B
:1096880000F063FF08B102F019FB00230893444877
:10969800444B179317A901F01DF808B102F00EFB0F
:1096A800414B4248089308A901F09EF808B102F01E
:1096B80005FB41F22353ADF804303C4B3C4C9B7CFA
:1096C8008DF806303C22002108A804F083FB022311
:1096D8008DF820303C2240F20163002117A8ADF834
:1096E800223004F077FB22460123ADF86C3052F8A3
:1096F800041B01AB08A81C9300F0CDFA08B102F0D6
:10970800DDFA2C4AA16817A800F0C5FA08B102F0E2
:10971800D5FA1822002102A804F05CFB01238DF879
:109728001D308DF8083022492348402302AA0493AB
:10973800FFF756FE08B102F0C1FA1422002117A85B
:1097480004F048FB4FF4A0334FF4A022CDE91823CE
:1097580003238DF86830194B1C9317A8184B1D93D9
:1097680000F064FD08B102F0A9FA164B1648174933
:10977800C01AC008000440F0030003F03FFEFFF7E2
:1097880041FE03F0F5FC0028FBD103F04DFAF8E7A1
:10979800E01A0020A0DF01005000A000A01B00205C
:1097A800C81B002009940100A5950100B01B0020EA
:1097B800E81A0020F41A0020F81A00202995010060
:1097C800E1950100B4DE0100DCDE0100AEDF01003E
:1097D800044B1A5C012393404FF0A042C2F80835AD
:1097E800704700BFC6DF0100044B1A5C0123934099
:1097F8004FF0A042C2F80C35704700BFC6DF010029
:1098080008B50020FFF7F0FF0120FFF7EDFFBDE8E6
:1098180008400220FFF7E8BFC20708B501460AD58D
:109828004FF0A0430322C3F83827C3F83C27C3F8F6
:109838004027FFF7E5FF8B0708D54FF0A0430C2220
:10984800C3F81427C3F84827C3F8542708BD0000F5
:10985800BFF34F8F0549064BCA6802F4E062134311
:10986800CB60BFF34F8F00BFFDE700BF00ED00E006
:109878000400FA054FF08053D3F83001421C04BFAE
:109888004FF0704393F8E00F831F584258417047D8
:109898004FF0704393F8E02F062A09D1D3F8E83F38
:1098A800C3F30313033B042B02D8024AD05C70476E
:1098B80000207047D8DF01004FF08053D3F8300103
:1098C800421C04BF4FF0704393F8E00F062804D001
:1098D800A0F10A0358425841704701207047000020
:1098E800024AD2F80034002BFBD0704700E0014058
:1098F80010B5FFF7BFFF40B14FF080539C4AD3F833
:109908002433C3F30423C2F84035FFF7C1FF10B175
:10991800984B994A5A67FFF7CFFF48B14FF08053E9
:109928004FF08042D3F84432C3F34233C2F83C3597
:10993800FFF7AEFF30B1914AD2F8FC3023F08073C4
:10994800C2F8FC30FFF7B8FF40B14FF08043002267
:10995800C3F80C21C3F81021C3F83825FFF798FF86
:1099680020B14FF080430322C3F8A025FFF790FFF2
:1099780060B1834B0522C3F810260122C3F888265C
:109988000022C3F818263F22C3F814264FF080534C
:10999800D3F83021511C09BF4FF07043D3F834314C
:1099A80093F8E02FD3F8E83F08BFC3F30313062A60
:1099B8004ED1033B042B03D8724AD35C002B49D009
:1099C8004FF08052704BD2F80414C3F82015D2F827
:1099D8000814C3F82415D2F80C14C3F82815D2F8C3
:1099E8001014C3F82C15D2F81414C3F83015D2F893
:1099F8001814C3F83415D2F81C14C3F84015D2F85B
:109A08002014C3F84415D2F82414C3F84815D2F822
:109A18002814C3F84C15D2F82C14C3F85015D2F8F2
:109A28003014C3F85415D2F83414C3F86015D2F8BA
:109A38003814C3F86415D2F83C14C3F86815D2F882
:109A48004014C3F86C15D2F84424C3F8702501E01B
:109A58000A2AB5D0FFF70EFF48B14FF080534FF0F8
:109A68008042D3F8583203F04F03C2F8E43EFFF7C0
:109A780023FF48B14FF08043D3F80024D20744BFF6
:109A88006FF00102C3F800244FF08053D3F830215F
:109A9800062A0ED1D3F83431033B042B02D83B4AB3
:109AA800D35CBBB13A4AD2F83C3743F48063C2F87E
:109AB8003C374FF08053D3F830210A2A0AD1D3F823
:109AC80034313BB14FF08042D2F8E43E43F00F030B
:109AD800C2F8E43E4FF08053D3F83021062A0FD164
:109AE800D3F83431033B042B02D82A4AD35C3BB168
:109AF8004FF01023D3F808224FF08043C3F85825BD
:109B08004FF01021D1F80032002B03DBD1F80432DA
:109B1800002B17DA204901234FF01020C1F8043533
:109B28001524FFF7DDFEC0F80042FFF7D9FEC0F8A4
:109B38000442FFF7D5FE0023C1F80435FFF7D0FE35
:109B4800FFF786FED1F80C32DB070DD5124801234A
:109B5800C0F804350024FFF7C3FEC1F80C42FFF734
:109B6800BFFEC0F80445E9E70C4B0D4A1A6010BD6A
:109B78000030014000C007400DF0ADBA00ED00E034
:109B880000500040C9DF010000C00040CEDF0100E6
:109B980000100040D3DF010000E00140FC1A002063
:109BA8000090D0036DDF704779DF70477DDF704725
:109BB80064DF70472DE9F04F85B000250E9CBDF895
:109BC8003CB0B4F800A00191074690461E46A9464D
:109BD8003A884A450DDC45B12388013BA3EB0A03CB
:109BE8009BB2FF2B39D806F80A30002005B0BDE833
:109BF800F08F7A6852F82900039000220DF10B01CA
:109C080003A8FFF7D5FF0028F0D19DF80B204245A7
:109C180020D1228885F0010002EB080101EB400108
:109C280059451ADC3DB9013292B2019B2280B354E6
:109C380022880132228022880DF10B01324403A8C8
:109C4800FFF7B6FF0028D1D121889DF80B200A44E0
:109C58002280012509F10109BAE70C20C6E72DE9A0
:109C6800F341089FBDF824801546CDE9007802220B
:109C780004461E46FFF79EFF50B933461022294678
:109C88002046CDE9087802B0BDE8F041FFF792BF61
:109C980002B0BDE8F0812DE9F04F0023178813804A
:109CA80090F82D3085B006460D4614465BB3082F54
:109CB80001D80C2028E102A8FFF774FF002840F023
:109CC80023812388DDF809100822EA542388013308
:109CD8009BB21B222380EA54238801339BB2EA18E3
:109CE8002380E950BDF80D30938023889DF8082023
:109CF80006339BB212F0FE0218BF01222380EA54F9
:109D0800238801332380B378FBB123880433BB4213
:109D1800CFD802A8FFF748FF002840F0F580238835
:109D28000322EA54238801339BB219222380EA5480
:109D38002388BDF8082001339BB2E9182380EA5430
:109D4800120A4A70238802332380F2789AB1238852
:109D5800D91CB942ADD80221E954238801339BB2FA
:109D680001212380E95423880B449BB22380EA54C1
:109D780023880B4423807368ABB193F900202388B0
:109D8800D91CB94295D80221E954238801339BB2E2
:109D98000A212380E954238801339BB22380EA54A3
:109DA8002388013323803389002B40F0A180338A34
:109DB8005BB1CDE900472B460722032106F11000CD
:109DC800FFF74DFF002840F09F80338B5BB1CDE952
:109DD80000472B461522142106F11800FFF73FFF14
:109DE800002840F09180326A002A40F09080D6F82E
:109DF8002480B8F1000F30D0B8F804302188981CBE
:109E08008A1C0244BA423FF654AFFE283FF651AFCF
:109E180003336B54238801339BB2FF222380EA5417
:109E2800238801339BB22380B8F80020EA54E9184C
:109E3800120A4A702088023080B22080B8F80420C4
:109E48005AB1D8F8081000296BD0284403F08CFFC9
:109E58002388B8F804201344238096F82C30002B6C
:109E680040F09880307800284ED03388012B58D0A5
:109E7800228802F1020CBC453FF61BAF012805D130
:109E88007378023313449F42FFF413AF023FBF1AA3
:109E9800BFB202A905EB0C00ADF80870FFF786FE0B
:109EA80090BB3178BDF80830022900F0B98072788B
:109EB8009A4202D39F4280F0B180012940F0B280DB
:109EC800974293B2C0F0AE80ADF808300821BDF8D3
:109ED8000830FE2B3FF6EDAE22880133AB542288C2
:109EE800013292B22280A9542288134423800BE0C5
:109EF800CDE900472B460622022106F10800FFF7AC
:109F0800AEFE00283FF453AF05B0BDE8F08FB4F8BB
:109F180000C00CF10603BB423FF6CBAE1188052901
:109F280001D80720F0E76FF4486E01EB0E039BB2EF
:109F38004FF27D3E7345F4D95388052BF1D96FF460
:109F48004860181880B27045EBD94FF6FF7081420F
:109F580001D09942E5D8052305F80C302388013350
:109F68009BB212212380E954238801339BB22380BA
:109F78001188E954E818090A4170238802339BB212
:109F880023805288EA54E918120A4A702388023357
:109F980023802CE7B36A002BC3D04FF000084FF0A2
:109FA8000C0A4FF0160BB16A5FFA88F20AFB02F24C
:109FB80001EB0209B9F80430981CFE283FF679AE87
:109FC800208803332B54238801339BB2238005F860
:109FD80003B0238801339BB223808A5AEA54E918D4
:109FE800120A4A702088023080B22080B9F8042012
:109FF8005AB1D9F80810002993D0284403F0B4FEC8
:10A008002388B9F804201344238096F82C2008F1FB
:10A0180001085FFA88F39A42C5D823E7092156E771
:10A028009F42FBD2ADF8087050E775DF704776DFC6
:10A0380070477ADF70477BDF70470000034B1A8850
:10A0480082420CBF18460020704700BFF01B00205A
:10A05800024B9B6903B11847704700BFD41B00200F
:10A0680073B585B22846FFF7E9FF044638B3174EA3
:10A07800027A337B9A420CD200F10A012846FFF794
:10A08800D4FFF0B111281AD002B0BDE87040FFF734
:10A09800DFBF00230372337C43B13B212846FFF71F
:10A0A800C6FF30F0080301D0FFF7D2FF736933B160
:10A0B80000228DF80420ADF8065001A8984702B098
:10A0C80070BD237A01332372F9E700BFD41B002047
:10A0D80013B50B46497A02460E4871B9D0E901100A
:10A0E8001C7A002C18BF0146586801F00BFF78B1A4
:10A0F80002B0BDE81040FFF7ABBF002119724369F9
:10A1080033B101218DF80410ADF8062001A8984755
:10A1180002B010BDD41B00204B8802889A4212D886
:10A1280042889A420FD380888B8840F2F311884284
:10A1380094BF021A421A9A4205D80844984234BF7A
:10A148000020012070470020704700000388122B70
:10A1580070B5014659D004D8102B1ED0112B44D00D
:10A1680070BD502BFCD12F4BC288DB899A42F7D1A6
:10A17800038A022BF4D186883046FFF75FFF054635
:10A188000028EDD001F1120000F037F938BB6868FB
:10A1980001F0E6FE0028E3D00AE0C37B8688012BA5
:10A1A800DED14FF6FF70FFF749FF054620B90420BE
:10A1B800BDE87040FFF74CBF1B4A068000230372BE
:10A1C8001368C0F80A305368C0F80E3010310A30EE
:10A1D800FFF7A2FF134B6872DB89002BC0D1294619
:10A1E8003046BDE87040FFF773BF8088FFF726FF51
:10A1F80004460028B4D0406801F0B2FE08B1FFF769
:10A2080027FF4FF6FF732380AAE786883046FFF7BB
:10A2180015FF05460028A3D008310A30FFF77CFF58
:10A228006872DCE7D41B0020041C0020F8B5064641
:10A2380048B305460FCD154F3C460FC495E80700B7
:10A2480084E807003068124C3C60B0B1FFF7F1FEBB
:10A25800C0B9326813682360536863600D480E4ABA
:10A268004FF6FF7303800D4B40F8043F002101F0C7
:10A2780037FE002818BF032004E02046FFF7DBFE66
:10A288000028EBD0F8BD0E20FCE700BFD41B00204F
:10A29800041C0020F01B002069A00100101C0020F5
:10A2A8000AB102F067B902F06EB973B50191019C69
:10A2B80006466CB100252C46294601A802F06DF926
:10A2C80018B106EB440301349D800135142DF3D1F8
:10A2D8003046346002B070BD2DE9F04303888488AD
:10A2E800103B8DB00A2B1ED8DFE803F006361D1D83
:10A2F8001D1D1D1D1D5B3D002E4FBB68DB430093DC
:10A308007968684602F075F9009901A8FFF7CDFF52
:10A318000DF106080026019B9E4207D3132C12D983
:10A32800042001F0CBFC0DB0BDE8F08338F8029FA3
:10A3380000250135494607EB850002F024F91E2D5A
:10A34800F7D10136E7E721461B4802F013F91B480D
:10A35800214602F00FF9E6E7174821460DB0BDE89F
:10A36800F04302F010B9027A15483F2A4FEA121555
:10A37800214694BF00220122FFF792FF022D94BFCD
:10A38800002201220F482146FFF78AFF012D0E48BF
:10A3980094BF0022012221460DB0BDE8F043FFF72B
:10A3A8007FBF037A002BBED1427A0548C2F3C002B0
:10A3B8002146F1E7301C0020381C0020341C002006
:10A3C800481C0020441C0020401C0020AADF7047C5
:10A3D800002301380B70042806D8DFE800F00306D4
:10A3E800080A0C0011230B7070472123FBE7312367
:10A3F800F9E71223F7E72223F5E7008800F00100C8
:10A408007047F0B58B7891B00C46012B38BF01230B
:10A4180000278DF80E3005460B88607CADF80C30AF
:10A428006946ADF800708DF80270FFF7D1FFA07C87
:10A438000DF10101FFF7CCFF1646227D237B013287
:10A4480002F0030243EA4203E27B43EAC203227CAE
:10A4580043EA02139DF8022003F01F0322F01F02B3
:10A46800134339461C2209A88DF8023003F0B2FCC8
:10A47800637B13F0300F14D00DF10901E07CADF8C7
:10A4880008708DF80A70FFF7A3FF11238DF80830C4
:10A498009DF80A30012102AA61F342038DF80A30BF
:10A4A8000E92637B8DF82430A37B8DF82530002332
:10A4B800CDE90633089303AB0493A388ADF81C30A9
:10A4C800A368CDF814D01BB1E288ADF81820089322
:10A4D800A2695AB301A90023ADF804308B70138820
:10A4E800ADF82C305388ADF82E3053680D91107BA1
:10A4F8000A93FFF76DFF0DF10501507BFFF768FF29
:10A50800937B117A013303F0030341EA4301937A01
:10A5180041EAC301D37A41EA03119DF8063001F0FC
:10A528001F0123F01F0319438DF80610E36903B1D7
:10A538000C93334604AA09A92846FFF747FF11B030
:10A54800F0BDA5DF7047B5DF704750B14FF0171366
:10A5580003601B2303711723C160C380836000203D
:10A5680070470E207047000013B5034680880C46DC
:10A5780090B91A883A2A64D010D8102A3AD0112AE9
:10A588005BD0A37A43B1E1880020FFF7DAFF002807
:10A598006FD14FF48073638102B010BD552AF0D19A
:10A5A800DB88C988A072172B38BF17238B4228BFB6
:10A5B8000B462381FFF7C7FF60B102F0A3FB3649C2
:10A5C800364B5B1ADB081B040246354943F0010091
:10A5D80002F018FFE37A002BD3D1E368002BD0D028
:10A5E80040F6772200922289ADF804206946204679
:10A5F8009847C6E7DB7B012B04BF0B88CB80C98853
:10A6080023898B42BDD20020FFF79BFF10B901239D
:10A61800E372B6E7112802D10123A372B1E702F071
:10A6280071FB1D491D4B5B1ADB081B0402461D49C3
:10A6380043F0010002F0E6FEA3E71723CB808B600E
:10A648009FE75B89CA88934228BF1346172BCA68BD
:10A6580038BF17230B814AB1C97A39B140F677213F
:10A668000091ADF804306946204690470023638185
:10A6780087E7112890D002F045FB0749074B5B1A82
:10A68800DB081B040749024643F0010002B0BDE89D
:10A69800104002F0B7BE00BFB4DE0100FCDE0100CE
:10A6A8000EE00100DDDF0100B0DF704766DF7047B4
:10A6B80010B5002104464088FFF7F8FF034608B9A3
:10A6C800237210BD112801D10123F9E76368BDE8A1
:10A6D8001040184760B159B10378DE2B0AD00B68D7
:10A6E8004360DE2303704FF6FF73438000207047FA
:10A6F8000E2070470820704728B10378DE2B04D15C
:10A708004180002070470E20704708207047F0B540
:10A71800054685B00C46002942D0002840D00B7869
:10A72800DE2B3DD182884B889A4204D10B7A13B133
:10A738000846FFF7BDFF2B88112B33D0512B0FD0C4
:10A74800012B2DD12B7AAA88012B29D1618891421E
:10A7580026D12046237205B0BDE8F040FFF7A8BF18
:10A76800AB8866889E421BD1AF79022F18D1AD7B8A
:10A778002B1F022B14D800211022684603F02AFB55
:10A78800052D0CBF00234FF4C073694630468DF881
:10A798000070ADF80430FFF787FF08B16368984789
:10A7A80005B0F0BD6388AA889A4204BF4FF6FF73CC
:10A7B8006380F5E7A8DF7047AEDF704762DF704758
:10A7C8000288502A10B40CD1C4884A88944208D10F
:10A7D800028A012A05D14B691BB1827C10BC808892
:10A7E800184710BC70470000F0B50B6843618FB084
:10A7F800334B02AA044603F1100716461868596835
:10A80800154603C50833BB422A46F7D104F11201A5
:10A818003046FFF7D3FF00284FD1A37C8DF80630D0
:10A82800224641F2235301A90120ADF80430FFF775
:10A83800C1FF002841D10146202206A803F0CAFA28
:10A8480041F22453ADF81830A37C8DF81A309DF8E6
:10A858002530224623F0120301254FF0011643F05C
:10A86800120332F80A0B079606A98DF825308DF8E1
:10A8780029508DF82B50FFF7C4FDF0B9014620226E
:10A8880006A803F0A7FA41F22553ADF81830A37CC7
:10A898008DF81A309DF825300796224623F00A03D2
:10A8A80043F00A0332F8020B8DF8253006A98DF81B
:10A8B80029508DF82A50FFF7A4FD0FB0F0BD00BF56
:10A8C8004AE0010000B589B00123ADF80E308DF8DB
:10A8D80012304B89ADF810300DF107038DF80720C1
:10A8E800079300220DF10E0304A9CDF813208DF86B
:10A8F80017200693FFF760FF09B05DF804FB00001E
:10A9080038B5074C051E04F1080318BF1C46236818
:10A918002BB11A6822605B6828469847F7E738BD6C
:10A92800B41C002020B9054B01225A70FFF7E8BF7C
:10A93800012802D1014A9070F8E77047AC1C00204A
:10A9480020B9034B01225A70FFF7DABF704700BFE6
:10A95800AC1C002038B50E4C2378B3B90D486360A1
:10A96800A3602361E36000F0E7F8054602F0EEFF1C
:10A9780008B900F0EDF801232370074BD3F8003431
:10A988000BB10123A370284638BD8525F5E700BF24
:10A99800AC1C00202DA901000000014037B50D4C6A
:10A9A80000230DF107008DF8073001F0E5FBE3689F
:10A9B800013BE360E36833B9074BD3F8005415B99A
:10A9C80000F0D8F8A5709DF8070001F0F9FB03B076
:10A9D80030BD00BFAC1C002000000140012813B5A9
:10A9E8000CD0032820D038B9134B0122C3F880209B
:10A9F800BFF34F8FBFF36F8F02B010BD0F4C002312
:10AA08000DF107008DF8073001F0B6FB23780BB97C
:10AA1800FFF7A0FFE3689DF807000133E360012317
:10AA2800A37001F0CDFBE7E700F092F802B0BDE8B3
:10AA38001040FFF7B3BF00BF00E100E0AC1C0020EE
:10AA48001FB503788DF800304368019383688DF84B
:10AA58000830C368054A0393054B684653F821300C
:10AA680052F82110984705B05DF804FBC01C00207F
:10AA7800C41C00201FB503788DF80030436801938B
:10AA880083688DF80830C368054A0393054B684608
:10AA980053F8213052F82110984705B05DF804FBAF
:10AAA800C01C0020C41C0020F0B5194B90F800C051
:10AAB80091F81DE043F82C20164B16460A6943F816
:10AAC8002C20154B03F80CE00C4607460FCC89B038
:10AAD8006D460FC594E80F0085E80F00CDF810C04B
:10AAE800BEF1000F09D0002E0C4A694608BF324655
:10AAF800381D00F09FFD09B0F0BD002E084A6946D8
:10AB080008BF324607F10C0000F07AFBF3E700BFFC
:10AB1800C41C0020C01C0020C81C002049AA010039
:10AB28007DAA010000F18040002382B00360036821
:10AB38000193019B02B07047044B0246187918B97B
:10AB48001A6001229A80704785207047CC1C00202B
:10AB5800074B1A68D20704D4C02283F800230122C5
:10AB68001A604FF080430122C3F81825704700BFD0
:10AB780000E100E04FF0804208B50223C2F8083334
:10AB88004FF48270FFF7CEFF0123D360D2F8183458
:10AB9800DB03FBD408BD00004FF0804110B5D1F8AD
:10ABA800003163B14FF48070FFF7BCFF0D4B58794B
:10ABB8000122C1F8082310B95A711B6898474FF051
:10ABC8008042D2F8043163B14FF48270FFF7AAFFD4
:10ABD8000223C2F80833034BBDE810401B6801206C
:10ABE800184710BDCC1C002000F1804000F5C04083
:10ABF800002382B0036003680193019B02B0704791
:10AC0800800000F1A040D0F8003723F44033C0F8AA
:10AC18000037D0F8003743EA0143C0F800377047DF
:10AC2800054B4FF0FF32072843F8202084BF1B183C
:10AC380083F84820704700BFD41C002010B518497D
:10AC480091F8583053BB4FF0FF3222FA03F0C00797
:10AC580048BFC81803F1010348BF80F83020202BF3
:10AC6800F3D10024E0B20134FFF7DAFF0C2CF9D15C
:10AC78000C4B0022C0204A6583F806034020186068
:10AC88004FF4BE70FFF7B0FF074B4FF00040C3F81A
:10AC98000403012381F85830104610BD0820FCE752
:10ACA800D41C002000E100E000600040034B93F852
:10ACB8005800003818BF0120704700BFD41C00207E
:10ACC800F0B5394F0346381890F93000002869DA92
:10ACD8008878C0F3400000280BBF082400240C2506
:10ACE8000825AC4201D10420F0BD57F82460013694
:10ACF80043D1FE1865B247F8242086F8305010B9C1
:10AD08003A1982F848308A78500716D4D60736D5CB
:10AD18009A0002F1A042D2F8000720F00200C2F81F
:10AD28000007224ED80803F0070C012202FA0CF2A1
:10AD380016F800C042EA0C02325488780E7810F0F7
:10AD4800020025D0A40004F1804404F5C0441B028D
:10AD5800D4F8102522F4473222F44072C4F81025A2
:10AD68003604D4F8102503F4F85306F44036334378
:10AD78001343C4F810350020B6E70134B1E748782A
:10AD880003F5E0724FF0A046800046F82200C8E7BD
:10AD9800083D47FA85F595F8503043EA861385F85B
:10ADA8005030A1E708209FE7D41C0020281D002070
:10ADB80010B51F4C231893F93020072A18DD083ADC
:10ADC80044FA82F292F850309B09032B0BD14FF0D2
:10ADD800A043D3F81015C14001F001010231BDE8CC
:10ADE8001040FFF70DBF012B0CBF02210321F6E72E
:10ADF800D3B2072B1AD8930003F1804303F5C0435D
:10AE0800D3F8100540F00100C3F8100502F1400026
:10AE180040B2800080B2FFF7E7FE39B154F8223023
:10AE280023B101239340034AC2F8043310BD00BF85
:10AE3800D41C0020006000400E4B034493F93020DE
:10AE4800072A02DD0021FFF7DBBED3B2072B0FD89C
:10AE5800930003F1804303F5C043D3F8101521F0A4
:10AE68000101C3F8101501239340034AC2F80833BF
:10AE7800704700BFD41C0020006000404FF0A04382
:10AE8800D3F8103523FA00F000F0010070470000F5
:10AE98002DE9F34700244E4D01944FF480720121AF
:10AEA80002F1804303F5C04390B21B68012B06D121
:10AEB800D5F804330B4202D0FFF796FE0C43043258
:10AEC800B2F5907F4FEA4101EAD1414BD3F87C318A
:10AED800012B0CD14FF4BE70FFF786FE4FF0A04354
:10AEE80044F00044D3F820250192C3F82025E3B2AA
:10AEF800D3B1384F00250126344210D0AB0003F1FE
:10AF0800804303F5C043D3F81005D3F8101557F85C
:10AF1800253023B1C1F30141C0F30420984701351E
:10AF2800082D4FEA4606E7D1002C48DA294C4FF0A5
:10AF3800A047294D4FF00008012615F9013F5A1C7A
:10AF480031D0C3F3C20108316944DAB211F8041CE4
:10AF580003F03F0903F0070306FA03F3194222D06E
:10AF680009F5E073484657F82330C3F3014ABAF1AC
:10AF7800020F0CBF03210221FFF742FE06FA09F374
:10AF8800C7F8203504EB090393F9303054F823301F
:10AF98004BB19109032904D0BAF1020F12D101294A
:10AFA80001D14846984708F10108B8F1040FC4D107
:10AFB800D7F820350193C7F82035002BB9D102B056
:10AFC800BDE8F087BAF1030FEDD10229E8E700BF29
:10AFD80000600040D41C0020231D0020014B1B688A
:10AFE800184700BF301D00200E4B984237B50C465D
:10AFF80002D0002003B030BD00230DF107008DF80A
:10B00800073001F0B9F8084B1D7915B901221C6009
:10B018001A719DF8070001F0D3F8002DE9D011202E
:10B02800E8E700BF00200040301D0020034B984295
:10B0380001BF034B00221A601A71704700200040BC
:10B04800301D00200023435082B043580193019BD8
:10B0580002B070470A4610B54FF48E71FFF7F2FF41
:10B06800136A9168C95C136A01331362C0F81C152E
:10B0780010BD8B690A4610B54FF4847123B9FFF7E8
:10B08800E1FFD0F8183510BDFFF7DCFF536AD1682F
:10B09800D0F81805C854536A01335362F3E7000027
:10B0A8001FB501238DF80030044BCDE90110D3E919
:10B0B80000126846904705B05DF804FB381D002073
:10B0C80030B54D4DD5F804339A0585B051D5D5F82E
:10B0D8002431002B4DD04FF492712846FFF7B2FF70
:10B0E8004FF40173C5F80833444B93F829200AB983
:10B0F80001226A60404902228DF80020D1F880249C
:10B10800C1F8802403929A690292DA6801920022B7
:10B11800C3E906226846D3E9001290473648D0F8BA
:10B128001C315BB1354A5169136A99424DD992F87D
:10B138002830002B49D11146FFF78CFF2E48D0F854
:10B148004431002B56D04FF4A271FFF77BFF2B4BF5
:10B1580093F829200AB1012202609A69002A49D08D
:10B16800586AD96800229A6105B0BDE83040FFF7F7
:10B1780097BFD5F804335B07D0D5D5F80831002B35
:10B18800CCD01E4C1C482146FFF773FF636AA269A6
:10B198009A42C3D1E369E1684BB1A3612369E360D3
:10B1A8000023606AE3616362FFF77AFFB6E794F809
:10B1B80029300BB901236B600F4B4FF40172C3F8B0
:10B1C80008230023606AA361EEE70B484FF48E71F1
:10B1D800FFF738FF5369002BB0D051690291002363
:10B1E80091688DF80030019153616846D2E90013E7
:10B1F8009847A3E705B030BD00200040381D002067
:10B208002DE9F843534D90F804802C2303FB085391
:10B21800064693F82A300C469146002B40F095805C
:10B228004D490068FFF7E0FE0746002840F08F8090
:10B2380021683368481C0BD04FF0A04001228A4097
:10B24800C0F8082501F5E0724FF0030C40F822C061
:10B258006068421C1FBF00F5E0724FF0A04C4FF031
:10B26800000E4CF822E0A269C3F8242594F814C013
:10B27800627DBCF1010F4CEA0202C3F86C25C3F8E9
:10B288001405C3F80C151DD1A1684A1C1FBF01F590
:10B29800E0724FF0A0404FF0000C40F822C0E26886
:10B2A800501C0BD04FF0A04C01209040CCF8080562
:10B2B80002F5E0704FF0030E4CF820E0C3F80825C3
:10B2C800C3F810152C2303FB08F3EA18C2F80490FE
:10B2D8002269EA50B9F1000F1FD03068227F4FF47D
:10B2E8008E71FFF7AFFE4FF4A271FFF7ABFE1B4B59
:10B2F800C0F8043340F3073153010029C0F3073085
:10B30800DBB21DDB164A541884F8003301234909BF
:10B3180000F01F00834042F8213033680422C3F84C
:10B3280000252C2303FB08530022C3E9062283F8D7
:10B3380029205A61012283F82A203846BDE8F8837B
:10B34800084A00F00F001354E7E70827F5E711272C
:10B35800F3E700BF381D0020C9B0010080000200DB
:10B3680000E100E014ED00E0F8B503680579304C21
:10B378000022C3F800252C2202FB05425268A2B124
:10B388002C4AC3F80823190B43F30733002B0CDBB3
:10B3980001F01F015B0901228A402033264941F848
:10B3A8002320BFF34F8FBFF36F8F0068D0F80C6571
:10B3B800D0F81415D0F80835D0F810254FF0FF371D
:10B3C800BE42C0F8147518BF06F5E076C0F80C75D3
:10B3D800C0F80875C0F810751EBF4FF0A0474FF0B1
:10B3E800020C47F826C04E1C1FBF4FF0A04601F5BF
:10B3F800E071022746F82170511C1FBF4FF0A04191
:10B4080002F5E072022641F822605A1C1FBF03F5BC
:10B41800E0734FF0A042022142F82310FFF706FE26
:10B428002C2303FB0544002384F82A306360F8BD0D
:10B43800381D00208402020000E100E00279044B7C
:10B448002C2101FB02335869003818BF01207047CE
:10B45800381D00202DE9F84F074690F804808946EA
:10B468009346FFF7EBFF0446002839D11E4E2C25E2
:10B4780008FB056A4FF48E71CAF814B0CAF8089030
:10B48800CAF820008AF828003868FFF7DBFD012396
:10B4980083605146FFF7DEFDDAF8043055460BBBF2
:10B4A800DAF814402B6A9C4210D8D0F81C31002BD3
:10B4B800FBD00123C36000202C2303FB0866002374
:10B4C8007361BDE8F88F95F828303BB9D0F81C3186
:10B4D800002BF8D05146FFF7BDFDE3E70F20EBE75F
:10B4E8001120EEE72046ECE7381D002000234350EA
:10B4F80082B043580193019B02B070471FB50123E6
:10B508008DF80030044BCDE90110D3E900126846EC
:10B51800904705B05DF804FB641D00207FB5434AE1
:10B52800D2F82461002E60D010464FF49271FFF7D4
:10B53800DDFF02238DF80030D2F88034C2F8803461
:10B548000393D2F83C350293394BDA680192002212
:10B55800C3E906226846D3E9001290473348D0F879
:10B56800443173B14FF4A271FFF7C0FF304B9A69B1
:10B578003AB10022C3E90622D968D0F83C05FFF7A2
:10B58800BDFF2A48D0F82031ABB14FF49071FFF7D6
:10B59800ADFF0123C360264B5A6962B1D0F84C1540
:10B5A8000291002299688DF8002001915A6168463D
:10B5B800D3E9001290471D48D0F858319BB14FF499
:10B5C800AC71FFF793FF1A4B5A6962B1D0F84C156A
:10B5D8000291002299688DF8002001915A6168460D
:10B5E800D3E90012904704B070BDD2F81031002B97
:10B5F800B4D04FF488711046FFF778FF0C4BD2F89F
:10B608003C0599698842A9D1DC69D96864B1D2F846
:10B61800005225F02005C2F800521A699C61DA60D0
:10B62800DE61FFF76BFF99E79C61FAE700200040B5
:10B63800641D00202DE9F843584D90F80480242318
:10B6480003FB0853064693F820300C469146002B1E
:10B6580040F09F8052490068FFF7C6FC0746002863
:10B6680040F0998021683368481C0BD04FF0A04007
:10B6780001228A40C0F8082501F5E0724FF0030C5A
:10B6880040F822C06068421C1FBF00F5E0724FF00E
:10B69800A04C4FF0000E4CF822E0A269C3F8242514
:10B6A80094F814C0627DBCF1010F4CEA0202C3F8A1
:10B6B8006C25C3F80C15C3F814051DD1A1684A1CE4
:10B6C8001FBF01F5E0724FF0A0404FF0000C40F8AA
:10B6D80022C0E268501C0BD04FF0A04C01209040D3
:10B6E800CCF8080502F5E0704FF0030E4CF820E0A6
:10B6F800C3F80825C3F81015242303FB08F3EA1838
:10B70800C2F804902269EA50B9F1000F2BD03068D2
:10B71800227F4FF48871FFF7E9FE4FF49071FFF72D
:10B72800E5FE4FF49271FFF7E1FE4FF4A271FFF7C7
:10B73800DDFE4FF4AC71FFF7D9FE1A4BC0F80433A5
:10B7480040F3073153010029C0F30730DBB21BDB9C
:10B75800154A541884F800330123490900F01F00E2
:10B76800834042F8213033680822C3F80025242397
:10B7780003FB08550023C5E906336B61012385F8EF
:10B7880020303846BDE8F883084A00F00F0013540B
:10B79800E9E70827F5E71127F3E700BF641D002054
:10B7A80025B501001003420000E100E014ED00E0BF
:10B7B800F8B5444C0579242303FB054302465B682E
:10B7C8000068ABB1404BC0F8083340F30733002B97
:10B7D8004FEA10360CDB06F01F065B090121B14069
:10B7E80020333A4E46F82310BFF34F8FBFF36F8FC5
:10B7F800D0F8003223F02003C0F80032242303FBE2
:10B8080005439B692BB14FF4A271FFF76FFE01232B
:10B8180043604FF4AC71FFF769FE0123C360242332
:10B8280003FB0543D0F858110029FBD0996919B1D9
:10B83800D0F844110029F5D00023C0F8003513686A
:10B84800D3F80C75D3F81465D3F80825D3F8101578
:10B858004FF0FF3C6745C3F80CC518BF07F5E07704
:10B86800C3F814C5C3F808C5C3F810C51EBF4FF008
:10B87800A0434FF0020C43F827C0771C1FBF4FF0BE
:10B88800A04306F5E076022743F826704E1C1FBF3A
:10B8980001F5E0714FF0A043022643F82160531CE4
:10B8A8001FBF4FF0A04302F5E072022143F82210B7
:10B8B800FFF7BCFB242303FB0544002384F8203056
:10B8C8006360F8BD641D00201003420000E100E041
:10B8D8000279044B242101FB02335869003818BF50
:10B8E80001207047641D002001F06043B3F1005F40
:10B8F8002DE9F0470746884692463AD190F80490D9
:10B90800FFF7E6FF0446002835D11D4E3A68242586
:10B9180005FB09654FF490711046C5F814A0C5F8E9
:10B928000880FFF7E3FD4FF4AC71FFF7DFFD6B69AB
:10B93800A968C2F84415C2F84835012393606B68BA
:10B94800DBB9D2F82031D2F858011BB90028F8D059
:10B958000F2007E00028FBD10123D360D2F858312B
:10B96800002BFBD0242303FB096600237361BDE889
:10B97800F0871020FBE71120F9E72046F7E700BF22
:10B98800641D0020C30710B507D4F023054A4008FA
:10B99800145C23401943115410BD0901C9B20F2387
:10B9A800F4E700BF981D002030B5094B1C78094BFF
:10B9B8000246196800239C4201DC002030BD11F8C2
:10B9C8003350954201EBC300F8D00133F3E700BFD1
:10B9D800881D0020A81D002070B504460D46FFF7FD
:10B9E800E3FF30B1436823B129462046BDE87040E3
:10B9F800184770BD034B044819680022490800F035
:10BA080081BA00BF8C1D0020001B002010B5C0B2F9
:10BA1800FFF7CAFF04460078FFF730FA63785A1E2A
:10BA280053425341834208D1044AD2E900321343B6
:10BA380003D1BDE81040FFF7DDBF10BD901D002009
:10BA480037B54308374AD35CC2074CBF1B0903F01C
:10BA58000F0304460D46042B25D8DFE803F0032620
:10BA6800303D4100F9B10121FFF78CFF00230DF1B2
:10BA780007008DF8073000F07FFB0122A4F12003B6
:10BA8800C4F12000284922FA00F002FA03F3034324
:10BA9800A240D1E9004014431843C1E900409DF891
:10BAA800070000F08DFB03B030BD003918BF01213D
:10BAB8004900204603B0BDE83040FFF763BF49B1F5
:10BAC8000321FFF75FFF0121204603B0BDE83040A6
:10BAD800FFF782BF0121ECE70029E4D10421E8E760
:10BAE80009B10321E5E7FFF74DFF29462046FFF797
:10BAF80073FF0DF107008DF8075000F03DFB0122A0
:10BB0800A4F12003C4F12000074922FA00F002FA48
:10BB180003F30343A240D1E9004024EA020420EAE7
:10BB28000300BAE7981D0020901D00202DE9F04180
:10BB3800124E134F00243378A34208DC114AD2E98D
:10BB48000032134318D0BDE8F041FFF753BF3D68FA
:10BB580005EBC40815F83400FFF790F998F80130A0
:10BB68005A1E53425341181A4142414115F83400B4
:10BB7800FFF766FF0134DEE7BDE8F081881D00208D
:10BB8800A81D0020901D0020092AF7B505460C467F
:10BB980016463ED9FFF78AF8E8B11F4B1F481D60CB
:10BBA8001F4B204F1C70204B002110221E6002F0FA
:10BBB80011F91E4B00200021C3E90001013CE4B249
:10BBC8000326FF2C0DD11A4A1A48002103B0BDE8FC
:10BBD800F04000F085B9FFF731F80028DDD003B058
:10BBE800F0BD9DF8063015F834008DF8046005EBBB
:10BBF800C40223F007038DF8063001A993788DF865
:10BC080005303A46FFF75CF8013CE4B20028D8D08A
:10BC1800E5E70720E3E700BFA81D0020981D0020E6
:10BC2800881D002015BA01008C1D0020901D0020E1
:10BC380035BB010088E0010070B5084D084E0024AE
:10BC48002B789C4201D3002070BD3368012113F882
:10BC58003400FFF7ADF80134F2E700BF881D00207B
:10BC6800A81D002073B5114D114E00242B789C425D
:10BC780015D300230DF107008DF8073000F07CFA8A
:10BC88000C4B00210020C3E900019DF8070000F0DB
:10BC980097FA094802B0BDE8704000F061B933680E
:10BCA80013F83400FFF7C8F80134DFE7881D0020D7
:10BCB800A81D0020901D0020001B00201FB500219A
:10BCC800039001AA44F20100CDE9011100F004F843
:10BCD80005B05DF804FB000038B572B601F0C8FB8A
:10BCE80001F046FA0028FBD1104B114C114D1249B6
:10BCF800E41AE408240444F0010001F07FFBD5F8BD
:10BD0800F030DB0700D500BE0C4944F0020001F01A
:10BD180075FBBFF34F8FEA68094B02F4E0621343E7
:10BD2800EB60BFF34F8F00BFFDE700BFB4DE01003B
:10BD3800DCDE010000ED00E08CE0010098E001008D
:10BD48000400FA0510B5D0E90242D1E90203A04285
:10BD580093412CBF0120002010BD000008B50A48FF
:10BD680000F05FFB094AD2E90031C018084BD3E95B
:10BD7800002341F10001904271EB030303D210F15B
:10BD8800807041F1000108BD201B0020B01D00207B
:10BD9800281E002037B505460C460A4801A900F0C0
:10BDA80074FB60B10570446001A9064800F097FB78
:10BDB80018B1054800F03AFB002003B030BD04205C
:10BDC800FBE700BF141E0020201B0020294B73B581
:10BDD8001E7804461EB90026304602B070BD002801
:10BDE800F9D0FFF7BBFFD4E902239042994139D338
:10BDF80000230DF107008DF8073000F0BDF9236925
:10BE08002BB94FF0FF324FF0FF33C4E902239DF8FE
:10BE1800070000F0D5F9D4E90530984700250DF161
:10BE280007008DF8075000F0A7F92369C3B1D4E9DA
:10BE38000212B2F1FF3F08BFB1F1FF3F05D05B1816
:10BE480042F10002C4E9023235469DF8070000F0CD
:10BE5800B7F9002DBFD00848214600F00EFFBBE718
:10BE68001D46F2E7B3F1FF3F08BFB2F1FF3FB2D082
:10BE7800F1E700BFB81D0020B4E0010013B5114B75
:10BE880011491868019008231048582200F0EAFA6E
:10BE9800044698B90E4A0F4801A900F0B3F90446C0
:10BEA80060B90C48012100F09FFA01230A4A0948A9
:10BEB800194600F001FA094B01221A70204602B017
:10BEC80010BD00BFB0E00100BC1D0020141E002002
:10BED800C5BF0100201B0020FFFF7F00B81D002008
:10BEE80030B56AB103684FF0FF344FF0FF355A613F
:10BEF8004A1E5142C3E9024551411961002030BD33
:10BF08000720FCE7F7B5044600250DF107001746A2
:10BF18000E468DF8075000F02FF9D4E90223B3F14B
:10BF2800FF3F08BFB2F1FF3F07D1FFF717FF3018F7
:10BF380041F10001C4E9020101259DF8070000F064
:10BF48003FF955B12369A76103B126612146002055
:10BF580003B0BDE8F040FFF71DBF284603B0F0BDB1
:10BF680037B5054600240DF107008DF8074000F0AD
:10BF780003F9D5E90223B3F1FF3F08BFB2F1FF3F50
:10BF880006D04FF0FF324FF0FF33C5E902230124FA
:10BF98009DF8070000F014F934B12946012003B0D8
:10BFA800BDE83040FFF7F6BE204603B030BD0000C4
:10BFB800014800F036BA00BF201B00202DE9F743E6
:10BFC800064600F019FA40B1634AD2E9003113F18C
:10BFD800807341F10001C2E900310021304600F0D0
:10BFE8001AFA38B15D4C236823B12068FFF7EEFEDA
:10BFF800002323600121304600F00DFA20B1FFF73D
:10C00800ADFE574BC3E900015648544F01A900F053
:10C0180076FA4FF0FF344FF0FF35A0B9DFF84881CA
:10C028004E4D404600F03FFE002800F08680D0E9E3
:10C038000223B3F1FF3F08BFB2F1FF3F33D14046BF
:10C0480000F02BFEEDE70378012B21D0022B09D15C
:10C05800DFF81481404600F020FE002877D0C0E9C0
:10C068000245F7E75BB94168D1E90223B3F1FF3F25
:10C0780008BFB2F1FF3F02D03B4800F0FEFD01A926
:10C08800384800F067FA01A9364800F038FAC4E7E2
:10C0980041683B68994202D100233B60EFE7324890
:10C0A80000F004FEEBE7296891B12968D1E90201A3
:10C0B80082428B412FD22B68D3E90223B3F1FF3F91
:10C0C80008BFB2F1FF3F03D02968404600F0D5FD14
:10C0D800404600F0E2FDD0E902490746FFF73EFE80
:10C0E800201A69EB0109012879F1000918DBB0F57C
:10C0F800350F13D3FFF75CFF1C4A02441C484FF46A
:10C108009603002100F0F8F890B92B6813B930466F
:10C1180000F0CAF82F6003B0BDE8F0832246EDE7CF
:10C128001348002100F06DF93846FFF74FFE01E093
:10C138000D28F9D000232B6073E7084B1B68002BF0
:10C14800E9D1304603B0BDE8F04300F0B1B8094B7F
:10C1580001221A7093E700BFB01D0020301E002096
:10C16800281E0020141E0020B4E00100FFFFB400C8
:10C17800201B0020B81D002070B5EFF3108672B6A2
:10C188000C4A9468012384B993600B4B0B4DD3F888
:10C19800801029401160C3F88050D3F88410516092
:10C1A8004FF0FF32C3F884202346037006B962B605
:10C1B80070BD00BF341E002000E100E0FC06FFBD9A
:10C1C800084B9A6810B55AB150B9EFF3108172B69E
:10C1D800054A1C6814605C685460986001B962B6CE
:10C1E80010BD00BF341E002000E100E003464058A7
:10C1F80082B028B100225A505B580193019B01205C
:10C2080002B07047F8B5204B4479204E43F82420FB
:10C218001F4B204A06EBC4049B1ADB08054618048A
:10C22800237933B140F002001B4901F0E7F80820F8
:10C23800F8BD2B680A88C3F8082595F904408B785F
:10C248002A795B01002CDBB218DB14490F1987F837
:10C2580000330123640902F01F02934041F824309F
:10C268006B7906EBC3020121117140F003000C4900
:10C2780046F8335001F0C2F80020D9E7094902F026
:10C288000F028B54ECE700BF481E0020401E002020
:10C29800ECDE0100B4DE0100C0E0010000E100E0D6
:10C2A800E2E0010014ED00E0036801221A60704723
:10C2B800036801225A60704773B501F15005AD005B
:10C2C8000068ADB24FF480348C400026C0F80843B3
:10C2D800C0F84843465101F5A8714559019522F027
:10C2E8007F42019D40F82120C0F844430BB1C0F8BB
:10C2F800044302B070BD00002DE9F74F0D4622F04F
:10C308007F4402684FF4803705F150068F4080461D
:10C31800B60002EB8500C2F84873B6B2C2F80873DB
:10C32800D2F8041599464FF0000BD0F84035C0F804
:10C33800401542F806B05B1A9259009223F07F43E9
:10C34800012B009A4FEA850A0CD1264B4FF48060E6
:10C3580043F001039847D8F8003043F806B09B59DA
:10C368000193019BD8F80020D2F80465C2F8447301
:10C37800A31B23F07F43012B1CD11A4B05F5A8758D
:10C38800013443F0010342F825404FF48060984798
:10C39800D8F80030D3F804359E4209D1D8F80030D7
:10C3A8000020C3F84473C3F8047303B0BDE8F08FEA
:10C3B8000D20FAE79244C9F1FF13CAF84045D2F8B4
:10C3C8000405211A013921F07F4103F57F438B428F
:10C3D800EED30029E2D10134CAF84045D2F8043539
:10C3E8009842DAE700E1010003680222C3F8442317
:10C3F80009B1C3F80423704700684FF48271FFF74E
:10C40800F5BE4FF4803303FA01F10368C3F848130B
:10C41800C3F80813704750318900006889B2FFF7E4
:10C42800E5BE0368D3F804057047000090F90430AE
:10C43800002B09DB5A09012103F01F03994002F17F
:10C448004003024A42F82310704700BF00E100E0B1
:10C45800024B034A1B681068184700BF481E00209B
:10C46800401E002010B561B1B2FBF3F403FB1424A5
:10C47800A4B244B9C0E9001484608281C381204613
:10C4880010BD0E20FCE70920FAE737B550E8013F58
:10C498009DB2C48925448489A54228BF2D1B0489DF
:10C4A800A54202BFBFF32F8F002207E0C5EA0305AC
:10C4B80040E80154002CE9D14FF001028DF8032027
:10C4C8000193019A0A609DF8031001F0FF0321B15E
:10C4D800006810FA82F003B030BD1846FBE70A88FE
:10C4E8004B889A4209D150E8012FC2EA024240E83B
:10C4F8000123002BF7D1012070470020704737B582
:10C5080050E8023F1FFAA3F5C488A54202BFBFF353
:10C518002F8F00220DE0C48925448489A54228BFB5
:10C528002D1BC3EA054540E80254002CE8D14FF022
:10C5380001028DF803200193019A0A609DF8031007
:10C5480001F0FF0321B1006800EB124003B030BDD9
:10C558001846FBE70A884B889A4209D150E8022F0F
:10C56800C2EA224240E80223002BF7D1012070479B
:10C578000020704701F01F024B090121914000EB98
:10C58800830000F01EB801F01F0301229A404B09F6
:10C5980000EB8300D14300F02CB84B0901F01F01D8
:10C5A80050F82300C84000F00100704710B503465A
:10C5B80053E8000F0A4643E8002494F0000FF7D12F
:10C5C80010BD10B5034653E8002F42EA010043E8C6
:10C5D800000494F0000FF6D110BD10B5034653E8DF
:10C5E800000F00EA010243E8002494F0000FF6D19E
:10C5F80010BD10B5034653E8002F02EA010043E8D6
:10C60800000494F0000FF6D110BD10B5034653E8AE
:10C61800002F02EB010043E8000494F0000FF6D16C
:10C6280010BD10B5034653E8002FA2EB010043E804
:10C63800000494F0000FF6D110BD0121FFF7C1BF2F
:10C648000021FFF7CABF10B590B1D0E901230168F6
:10C658009B1ADBB20A60013BDBB2FF2B026802D1F6
:10C668000020107110BD11684C1C14600B70F2E7AB
:10C678000E20F7E737B5054600240DF107008DF8C1
:10C688000740FFF779FD2A68696813688B420ED95D
:10C69800591E116013F8013C288AEC6800FB03441A
:10C6A800AB685B1A1179DBB2994238BF13719DF8F8
:10C6B8000700FFF785FD204603B030BD37B50546B6
:10C6C80000230DF107000C468DF80730FFF754FDE5
:10C6D8002A681368591C1160EA68A41A2A8AB4FBEC
:10C6E800F2F41C709DF80700FFF76AFD03B030BD37
:10C6F800826810B504462AB1436901680069984701
:10C708000023A36010BD0EB403B5039921B104AB97
:10C7180001AA019300F076F802B05DF804EB03B0CB
:10C7280070470A2938B504460D4602D10D21FFF796
:10C73800F8FFA3682268591CA160D554D4E90132D6
:10C748009A4204D32046BDE83840FFF7D1BF38BD30
:10C758002DE9F84F9846DDE90A43154682460F460B
:10C768000A464FF00109AA420FD2C14538BFC14657
:10C7780013F0010B01D16CB900240126B8F1010FA7
:10C788001BD908F1FF386E43F8E709F10109B2FB3C
:10C79800F5F2E8E79B070ED5B8F1000F0CBF30267D
:10C7A8002026A145E9D2013C31465046FFF7B9FFA2
:10C7B800002CF6D1E0E72026F3E7B7FBF6F39D421D
:10C7C800E1D9DFF83C80B7FBF6F3504618F80310C0
:10C7D80006FB1377FFF7A5FF3346AB42B6FBF5F62A
:10C7E800F1D2BBF1000F02D00CB1A14501D3BDE8D5
:10C7F800F88F20215046013CFFF793FFF4E700BF74
:10C8080006E101002DE9F74F05461746884600293D
:10C8180000F03E8118F8011B49B92B7B002B00F072
:10C828003781284603B0BDE8F04FFFF761BF2529DF
:10C8380040F0B780002698F800302D2B424608F1CA
:10C84800010823D0302B24D02B2B25D000242A2BD1
:10C8580002F1010123D13B681A1D1B683A601C4490
:10C868000A4613782E2B26D101324FF0000A1046C3
:10C8780010F8011BA1F1300CBCF1090F1DD80A23D7
:10C8880003FB0A11A1F1300A0246F0E746F001065F
:10C89800D1E746F00206CEE746F00406CBE711F8EA
:10C8A800013CA3F130000928DBD80A2202FB04343A
:10C8B800303C0A46CBE74FF0000A12F8011B01F0A2
:10C8C800FB0068289046F8D0782909D86F290CD839
:10C8D800632962D022D8252963D0582900F088809E
:10C8E80098F80030002B95D197E770390829F7D8C8
:10C8F80001A252F821F000BF73CA0100E9C8010083
:10C90800E9C8010009CA0100E9C80100E7C9010036
:10C91800E9C80100E9C80100F9C90100642901D08A
:10C928006929DDD13A68D2F80090111D89EAE972C7
:10C938003960A2EBE9724FF0010B092A35DCD345C7
:10C9480038BFD3462CB1B9F1000F01DB720700D50F
:10C95800013CB30702D5BAF1000F03D0F00701D4A8
:10C968004CBB0024B9F1000F2DDAC9F100092D21C3
:10C978002846FFF7D6FE06F00302022A04D1BAF1D0
:10C98800000F01D11CBB0024CDE9004653460A2202
:10C9980049462846FFF7DCFEA2E73B681A1D1978CE
:10C9A8003A602846FFF7BDFE9AE70A230BF1010B10
:10C9B800B2FBF3F2C1E7A345D4D220212846013CBB
:10C9C800FFF7AFFECCE77107D5D52B21D0E7A345FC
:10C9D800DAD230212846013CFFF7A3FED2E73968B6
:10C9E800CDE900460A1D3A6053460A220968D0E795
:10C9F80039680A1D3A60CDE9004653461022F5E72A
:10CA08003B681A1D3A6016F00106D3F8009024D14D
:10CA1800B9F1000F03D0484601F076F90646B44252
:10CA28001DD809F1FF3919F8011F00293FF458AF43
:10CA38002846FFF776FEF6E728460136FFF771FE2F
:10CA480019F806100029F7D1A642BFF449AF2021F2
:10CA58002846013CFFF765FEF6E70026F0E72021AF
:10CA68002846013CFFF75DFED9E73B681A1D3A608E
:10CA7800302128461C68FFF754FE78212846FFF726
:10CA880050FE00220823CDE900322146102280E71B
:10CA980003B0BDE8F08F00BF2DE9F84FB0F806A04D
:10CAA8004579D2F800B09DF828900AFB05F5043DB9
:10CAB80088460BEB0301A94203F1040488BFA5EBE8
:10CAC800030BB4FBFAF607460AFB1644C2F800B09B
:10CAD8004EB9AAEB04055D4528BF5D46BBF1000FC2
:10CAE80004D1BDE8F88F3F68013EF1E7043408EB54
:10CAF80006003C442A46B9F1000F0DD02146ABEBA5
:10CB0800050B01F031F9DA452E443F6855464FF0E0
:10CB1800000428BF5D46E1E701462046EFE7FFF73E
:10CB280092BDF8B546790146721E05460023934228
:10CB38002D6803D30024A64202D8F8BD0133F6E7D6
:10CB48000F682846FFF7BAFD01343946F3E72DE9A7
:10CB5800F843068ACD1C0746FFF78CFD043E354492
:10CB68000446B5FBF6F5F0B14FF48073EDB283805F
:10CB7800C680013D076081464FF00008A84512D2E3
:10CB88003846FFF777FD064648B16379013363718C
:10CB980008F10108C9F8000007608146EEE7204661
:10CBA800FFF7BFFF34462046BDE8F8830121043073
:10CBB800FFF72BBD10B5012104460430FFF731FD06
:10CBC800C0B220B92046BDE81040FFF7AABF10BD8B
:10CBD8001FB503920022009203AAFFF75DFF05B07C
:10CBE8005DF804FB1FB503920122009203AAFFF728
:10CBF80053FF05B05DF804FB41DF7047064B10B5E5
:10CC080000241C70054B1C60BFF35F8F0449054866
:10CC180000F01FF8204610BD541E0020581E0020AA
:10CC280020E101004C1E002008B500F08FFE18B16D
:10CC3800BDE80840FFF7E0BF20BF40BF20BF08BDE8
:10CC4800836800225A60C3E904229A60DA601A6095
:10CC58007047D1E90032934208BF00230160436066
:10CC68007047436843B10268916852680B44934225
:10CC7800436004BF00234360704770B544680646AC
:10CC88000D46206818B1B3682946984718B9236833
:10CC98002B60256070BD2468F3E74368186808B105
:10CCA80002681A60704743681868704743681868D4
:10CCB80000B97047884203D102681A6001207047A2
:10CCC80003460068F4E7000010B50D49A1F5947219
:10CCD800914201D800200FE08C1AE30F03EBE40324
:10CCE8005B1002EBC30452F83330834205D802D2FA
:10CCF80004F10802ECE7606810BD2146E8E700BFD0
:10CD08002CE6010008B5FFF7DFFF024B002808BF3B
:10CD1800184608BDEFE401007047000007B5044B52
:10CD28000093044A402300F032F803B05DF804FB96
:10CD380041CD01005D1E00202DE9F84388461446C8
:10CD4800B2B10F4B0F4E0325002743F001092246CD
:10CD580008EB0701002000F03BFD0744241A48B9FE
:10CD680033782BB14FF47A40C847013D02D1357072
:10CD7800BDE8F88301233370002CE8D1F8E700BF41
:10CD880030E601005C1E0020704700F055BDF0B58C
:10CD980095B01D46164608460C46FFF707FF1A9B36
:10CDA8000D93CDE9086500252B46082205A92046E4
:10CDB8000A958DF82C500C95FFF714FF079B0293EA
:10CDC800069B03939DF814308DF8115003F003026D
:10CDD800012A1DD1BDF81420059DC3F3C203C2F377
:10CDE80083168DF81030B20008230EA92046FFF7ED
:10CDF800F9FEC5F3952508AB0093324602AB0EA9A0
:10CE0800284600F0A3FB2046FFF7D4FE15B0F0BD7E
:10CE1800022AF8D1BDF81650C3F3C203C5F3891529
:10CE28008DF810300827082D2E4628BF08263B46C7
:10CE380032460EA92046FFF7D5FEAD1B08AB02AA65
:10CE480031460EA8374400F0E5FB002DEBD1DAE7B8
:10CE5800014B01221A707047DE1E00207047000047
:10CE680070B50E4D06460FCD88B06C460FC495E8D8
:10CE78000F00002E84E80F00094A0A484FF0060305
:10CE880008BF002269460093FDF70EFE08B1FEF7C1
:10CE980015FF054B1E7008B070BD00BF44E60100C9
:10CEA80059CE0100281B00209D1E002007B5044B09
:10CEB8000093044A4023FFF76AFF03B05DF804FBC0
:10CEC800D1CE01009E1E002038B50D480D4C0E4DE8
:10CED800002323700378EB5CD2B263B10430FEF711
:10CEE80003FD08B1FEF7EAFE084B1A7812B1237861
:10CEF800002BFBD038BD0C30FEF7ACFAF1E700BFD1
:10CF0800281B0020DE1E0020C81C00209D1E0020BB
:10CF180008B50848084A0378D35C3BB10430FEF7EB
:10CF280047FCBDE808400020FFF79ABF0C30FEF729
:10CF38001BFAF6E7281B0020C81C00200120FFF779
:10CF48008FBF000038B50A4DFFF71FFF04212846A0
:10CF580000F06CFA074B01245C71FFF7EFFF042126
:10CF680005F1100000F062FA034B5C7138BD00BF98
:10CF78002CDF01003C1B0020441B002003780246E4
:10CF880013F0040006D003F00300012803D00228A0
:10CF980009D0012070470B6812880233C2F383124C
:10CFA80013440B6070470B685288023303EB9213EB
:10CFB8000B60EEE72DE9F04F434C87B0884600231D
:10CFC8000546871C0DF1070016468DF80730FFF758
:10CFD800D3F86268C8F80020A36803F580739B1A29
:10CFE80004F21C4804F5836A04F21449BB4218D3BE
:10CFF8000021002E64D005F00F05AD0145F00505B0
:10D0080065F30F0163689DF80700DAB203323B4409
:10D0180044F822106360FFF7D3F8012007B0BDE899
:10D02800F08F01214046FFF7F0FA5046FFF705FB65
:10D038004846FFF702FBA0680290C0B2033004EB39
:10D04800800002A9FFF79AFF20BB029BDAB204EB2B
:10D058008202D16803919A1C0133DBB204EB83038B
:10D068000292D3F80CB001F00303012B20D0022B5D
:10D0780013D083464846FFF7E3FA08B1029BA36042
:10D0880059464046FFF7C1FAA368626803F5807302
:10D098009B1AABE79DF80800D0E7BDF80E30C3F344
:10D0A800891303334FEA1B4B02EB93030293E1E727
:10D0B800BDF80C30C3F383134FEA1B4B1344F5E759
:10D0C800AD0545F006019DE7B01F0020064B074857
:10D0D80010B500221A70FFF722FD044610B9044863
:10D0E800FFF7AEFD204610BDB01F0020A0DE0100F6
:10D0F800A8E6010030B50A4C71B10A4A0A49121B68
:10D10800D20800239A4201D1002030BD31F82350C3
:10D11800854202D00133F5E7034654F83300F4E7BB
:10D12800B4DE01002CDF0100E01A0020094B0139B0
:10D1380003EBC000032909D8DFE801F00A0204065E
:10D148000420704700797047407970470020704785
:10D1580002207047B4DE010070470000034BD3E99A
:10D168000130C31A58425841704700BFB01F002011
:10D178002DE9F04387B0FFF7F1FF0546002840F09E
:10D18800E680744CC4F81804BFF34F8FA368029369
:10D19800DBB2033304EB830002A9FFF7EFFE029B27
:10D1A80018B1D4F81824002A5CD0DAB29F1C0133D5
:10D1B80004EB8202DBB204EB8303D268DB680493DE
:10D1C80002F00303022B0392029756D1BDF80E30EA
:10D1D8006148C3F389184646502E28BF502666F387
:10D1E8008F1306F10801ADF80E30FFF7B0FC0546C5
:10D1F800002800F09780FFF7D9FC002303A9082234
:10D208002846FFF7E5FCFB43DBB20133F9B20331F3
:10D21800B6EB830F4FEA830904EB81012AD908236F
:10D228004A46A6EB09062846FFF7D2FCF6B24B4958
:10D2380009F10803324608F10308284607EB980766
:10D24800FFF7C6FC0297D4F81834D4F81064002B02
:10D2580053D02846FFF7AEFCFFF780FF80F00105AA
:10D26800EDB203E062689A4292D8A260284607B0FD
:10D27800BDE8F08308233246DDE7012B52D1BDF823
:10D288000C303548C3F38311062928BF062161F302
:10D298008913023101F00F018900ADF80C30FFF756
:10D2A80056FC054600283DD0FFF780FC00230822E5
:10D2B80003A92846FFF78CFC0026BDF80C20C2F312
:10D2C8008312B300964203F10803BCD202994A1CA8
:10D2D800C9B20331029204EB810104222846FFF708
:10D2E80077FC0136E9E7F3685B7923B133682946AF
:10D2F8001B6830469847F3681E68002EF3D128460D
:10D30800FFF758FC0DF107008DF80760FEF734FFB2
:10D31800D4F818340BB9029BA3609DF80700FEF7F8
:10D328004FFF99E7D4F8104454B90D4B0D480E49F6
:10D33800C01AC008000440F0020000F05FF88BE754
:10D34800236820469B689847E3681C68ECE700253B
:10D358008CE700BFB01F0020A0DE0100BC1F00202A
:10D36800B4DE0100DCDE010091E601002DE9F3479F
:10D3780004460E46924601A9012218469946FFF72F
:10D3880019FE1C4F10B3019D4FF00008AA1CC84598
:10D3980008EB020125D118480021FFF707F980F3AF
:10D3A8001000000440EA1440E4006B1C04F0380448
:10D3B800DBB2EDB244F0010407EB8303033544EA22
:10D3C800881444EA8624D86047F825403B781BB186
:10D3D800FFF7CEFE0028FBD1FFF7BEFE02B0BDE886
:10D3E800F087C9B207EB81015AF82830CB6008F101
:10D3F8000108CCE7B01F0020CC23002000231A46E8
:10D40800FFF7B4BF07B50123019201AAFFF7AEFFEA
:10D4180003B05DF804FB07B5CDE9002302236A4693
:10D42800FFF7A4FF03B05DF804FB000030B50F4C14
:10D43800D4F8102403460020114631B9D968087180
:10D448004AB9C4F810340A6030BDC9680D798542FC
:10D4580006D00968F1E7D26814680C601360F3E736
:10D4680001300A28E8D14FF0FF30EDE7B01F002067
:10D4780038B5084B0125D3F810441D7004B938BDE0
:10D48800E3685D71236820465B689847E3681C6819
:10D49800F4E700BFB01F002010B5037A052B0C4637
:10D4A8000FD0437A23B1084A08492046FFF72BF9E1
:10D4B80007492046FFF727F92046BDE81040FFF747
:10D4C80017B9002AF8D0F3E7B4E60100B9E601007D
:10D4D800D9E60100C38873B504460D4633B1144A32
:10D4E80000921449144A2846FFF70DF9217A0529B4
:10D4F8001CD0637A4BB1A088FFF718FE0F4B104978
:10D5080053F820202846FFF7FEF8227A0D4BA08812
:10D5180053F822600021FFF7EDFD0B490346324620
:10D52800284602B0BDE87040FFF7EDB802B070BD04
:10D53800B4E60100C4E60100BCE6010040E70100D2
:10D54800B9E6010064E70100DCE601002DE9F043DB
:10D5580085B01F460C9D002395F80C902B7306464A
:10D568000C46904629463846FFF7B4FFB8F1060F37
:10D5780009D8DFE808F00412181F283340003146A4
:10D588002846FFF7C0F8002229463846FFF784FFEF
:10D5980085F80C9005B0BDE8F0832268314628462E
:10D5A800FFF7B1F8EFE7D4E9002331462846FFF743
:10D5B800AAF8E8E7A36800933146D4E9002328468F
:10D5C800FFF7A1F8DFE7E3680193A368009331460A
:10D5D800D4E900232846FFF796F8D4E72369029395
:10D5E800E3680193A36800933146D4E900232846F1
:10D5F800FFF789F8C7E76369039323690293E36830
:10D608000193A36800933146D4E900232846FFF725
:10D618007AF8B8E708292DE9F74F80460E461746ED
:10D628001C463DD800251B7B2573214610460193D7
:10D63800FFF750FFDFF888A0DFF888B0AE4232D994
:10D6480018F8052059462046FFF75DF80135082DE2
:10D65800F4D11D49DFF874A0DFF874B02046FFF755
:10D6680052F84FF000094E4524D918F809507E2D7C
:10D678001ED8284600F0F5FA002814BF2A462E22A4
:10D6880059462046FFF73FF809F10109B9F1080F9B
:10D69800E9D1012221463846FFF7FEFE019B23739C
:10D6A80003B0BDE8F08F51462046FFF72CF8CDE7D0
:10D6B8002E22E5E751462046FFF725F8E4E700BFAC
:10D6C800ECE60100E6E60100F0E60100EEE6010006
:10D6D800F2E601000369C26893429CBF81685B1847
:10D6E800013B981A70472DE9F041D0E902840546BC
:10D6F800A8EB04064068964220440F46144404D917
:10D7080000F032FBEC60BDE8F0813246A4EB08047F
:10D7180000F02AFB68682246B919F1E72DE9F843B9
:10D72800C5680646894617464FF000083369B4684D
:10D7380070689D4228BF1B19641BBC4203F1FF336C
:10D7480028BF3C465B1B9C4228BF1C4649462844D0
:10D75800224600F009FBB3682544AB4208BF002508
:10D768003F1BA044A144F560E0D14046BDE8F883E2
:10D7780010B5114C114AA2610223C4E90433104BBD
:10D78800E361A2644FF400730E4A0F492362E26416
:10D7980000231022E01DA3626362E362A365636550
:10D7A800E365226500F098FA0849204600F094FAEB
:10D7B8002023A37110BD00BF6824002078E7010072
:10D7C800F0240020E024002081E7010085E7010023
:10D7D800F8B51824174B00FB04451D4404FB00331F
:10D7E8000F46DC6A012C16460FD0022C1AD0F4B969
:10D7F8002846FFF76FFF864205D832463946284645
:10D80800FFF771FF34462046F8BD2846FFF762FF50
:10D818008642344628BF0446224639462846FFF742
:10D8280062FFF0E72846BDE8F840FFF777BF00241D
:10D83800E9E700BF68240020FFF79ABF10DF7047B0
:10D8480013B5044609496846FFF703FA019808B971
:10D8580002B010BDD0E900312046984718B168469B
:10D86800FFF7FFF9F2E71120F2E700BF98E70100A0
:10D8780013B5044607496846FFF7EBF9019B0BB956
:10D8880002B010BD2046D3E9002190476846FFF753
:10D89800E8F9F3E7B0E701000B4991F81623EC2308
:10D8A80052091341DB0706D5084B9A683AB94FF479
:10D8B80080030B60704742F20200FEF7FFB91A6856
:10D8C80042F480021A60704700E100E0341E002034
:10D8D800F7B5194F3C7864BB184E012520463570C2
:10D8E800FFF7AEFF112821D02046FFF7C1FF144BE8
:10D8F8008DF80340186801900DF10300FEF73CFC19
:10D90800104901A8FFF79AFF0446B0FA80F04009D1
:10D9180038709DF80300FEF753FC3CB90A4B34708D
:10D928001C70FFF7B9FF2846FFF7A2FF204603B097
:10D93800F0BD0824FAE700BFF1260020F0260020F9
:10D9480094E70100E1BC0100F2260020014B1878A1
:10D95800704700BFF126002007B508496846FFF761
:10D9680078F9019B13B903B05DF804FBD3E90020F3
:10D9780090476846FFF775F9F3E700BFA4E7010091
:10D98800FFF7EABF60DF704769DF704761DF704704
:10D9980030B5134B1B7891B0FBB1124D34240DF107
:10D9A800020103A8ADF80240FFF7F0FF70B929465D
:10D9B80001A8FFF74EF9029B002BF0D003A8D3E98A
:10D9C8000021904701A8FFF74CF9F4E7052804D097
:10D9D80011B0BDE83040FEF771B911B030BD00BFDD
:10D9E800F3260020F4E9010030B50C4685B0002983
:10D9F80000F089800023CDE90133444A03930123D1
:10DA08000A608DF804008DF8063001A9062320204D
:10DA1800ADF80830FFF7B8FF60B1FFF773F93C497C
:10DA28003C4B5B1ADB081B0402463B4943F00100F0
:10DA3800FFF7E8FC0023CDE90133039322680123B3
:10DA480001A940208DF80530FFF79EFF60B1FFF770
:10DA580059F92F492F4B5B1ADB081B0402462F4943
:10DA680043F00100FFF7CEFC0023CDE90133039317
:10DA780022680A2301A901208DF80430FFF784FFEA
:10DA880060B1FFF73FF92249224B5B1ADB081B0400
:10DA98000246234943F00100FFF7B4FC0023CDE917
:10DAA800023322684FF4B06301A9A1200193FFF764
:10DAB8006BFF60B1FFF726F91549164B5B1ADB08B7
:10DAC8001B040246174943F00100FFF79BFC0025A1
:10DAD8002268039501A9A020CDE90155FFF754FF5D
:10DAE800034668B1FFF70EF909490A4B5B1ADB08D0
:10DAF8001B0402460C4943F00100FFF783FC2B4648
:10DB0800184605B030BD0E23FAE700BFE01A002022
:10DB1800B4DE01000CDF0100BCE7010002E80100EF
:10DB28004EE801009AE80100EBE80100F8B5064666
:10DB38000768FFF727FF3368BB4205461DD9194B15
:10DB4800194C1A49E41AE408240444F00204204653
:10DB5800FFF754FC336816493A462046FFF75BFC4A
:10DB68004FF080533268D3F80C3112499B0203F10D
:10DB780000539A1A2046FFF745FC25B90E4B01229F
:10DB88001A702846F8BD2846FFF7BCF80549064B29
:10DB98005B1ADB081B040246084943F00100FFF743
:10DBA80031FCEEE7B4DE01000CDF01003EE90100C4
:10DBB8006DE901009EE90100F3260020C8E9010093
:10DBC8004BDF70471FB50E4C01A8FFF7F9FF70B97E
:10DBD800214602A8FFF73DF8039B002BF4D00198DB
:10DBE800D3E90021904702A8FFF73BF8F4E705289E
:10DBF80004D004B0BDE81040FEF760B804B010BD12
:10DC08000CEA0100002A04BF002070478446097806
:10DC180048B2002844BF6FF001007047BCF1000F04
:10DC280018BFCCF800100021C3E90011002818BF64
:10DC3800012070477F298EBF6FF00100017001201D
:10DC4800704742F2F462C2F200021368002B02BF6E
:10DC580041F64C33C2F2000313605A6892681268A6
:10DC680010470921FFF7EDBF7F2884BF00207047C8
:10DC78004EF6AC32C0F20102105C4EF62C42C0F2F5
:10DC88000102515C08407047A0F161011A2938BFB0
:10DC980020387047A0F141011A2938BF2030704759
:10DCA8007F2884BF002070474EF6AC32C0F20102D4
:10DCB800105C4EF62C42C0F20102515C08407047DD
:10DCC800A0F161011A2938BF20387047A0F141013D
:10DCD8001A2938BF203070470246F0B44FF0013798
:10DCE800FB0151F8044BE51BA5431D4002D142F846
:10DCF800044BF6E70439F0BC11F8013B02F8013B8C
:10DD0800002BF9D1704700BF411C82070CD010F8D6
:10DD1800012B3AB3820707D010F8012B12B3820700
:10DD280002D010F8012BEAB14FF0013C50F8042B57
:10DD3800CCFA52F37BB950F8042BCCFA52F353B90E
:10DD480050F8042BCCFA52F32BB950F8042BCCFA28
:10DD580052F3002BEAD004381BBAB3FA83F300EB72
:10DD6800D3000130401A704772B3844690EA010329
:10DD78009B0721D1830709D011F8013B00F8013B2B
:10DD8800013A20D08307F7D100E08446202A0AD33D
:10DD98002DE9F007B1E8F807A0E8F807203A202AAB
:10DDA800F8D2BDE8F007042A06D351F8043B40F83E
:10DDB800043B043A042AF8D22AB111F8013B00F8CE
:10DDC800013B013AF9D16046704700BF00220B00C1
:10DDD80011001A0084465AB3830704D000F8011BC7
:10DDE800013AF9D124E0C9B241EA012141EA0141ED
:10DDF800202A11D3203A2DE9F0030B460C460D4694
:10DE08000E460F4688468946A0E8FA03203AFBD218
:10DE1800BDE8F00320320BD0042A05D340F8041BD8
:10DE2800043A05D0042AF9D200F8011B013AFBD1C3
:10DE380060467047072904D90023024AC0E9003127
:08DE480010607047F82600206D
:08DE500049A9010000000000D7
:10DE5800E1A201000000000071A50100A01B002044
:10DE680055A101000000000017A70100C81B0020F1
:10DE7800C9A70100B01B00202D940100000000007C
:08DE8800E5A901000000000003
:10DE900099D9010000000000CDDB01000000000066
:10DEA000E01E0020A81F0020B01F0020E81E002058
:04DEB0001800000056
:10DEB40060E001000000000066E0010000000000D6
:10DEC4006DE001000000000071E0010000000000AE
:10DED40076E0010000000000A2E601000000030358
:10DEE4007CE0010000000000A5E00100000000004B
:10DEF4005AE00100000000003DE0010000000303BF
:10DF04008CE7010000000303E5E9010000000303BE
:10DF140000EA01000000030316E101000000000014
:08DF24002CE1010000000000E7
:10DF2C0038E601000000000081E601003C1B0020E7
:10DF3C0064E601000000000070E60100441B0020B4
:10DF4C00436F6E6E656374656400446973636F6ED2
:10DF5C006E65637465640053656E642062757474D9
:10DF6C006F6E207374617465206368616E67652ED3
:10DF7C00005265636569766564204C4544204F4EBC
:10DF8C0021005265636569766564204C4544204FD9
:10DF9C00464621004E6F726469635F426C696E6B1A
:10DFAC007900426C696E6B79206578616D706C6577
:10DFBC0020737461727465642E000E0F10000001E2
:10DFCC00010100000001010000000001010000003F
:10DFDC000073645F626C655F67617474635F65781E
:10DFEC006368616E67655F6D74755F726571756589
:10DFFC00737428292072657475726E65642025739C
:10E00C002E0073645F626C655F67617474735F6527
:10E01C00786368616E67655F6D74755F7265706C4F
:10E02C007928292072657475726E65642025732EAB
:10E03C00006E72665F626C655F676174740023D1F9
:10E04C00BCEA5F782315DEEF121200000000636C4F
:10E05C006F636B00434C4F434B004750494F544543
:10E06C0000505253005541525400554152544500F2
:10E07C006170705F627574746F6E0000001B00201D
:10E08C00466174616C206572726F7200537973749F
:10E09C00656D207265736574006170705F74696D75
:10E0AC00657200000100060000000000AC1D00209D
:10E0BC004DBD010052544320696E7374616E6365EB
:10E0CC0020616C726561647920696E697469616C38
:10E0DC00697A65642E005254433A20696E697469FA
:10E0EC00616C697A65642E0000000000000000007D
:10E0FC00000000000338FDD870473031323334351E
:10E10C00363738394142434445467077725F6D6704
:10E11C006D74000058DE010058DE010004000000A0
:10E12C00736F72746C697374004E52465F5355432F
:10E13C0043455353004E52465F4552524F525F5324
:10E14C0056435F48414E444C45525F4D49535349E9
:10E15C004E47004E52465F4552524F525F534F4608
:10E16C00544445564943455F4E4F545F454E4142DA
:10E17C004C4544004E52465F4552524F525F494EF9
:10E18C005445524E414C004E52465F4552524F52EE
:10E19C005F4E4F5F4D454D004E52465F4552524FBC
:10E1AC00525F4E4F545F464F554E44004E52465FA1
:10E1BC004552524F525F4E4F545F535550504F5231
:10E1CC00544544004E52465F4552524F525F494EA1
:10E1DC0056414C49445F504152414D004E52465FAE
:10E1EC004552524F525F494E56414C49445F53542D
:10E1FC00415445004E52465F4552524F525F494E74
:10E20C0056414C49445F4C454E475448004E52468B
:10E21C005F4552524F525F494E56414C49445F46FE
:10E22C004C414753004E52465F4552524F525F4944
:10E23C004E56414C49445F44415441004E52465F56
:10E24C004552524F525F444154415F53495A450025
:10E25C004E52465F4552524F525F54494D454F55B1
:10E26C0054004E52465F4552524F525F4E554C4CE5
:10E27C00004E52465F4552524F525F464F524249F2
:10E28C004444454E004E52465F4552524F525F49F0
:10E29C004E56414C49445F41444452004E52465FF5
:10E2AC004552524F525F42555359004E52465F45AC
:10E2BC0052524F525F434F4E4E5F434F554E540098
:10E2CC004E52465F4552524F525F5245534F555234
:10E2DC00434553004E52465F4552524F525F4D4F8D
:10E2EC0044554C455F4E4F545F494E495449414C3F
:10E2FC00495A4544004E52465F4552524F525F4D6B
:10E30C00555445585F494E49545F4641494C454424
:10E31C00004E52465F4552524F525F4D5554455830
:10E32C005F4C4F434B5F4641494C4544004E52466F
:10E33C005F4552524F525F4D555445585F554E4CA8
:10E34C004F434B5F4641494C4544004E52465F4556
:10E35C0052524F525F4D555445585F434F4E445F98
:10E36C00494E49545F4641494C4544004E52465F24
:10E37C004552524F525F4D4F44554C455F414C52A4
:10E38C00454144595F494E495449414C495A4544C9
:10E39C00004E52465F4552524F525F53544F5241BA
:10E3AC0047455F46554C4C004E52465F4552524FC6
:10E3BC00525F4150495F4E4F545F494D504C454D53
:10E3CC00454E544544004E52465F4552524F525FA3
:10E3DC00464541545552455F4E4F545F454E414260
:10E3EC004C4544004E52465F4552524F525F494F86
:10E3FC005F50454E44494E47004E52465F4552527F
:10E40C004F525F4452565F5457495F4552525F4FCB
:10E41C0056455252554E004E52465F4552524F523F
:10E42C005F4452565F5457495F4552525F414E41CB
:10E43C00434B004E52465F4552524F525F44525628
:10E44C005F5457495F4552525F444E41434B004E17
:10E45C0052465F4552524F525F424C455F495053B2
:10E46C00505F52585F504B545F5452554E43415479
:10E47C004544004E52465F4552524F525F424C4506
:10E48C005F495053505F4348414E4E454C5F414CA1
:10E49C0052454144595F455849535453004E5246D6
:10E4AC005F4552524F525F424C455F495053505F4B
:10E4BC004C494E4B5F444953434F4E4E4543544594
:10E4CC0044004E52465F4552524F525F424C455F9C
:10E4DC00495053505F504545525F52454A4543544D
:10E4EC00454400556E6B6E6F776E206572726F725D
:10E4FC0020636F64650000000000000035E101003E
:10E50C000100000041E10100020000005FE1010098
:10E51C000300000080E101000400000093E1010011
:10E52C0005000000A4E1010006000000B8E10100B4
:10E53C0007000000D0E1010008000000E8E1010044
:10E54C000900000000E201000A00000019E20100CD
:10E55C000B00000031E201000C00000048E2010059
:10E56C000D0000005CE201000E0000006EE20100F4
:10E57C000F0000007DE201001000000091E201009C
:10E58C0011000000A8E2010012000000B7E2010037
:10E59C0013000000CCE2010080000000E0E201006A
:10E5AC008100000001E30100820000001DE3010076
:10E5BC008300000039E301008400000057E30100F0
:10E5CC008500000078E30100860000009DE3010057
:10E5DC0090000000B4E3010091000000D2E30100C0
:10E5EC0092000000F0E301000082000005E401004D
:10E5FC000182000023E40100028200003FE40100DC
:10E60C00008400005BE40100018400007FE4010051
:10E61C0002840000A9E4010003840000CEE40100A0
:10E62C00000000000338FDD87047000025CD010024
:10E63C0091CD010021CD0100FFFFFFFFFFFFFFFF88
:10E64C00FFFFFFFFFFFFFFFF0000000000000000C6
:10E65C000000D60106010000B5CE010019CF010063
:10E66C0065CE0100756172745F6C6F675F62616388
:10E67C006B656E64007274745F6C6F675F6261636C
:10E68C006B656E64004261636B656E647320666CCF
:10E69C00757368656400617070000000D023002001
:10E6AC007F000000502400201B5B306D00257300A0
:10E6BC001B5B313B33316D0025734C6F67732064EA
:10E6CC00726F70706564202825642925730D0A000B
:10E6DC003C25733E2025733A2000202530327800EB
:10E6EC00202020007C002563001B5B313B33306D08
:10E6FC00001B5B313B33326D001B5B313B33336DA5
:10E70C00001B5B313B33346D001B5B313B33356D90
:10E71C00001B5B313B33366D001B5B313B33376D7C
:10E72C00007761726E696E6700696E666F00646572
:10E73C0062756700B4E60100F5E60100BCE6010075
:10E74C00FDE6010005E701000DE7010015E70100FA
:10E75C001DE7010025E701000000000092E0010028
:10E76C002DE7010035E701003AE701005465726DB1
:10E77C00696E616C00525454005345474745520032
:10E78C006E72665F736468000010020188DE01001F
:10E79C0088DE01000800000090DE0100A0DE010010
:10E7AC000800000088DE010090DE01000800000077
:10E7BC0073645F626C655F6366675F736574282959
:10E7CC002072657475726E65642025732077686598
:10E7DC006E20617474656D7074696E6720746F203F
:10E7EC0073657420424C455F434F4E4E5F43464722
:10E7FC005F4741502E0073645F626C655F636667B0
:10E80C005F73657428292072657475726E65642057
:10E81C002573207768656E20617474656D707469FA
:10E82C006E6720746F2073657420424C455F4741BE
:10E83C00505F4346475F524F4C455F434F554E54D4
:10E84C002E0073645F626C655F6366675F736574EB
:10E85C0028292072657475726E6564202573207783
:10E86C0068656E20617474656D7074696E67207470
:10E87C006F2073657420424C455F434F4D4D4F4E96
:10E88C005F4346475F56535F555549442E007364AA
:10E89C005F626C655F6366675F73657428292072BD
:10E8AC00657475726E6564202573207768656E20BB
:10E8BC00617474656D7074696E6720746F20736514
:10E8CC007420424C455F47415454535F4346475F65
:10E8DC00415454525F5441425F53495A452E007380
:10E8EC00645F626C655F6366675F7365742829207B
:10E8FC0072657475726E6564202573207768656E19
:10E90C0020617474656D7074696E6720746F207308
:10E91C00657420424C455F47415454535F4346470E
:10E92C005F534552564943455F4348414E47454422
:10E93C002E00496E73756666696369656E74205244
:10E94C00414D20616C6C6F636174656420666F72FD
:10E95C002074686520536F66744465766963652E10
:10E96C00004368616E6765207468652052414D20D4
:10E97C007374617274206C6F636174696F6E20665E
:10E98C00726F6D203078257820746F203078257860
:10E99C002E004D6178696D756D2052414D20736963
:10E9AC007A6520666F72206170706C69636174693E
:10E9BC006F6E20697320307825782E0073645F6247
:10E9CC006C655F656E61626C652829207265747573
:10E9DC00726E65642025732E006E72665F736468B8
:10E9EC005F626C650000000058DE010088DE0100EB
:10E9FC00080000006E72665F7364685F736F63007B
:10EA0C0050DE010058DE01000800000024EA01007D
:10EA1C0054EB010028EA01004300000071DC010006
:10EA2C0091DC01009DDC0100A9DC0100C9DC0100C6
:10EA3C00D5DC01003DDC01000DDC010053756E00DE
:10EA4C004D6F6E0054756500576564005468750011
:10EA5C004672690053617400004A616E004665623B
:10EA6C00004D617200417072004D6179004A756E03
:10EA7C00004A756C0041756700536570004F6374F4
:10EA8C00004E6F760044656300002E000053756ED7
:10EA9C00646179004D6F6E646179005475657364BF
:10EAAC006179005765646E657364617900546875AB
:10EABC0072736461790046726964617900536174A0
