:020000022000DC
:106000000000012019620200016202000362020026
:10601000056202000762020009620200000000003F
:106020000000000000000000000000000B62020001
:106030000D620200000000000F6202001162020007
:1060400001B402001362020099B902001362020057
:10605000136202001362020095B80200136202008C
:106060001362020013620200136202001362020054
:106070001362020013620200136202001362020044
:106080001362020039E70200136202001362020089
:1060900013620200136202006D1603001362020015
:1060A0001362020013620200136202001362020014
:1060B00013620200136202000000000000000000F2
:1060C00013620200136202001362020013620200F4
:1060D000136202001362020013620200000000005B
:1060E00000000000000000000000000000000000B0
:1060F00000000000000000000000000000000000A0
:10610000000000000000000000000000000000008F
:10611000000000000000000000000000000000007F
:10612000000000000000000000000000000000006F
:10613000000000000000000000000000000000005F
:10614000000000000000000000000000000000004F
:10615000000000000000000000000000000000003F
:10616000000000000000000000000000000000002F
:10617000000000000000000000000000000000001F
:10618000000000000000000000000000000000000F
:1061900000000000000000000000000000000000FF
:1061A00000000000000000000000000000000000EF
:1061B00000000000000000000000000000000000DF
:1061C00000000000000000000000000000000000CF
:1061D00000000000000000000000000000000000BF
:1061E00000000000000000000000000000000000AF
:1061F000000000000000000000000000000000009F
:10620000FEE7FEE7FEE7FEE7FEE7FEE7FEE7FEE766
:10621000FEE7FEE700F002B8FFF7FCBF0F484FF0C3
:106220000701884385460E4880470E48016841F4BF
:1062300070010160BFF34F8FBFF36F8F00F01AB88A
:1062400009480A490A4A884207D0521A05D00378F9
:1062500001300B700131013AF9D170470000012083
:106260009983020088ED00E0181F0300F02200204F
:10627000F0220020344935480A1A02D007229143FF
:106280008D46334933480A1A06D00722914381F3D9
:106290000988022282F314882F483049304A00F0DE
:1062A00041F830483049314A00F03CF83048314933
:1062B000314A00F037F831483149324A00F032F8BB
:1062C00031483249324A00F02DF832483249334AD7
:1062D00000F028F832483349334A00F023F83348B5
:1062E0003349002200F029F832483349002200F0F7
:1062F00024F832483249091A0BF07EFD314A9047A2
:106300001F482049884205D00268043003B49047F2
:1063100003BCF7E700208646EC46002000212A4A0D
:106320009047FEE7884207D0521A05D00378013023
:106330000B700131013AF9D17047884202D00270E6
:106340000130FAE7704700000000012000E0002063
:106350000000012000000120343A0300F022002058
:10636000C0230020CC630200CC6302000C1E03009B
:10637000343A0300F0220020F0220020181F03000E
:10638000181F0300181F0300181F0300181F030025
:10639000181F0300181F0300181F0300313A0300E1
:1063A000043B0300C0230020C0230020C0230020A2
:1063B000D0360020D0360020D0360020D036002045
:0C63C000D056002041620200A5710200CE
:1063CC00A8DF704700BF1846AADF704700BF184609
:1063DC0062DF704700BF184600B583B00190009192
:1063EC00009B1B78012B0DD0022B0DD0084A094BBA
:1063FC00D31ADB081B0443F00303074918460AF0C1
:10640C00A1F902E000BF00E000BF03B05DF804FB9F
:10641C00A81E0300801E0300181F030082B0019009
:10642C000091009B9A88019B9A8500BF02B070472F
:10643C0082B001900091019B4FF6FF729A8500BFCC
:10644C0002B0704700B589B001900091009B0633F3
:10645C000793079B1A88019B1B8A9A422BD1079B97
:10646C005B89022B27D1079B0C33184603F0C2FF24
:10647C000346002B0FD0324A324BD31ADB081B04D5
:10648C0043F00303304918460AF05CF9019B0122E2
:10649C0083F830204FE02A4A2A4BD31ADB081B041E
:1064AC0043F00303294918460AF04CF9019B0022DA
:1064BC0083F830203FE0079B1A88019B1B8C9A4283
:1064CC0017D1079B5B89022B13D1079B0C33184602
:1064DC0003F0A6FF0346002B2DD1194A194BD31AF2
:1064EC00DB081B0443F00303194918460AF02AF988
:1064FC0021E0079B1A88019B9B889A421BD1019B28
:10650C005B6B002B17D001238DF80C30079B0C33E1
:10651C000493079B5B89DBB28DF81430079A0DF15D
:10652C001603023212681A60019B5B6B03AA1146B8
:10653C0001989847FFE700BF09B05DF804FB00BF66
:10654C00A81E0300801E0300381F0300401F030019
:10655C004C1F030000B587B001900091019B5B6B51
:10656C00002B08D002238DF80830019B5B6B02AA2C
:10657C0011460198984700BF07B05DF804FB00B5C1
:10658C0087B001900091019B5B6B002B08D003231B
:10659C008DF80830019B5B6B02AA11460198984755
:1065AC0000BF07B05DF804FB00B593B001900091FB
:1065BC000AAB0322002118460BF0E8FB9DF82830AB
:1065CC00012262F303038DF828309DF82830012254
:1065DC0062F307138DF828309DF82930012262F3FD
:1065EC0003038DF829309DF82930012262F307133B
:1065FC008DF829309DF82A30012262F342038DF880
:10660C002A300BAB1C22002118460BF0BFFB9DF867
:10661C002C3043F008038DF82C3000230C9300230E
:10662C000E9300230F930AAB109300231193019B3D
:10663C001B788DF8123041F60623ADF8103003AB01
:10664C000322002118460BF0A1FB9DF80C3001220F
:10665C0062F303038DF80C309DF80C30012262F3C9
:10666C0007138DF80C309DF80D30012262F30303F3
:10667C008DF80D309DF80D30012262F307138DF863
:10668C000D309DF80E30022262F342038DF80E306D
:10669C009DF80E306FF3C3038DF80E309DF80E305D
:1066AC006FF304138DF80E309DF80E3043F0010398
:1066BC008DF80E3005AB1422002118460BF066FB4A
:1066CC0004AB059303AB0693009B9B89ADF81C3080
:1066DC000023ADF81E30009B9B89ADF82030009B49
:1066EC001B690993009B9B89DAB2074B1A70019BBB
:1066FC005888019B043305AA0BA9FFF765FE0346D6
:10670C00184613B05DF804FBC023002000B593B00D
:10671C00019000910AAB0322002118460BF036FBC6
:10672C009DF82830012262F303038DF828309DF880
:10673C002830012262F307138DF828309DF8293098
:10674C00012262F303038DF829309DF829300122D0
:10675C0062F307138DF829309DF82A30012262F379
:10676C0042038DF82A300BAB1C22002118460BF08B
:10677C000DFB9DF82C3043F010038DF82C300023CA
:10678C000C9300230E9300230F930AAB109300235A
:10679C001193019B1B788DF8123041F60323ADF851
:1067AC00103003AB0322002118460BF0EFFA9DF8D2
:1067BC000C30012262F303038DF80C309DF80C3081
:1067CC00012262F307138DF80C309DF80D30012275
:1067DC0062F303038DF80D309DF80D30012262F346
:1067EC0007138DF80D309DF80E30022262F3420330
:1067FC008DF80E309DF80E306FF3C3038DF80E300C
:10680C009DF80E306FF304138DF80E309DF80E309A
:10681C0043F001038DF80E3005AB1422002118460D
:10682C000BF0B4FA04AB059303AB0693009B9B8A65
:10683C00ADF81C300023ADF81E30009B9B8AADF8E0
:10684C002030009B9B690993009B9B8ADAB2074B13
:10685C001A70019B5888019B0C3305AA0BA9FFF7F2
:10686C00B3FD0346184613B05DF804FBC0230020AB
:10687C0010B58CB0019000912E4B03AC0FCB84E87B
:10688C000F00019B002B01D10E234FE0009B002B2E
:10689C0001D10E234AE0019B4FF6FF729A85009BB3
:1068AC001A68019B5A63019B002283F83020019BDC
:1068BC00002283F82F20019B002283F83020019ABC
:1068CC0003AB11461846FFF783FD0B90019B1B7819
:1068DC008DF81E304CF61D33ADF81C30019B9A1C04
:1068EC0007AB19460120FFF76BFD0B900B9B0A932E
:1068FC000A9B002B01D00A9B18E000990198FFF726
:10690C0053FE0B900B9B0993099B002B01D0099B09
:10691C000CE000990198FFF7F9FE0B900B9B089384
:10692C00089B002B01D0089B00E0002318460CB0FC
:10693C0010BD00BF641F030000B583B034220021DA
:10694C0024480BF023FA4FF48072012122480BF0FB
:10695C001DFA4FF48072012120480BF017FA4FF406
:10696C00807201211E480BF011FA1B4B002283F898
:10697C00FF201A4B002283F8FF20194B002283F8CA
:10698C00FF201549174803F061FD1449164803F020
:10699C005DFD1349154803F059FD0E4B144A1A605E
:1069AC000C4B00229A600B4B00225A60094911488B
:1069BC00FFF75EFF0190019B0093009B002B05D01D
:1069CC000D4A40F27511009806F034FD00BF03B07B
:1069DC005DF804FBFC260020C4230020C424002006
:1069EC00C42500200827002010270020182700208D
:1069FC00E5630200C4260020741F030000B583B0B9
:106A0C0001900091019B002B3DD0009B002B3AD0B4
:106A1C00009B1B88572B38DC502B04DA102B19D019
:106A2C00112B1CD031E0503B072B2ED801A252F871
:106A3C0023F000BF756A0200976A0200976A020091
:106A4C007F6A0200976A0200976A0200976A020046
:106A5C00896A020000990198FFF7E0FC16E00099A2
:106A6C000198FFF7E5FC11E000990198FFF7EAFCAB
:106A7C000CE000990198FFF782FD07E0009901985E
:106A8C00FFF768FD02E000BF00E000BF03B05DF857
:106A9C0004FB00BF00B583B001900091019903483D
:106AAC00FFF7ACFF00BF03B05DF804FBC426002069
:106ABC0076DF704700BF18467ADF704700BF184674
:106ACC007CDF704700BF18467FDF704700BF184659
:106ADC008FDF704700BF1846B1DF704700BF184604
:106AEC0033DF704700BF184600B583B003460091F2
:106AFC00ADF80630BDF80630009A1946034806F08A
:106B0C0099FC00BF03B05DF804FB00BFEFBEADDE27
:106B1C0000B583B007F03EF80190019B0093009BF9
:106B2C00002B04D0044A8E21009806F083FC00BF91
:106B3C0003B05DF804FB00BFC81F030000B585B0AF
:106B4C00002000F0B1FF0390039B0293029B002BEB
:106B5C0004D0114A9A21029806F06CFC01F0A1F8BD
:106B6C000390039B0193019B002B04D00A4A9E21A6
:106B7C00019806F05FFCFFF7B3FF0390039B0093B3
:106B8C00009B002B04D0044AA221009806F052FC72
:106B9C0000BF05B05DF804FBC81F030000B587B04B
:106BAC009DF80030012262F303038DF800309DF84C
:106BBC000030012262F307138DF800306B46082277
:106BCC001A491846FFF77CFF0590059B0493049B1C
:106BDC00002B04D0164AB521049806F02BFC01AB0F
:106BEC000822002118460BF0D1F85023ADF80430E0
:106BFC00A023ADF806300023ADF808304FF4C8736D
:106C0C00ADF80A3001AB1846FFF756FF0590059B0F
:106C1C000393039B002B04D0054ABF21039806F075
:106C2C0009FC00BF07B05DF804FB00BF1420030093
:106C3C00C81F030000B583B00021094803F03CFED7
:106C4C000190019B0093009B002B04D0054AC821A6
:106C5C00009806F0EFFB00BF03B05DF804FB00BF2B
:106C6C0030270020C81F030000B583B003468DF801
:106C7C0007309DF80730002B0DD0032B0ED10A4A9C
:106C8C000A4BD31ADB081B0443F0030308491846CC
:106C9C0009F058FD03E0FFF751FF00E000BF00BF13
:106CAC0003B05DF804FB00BFA81E0300801E0300A8
:106CBC002020030000B5AFB001ABAC220021184678
:106CCC000BF064F802238DF8043001238DF80630A4
:106CDC0006238DF807300223ADF81430114B0693C0
:106CEC0001238DF8803040232393002324930E4BF3
:106CFC002A9301AB19460D4802F0F0FC2D902D9B08
:106D0C002C932C9B002B04D0094AF7212C9806F0CD
:106D1C0091FB0121054802F0D4FC00BF2FB05DF8B7
:106D2C0004FB00BFF4220020756C020050270020E9
:106D3C00C81F030000B583B00190054A40F205114D
:106D4C00019806F077FB00BF03B05DF804FB00BFB1
:106D5C00C81F030000B585B0002301930B4B0193B2
:106D6C0001AB19460A4803F08BFE0390039B029378
:106D7C00029B002B05D0074A4FF48871029806F04D
:106D8C0059FB00BF05B05DF804FB00BF416D02006C
:106D9C0044270020C81F030008B5FFF7DBFFFFF7EF
:106DAC00CBFD00BF08BD000000B585B00190019B74
:106DBC001B78002B11D10B4B1B883B211846FFF77E
:106DCC0077FE0390039B0293029B002B05D0064A8F
:106DDC004FF49771029806F02DFB00BF05B05DF8DB
:106DEC0004FB00BFF0220020C81F030000B583B0D5
:106DFC000190054A40F23911019806F01BFB00BFC7
:106E0C0003B05DF804FB00BFC81F030000B58BB0D6
:106E1C0001AB1C22002118460AF0B8FF0023019395
:106E2C004FF4A02302934FF4A033039303238DF864
:106E3C0010300023ADF8123000238DF814300C4BB9
:106E4C0006930C4B079301AB184602F0A9FF09906F
:106E5C00099B0893089B002B05D0074A4FF4A87197
:106E6C00089806F0E7FA00BF0BB05DF804FB00BF12
:106E7C00B56D0200F96D0200C81F030000B583B0A8
:106E8C000321094802F002FD0190019B0093009B35
:106E9C00002B05D0054A4FF4AD71009806F0CAFAE4
:106EAC0000BF03B05DF804FB50270020C81F03008F
:106EBC0000B58BB001900091019B1B88562B00F004
:106ECC00BF80562B00F3CF80522B00F09280522BB8
:106EDC0000F3C980212B2DDC102BC0F2C480103B99
:106EEC00112B00F2C08001A252F823F0476F020070
:106EFC008B6F020073700200A36F020073700200AC
:106F0C0073700200737002007370020073700200E1
:106F1C0073700200737002007370020073700200D1
:106F2C0073700200737002007370020073700200C1
:106F3C00CB6F02003B2B70D095E0534A534BD31AC6
:106F4C00DB081B0443F003035149184609F0FAFB14
:106F5C00019B9A884F4B1A804E4B1B8819464E4802
:106F6C0003F0B0FD0990099B0393039B002B7CD08D
:106F7C004A4A40F26D11039806F05CFA75E0424AF9
:106F8C00424BD31ADB081B0443F003034449184655
:106F9C0009F0D8FB74E03F4B1888002300228521B0
:106FAC00FFF792FD0990099B0493049B002B5ED084
:106FBC003A4A4FF4BD71049806F03CFA57E00023AE
:106FCC008DF8083000238DF80930019B9B8802AAAC
:106FDC0011461846FFF77CFD0990099B0593059B0C
:106FEC00002B46D02D4A4FF4C371059806F022FAB7
:106FFC003FE0284B1888002300220021FFF76CFD8E
:10700C000990099B0893089B002B34D0234A4FF41A
:10701C00C671089806F00EFA2DE0019B9B8813218F
:10702C001846FFF745FD0990099B0693069B002B1C
:10703C0023D01A4A4FF4CA71069806F0FBF91CE0EB
:10704C00019B9B8813211846FFF732FD0990099B81
:10705C000793079B002B12D0104A4FF4CE71079860
:10706C0006F0E8F90BE000BF0AE000BF08E000BF43
:10707C0006E000BF04E000BF02E000BF00E000BF7C
:10708C0000BF0BB05DF804FBA81E0300801E0300BC
:10709C0034200300F022002044270020C81F0300E6
:1070AC004020030000B587B00AF058FA0590059B04
:1070BC000493049B002B05D0164A40F2AF110498A0
:1070CC0006F0B8F90023019301AB194601200AF030
:1070DC00FDFA0590059B0393039B002B05D00D4AED
:1070EC0040F2B511039806F0A5F901AB18460AF069
:1070FC00E1FB0590059B0293029B002B05D0054AF2
:10710C0040F2B911029806F095F900BF07B05DF88E
:10711C0004FB00BFC81F030000B583B04FF48041CF
:10712C00002009F039F80190019B0093009B002B83
:10713C0005D0064A4FF4E171009806F07BF908F08F
:10714C00ADFF00BF03B05DF804FB00BFC81F030018
:10715C0000B583B008F0C2FB0190019B0093009B2B
:10716C00002B05D0044A4FF4E771009806F062F941
:10717C0000BF03B05DF804FBC81F030008B509F09D
:10718C003DFB034683F00103DBB2002B01D008F07A
:10719C00BBFB00BF08BD000008B5FFF7BDFFFFF744
:1071AC00B7FCFFF7D5FFFFF77DFFFFF7F7FCFFF705
:1071BC0041FDFFF77FFDFFF7EFFDFFF727FE084AC4
:1071CC00084BD31ADB081B0443F00303064918468B
:1071DC0009F0B8FAFFF752FEFFF7D0FFFCE700BF4B
:1071EC00A81E0300801E03005020030000B583B0CE
:1071FC000190019B1B68184600F09DF80346002B7C
:10720C0004D105494FF4F670FFF76EFC4FF0A04324
:10721C00184603B05DF804FB6C20030000B585B084
:10722C00019001AB1846FFF7E1FF0390019B01228F
:10723C0002FA03F31946039800F069F800BF05B091
:10724C005DF804FB00B585B0019001AB1846FFF763
:10725C00CDFF0390019B012202FA03F31946039818
:10726C0000F05FF800BF05B05DF804FB00B585B019
:10727C00019001AB1846FFF7B9FF0390039BD3F8BD
:10728C0004350293029BDA43019B012101FA03F3BB
:10729C001A40039BC3F80825019B01229A40029BCC
:1072AC001A40039BC3F80C2500BF05B05DF804FB26
:1072BC0000B583B001900091009B002B03D1019885
:1072CC00FFF7C0FF02E00198FFF7A8FF00BF03B073
:1072DC005DF804FB00B585B0019001AB1846FFF7D3
:1072EC0085FF0390039800F00AF80246019B22FAEE
:1072FC0003F303F00103184605B05DF804FB82B0FC
:10730C000190019BD3F80435184602B0704782B047
:10731C0001900091019B009AC3F8082500BF02B0B0
:10732C00704782B001900091019B009AC3F80C2524
:10733C0000BF02B0704784B00190019B5B090293BF
:10734C0000230393029B002B03D14FF0FF330393D5
:10735C0000BF019B03F01F030193039A019B22FAC8
:10736C0003F303F00103002B14BF01230023DBB252
:10737C00184604B07047000000B585B00190019B21
:10738C00042B03D90B493A20FFF7AEFB0A4A019BA9
:10739C0013441B781846FFF79DFF0346002B14BFC0
:1073AC00012300238DF80F309DF80F30184605B0DF
:1073BC005DF804FB9C200300E020030000B583B0C3
:1073CC000190019B042B03D907494120FFF78CFB4B
:1073DC00064A019B13441B7801211846FFF768FFEE
:1073EC0000BF03B05DF804FB9C200300E020030009
:1073FC0000B583B00190019B042B03D907494720AA
:10740C00FFF772FB064A019B13441B7800211846B8
:10741C00FFF74EFF00BF03B05DF804FB9C20030098
:10742C00E020030000B583B00023019305E0019830
:10743C00FFF7DEFF019B01330193019B042BF6D96F
:10744C0000BF00BF03B05DF804FB00B583B00023A0
:10745C00019305E00198FFF7B1FF019B0133019304
:10746C00019B042BF6D900BF00BF03B05DF804FBF1
:10747C0000B583B00190019B042B03D907495F2011
:10748C00FFF732FB064A019B13441B781846FFF7A3
:10749C00EDFE00BF03B05DF804FB00BF9C200300B1
:1074AC00E020030000B583B00190019B072B03D9AA
:1074BC000549CB20FFF718FB044A019B13441B78AA
:1074CC00184603B05DF804FB9C200300E820030081
:1074DC0000B583B00190019B1B68184600F03EF884
:1074EC000346002B04D105494FF4F670FFF7FCFA64
:1074FC004FF0A043184603B05DF804FBF0200300E6
:10750C0000B585B001900B468DF8033001AB1846E1
:10751C00FFF7DEFF0390019A039B02F5E07253F82C
:10752C002230019A23F44031039B02F5E07243F8B8
:10753C002210019A039B02F5E07253F822309DF859
:10754C00032012041146019A1943039B02F5E072C1
:10755C0043F8221000BF05B05DF804FB84B0019025
:10756C00019B5B09029300230393029B002B03D125
:10757C004FF0FF33039300BF019B03F01F030193F4
:10758C00039A019B22FA03F303F00103002B14BFAF
:10759C0001230023DBB2184604B0704700B583B05A
:1075AC000C4B1B78002B0FD00023019308E0019BA0
:1075BC00022B02D00198FFF71BFF019B01330193B3
:1075CC00019B042BF3D901E0FFF72CFF00BF03B0A4
:1075DC005DF804FB8C2B00202DE9D04F92B00346B4
:1075EC008DF83F300023119300231093CC4B1B7864
:1075FC00002B04D0CA4A00231370FFF7CFFF9DF86D
:10760C003F30172B00F23F8201A252F823F000BF4B
:10761C007D760200957602009576020031770200A5
:10762C00CD77020049780200DD780200FD78020077
:10763C000D79020039790200577902007579020040
:10764C0093790200A1790200A1790200A1790200CC
:10765C00A1790200A1790200357A0200437A020076
:10766C00577A02006B7A0200857A0200857A020052
:10767C00FFF794FFAB4B184606F05CFB1190AA4A3F
:10768C009DF83F301370FFE10020FFF775FE0346B5
:10769C00002B0DD00020FFF7ABFE9DF83F30022BE6
:1076AC0002D14FF4E16301E04FF47A6310930BE0E5
:1076BC000020FFF783FE9DF83F30022B01D1C82339
:1076CC0001E04FF4C8731093974A9DF83F30137044
:1076DC00944C109B0022009301924FF000024FF04B
:1076EC000003DDE900673946CB03314643EA5143D9
:1076FC003146CA0312F57A71029143F100030393E8
:10770C004FF4FA624FF00003DDE902010AF0D6F9FA
:10771C0002460B46134600221946204606F0B2FAE2
:10772C001190B1E10020FFF727FE0346002B0DD08E
:10773C000020FFF75DFE9DF83F30032B02D14FF484
:10774C00487301E04FF47A6310930BE00020FFF7CD
:10775C0035FE9DF83F30032B01D1C82301E04FF4D7
:10776C00C8731093704A9DF83F3013706D4C109B8A
:10777C000022049305924FF000024FF00003DDE964
:10778C0004673946CB03314643EA51433146CA03B9
:10779C0012F57A71069143F1000307934FF4FA62E4
:1077AC004FF00003DDE906010AF088F902460B46AA
:1077BC00134600221946204606F064FA119063E144
:1077CC000020FFF7D9FD0346002B06D00020FFF761
:1077DC000FFE4FF47A63109305E00020FFF7EEFDE7
:1077EC004FF4C8731093504A9DF83F3013704D4CB2
:1077FC00109B00229A4693464FF000024FF0000374
:10780C004FEACB3343EA5A434FEACA3212F57A7144
:10781C00089143F1000309934FF4FA624FF000030F
:10782C00DDE908010AF04AF902460B46134600222C
:10783C001946204606F026FA119025E10020FFF7A4
:10784C009BFD0346002B0CD00020FFF7D1FD9DF8CB
:10785C003F30052B01D1C82301E04FF47A6310931C
:10786C000BE00020FFF7AAFD9DF83F30052B01D15E
:10787C00C82301E04FF4C87310932B4A9DF83F3096
:10788C001370284C109B0022984691464FF0000232
:10789C004FF000034FEAC93343EA58434FEAC8326A
:1078AC0012F57A710A9143F100030B934FF4FA62CB
:1078BC004FF00003DDE90A010AF000F902460B461D
:1078CC00134600221946204606F0DCF91190DBE045
:1078DC000020FFF7CDFD144A9DF83F301370114B7B
:1078EC00002240F26661184606F0CCF91190CBE00C
:1078FC000020FFF763FD0C4A9DF83F301370C3E086
:10790C00074B01221A700120FFF7B2FD054B002234
:10791C0040F26661184606F0B5F91190B4E000BF6C
:10792C00852B002000230020842B0020594B0122A2
:10793C001A700120FFF79CFD574B00224FF40051A9
:10794C00184606F09FF911909EE0524B01221A70D6
:10795C000120FFF78DFD504B002240F26661184666
:10796C0006F090F911908FE04A4B01221A70012019
:10797C00FFF77EFD484B00224FF40051184606F0ED
:10798C0081F9119080E0FFF760FD444A9DF83F308B
:10799C00137079E0424B184606F0CCF911909DF823
:1079AC003F30C3F111031093109B002B35D0119B6A
:1079BC00002B32D1109B012B28D9394C109B9BB238
:1079CC001A46C82302FB03F3DA171E4617464FF07C
:1079DC0000024FF00003FB0343EA5643F20312F597
:1079EC007A710C9143F100030D934FF4FA624FF04E
:1079FC000003DDE90C010AF061F802460B46134660
:107A0C0000221946204606F03DF911900220FFF79E
:107A1C00D5FC244B01221A7036E00220FFF7E8FC5B
:107A2C00204B00221A702FE0FFF7B8FD1B4A9DF87F
:107A3C003F30137028E0FFF7B1FD0020FFF7BEFCCC
:107A4C00164A9DF83F3013701EE0FFF7A7FD01208A
:107A5C00FFF7B4FC114A9DF83F30137014E0FFF7A8
:107A6C009DFD0020FFF7AAFC0120FFF7A7FC0B4AA5
:107A7C009DF83F30137007E0FFF7E7FC074A9DF8CD
:107A8C003F30137000E000BF119B184612B0BDE8E8
:107A9C00D08F00BF852B002000230020842B0020DA
:107AAC00202300208C2B002000B585B003468DF8D8
:107ABC00073000230393084B1B6803F00103002BD2
:107ACC0005D09DF807301846FFF786FD0390039B01
:107ADC00184605B05DF804FB882B002084B001909B
:107AEC000B468DF8033013468DF8023000230393B8
:107AFC00019B072B3CD89DF80230012B0BD19DF834
:107B0C000330012B04D1019BDBB20E33DBB200E05E
:107B1C0000238DF802309DF80330022B0FD0022B7E
:107B2C0023DC002B16D0012B1FD11449019A1346CC
:107B3C005B0013440B449DF802201A701AE00F49A5
:107B4C00019A13465B0013440B4401339DF8022049
:107B5C001A700FE00949019A13465B0013440B4459
:107B6C0002339DF802201A7004E00723039301E00E
:107B7C0007230393039B184604B07047902B0020F7
:107B8C0000B585B001900B468DF80330019B072B97
:107B9C0014D89DF80330002B01D0032300E0002300
:107BAC008DF80F300198FFF77DFC02469DF80F30E1
:107BBC0019461046FFF7A4FC002300E006231846E4
:107BCC0005B05DF804FB00B583B00190012101986C
:107BDC00FFF7D6FF0346184603B05DF804FB00B56B
:107BEC0083B0012200210020FFF778FF0190019B58
:107BFC00002B04D0019B072B01D0019B1CE007221A
:107C0C0002210120FFF76AFF0190019B002B04D099
:107C1C00019B072B01D0019B0EE0042202210020C6
:107C2C00FFF75CFF0190019B002B04D0019B072BFD
:107C3C0001D0019B00E00023184603B05DF804FB63
:107C4C0000B583B0012202210020FFF747FF01900D
:107C5C00019B002B04D0019B072B01D0019B1CE046
:107C6C00072202210120FFF739FF0190019B002B15
:107C7C0004D0019B072B01D0019B0EE00A220021AE
:107C8C000020FFF72BFF0190019B002B04D0019BE0
:107C9C00072B01D0019B00E00023184603B05DF8D0
:107CAC0004FB00B583B00020FFF78DFF0190019B12
:107CBC00002B04D0019B062B01D0019B0CE0012072
:107CCC00FFF781FF0190019B002B04D0019B062B39
:107CDC0001D0019B00E00023184603B05DF804FBC3
:107CEC0000B585B001900091019B1B88102B02D030
:107CFC00112B18D02FE01A4B1B68002B0DD1FFF75E
:107D0C006EFF0390039B002B07D0164B1B68002BB8
:107D1C0003D0144B1B6803989847114B1B68013315
:107D2C000F4A136017E00E4B1B68013B0C4A1360A3
:107D3C000B4B1B68002B0DD1FFF782FF0390039BAD
:107D4C00002B07D0074B1B68002B03D0054B1B687F
:107D5C000398984700BF00BF05B05DF804FB00BF57
:107D6C00AC2B0020A82B0020BFF34F8F00BF064B7D
:107D7C00DB6803F4E0620449044B1343CB60BFF3AC
:107D8C004F8F00BF00BFFDE700ED00E00400FA05D7
:107D9C0082B01D4B1B68B3F1FF3F0AD11B4B1B6814
:107DAC00DBB201931A4B1B681B0903F00F03009302
:107DBC0005E0154B1B680193164B1B680093019B48
:107DCC00062B1DD1009B033B042B17D801A252F8A4
:107DDC0023F000BFF57D0200F97D0200FD7D02005D
:107DEC00017E0200057E020001230AE0012308E067
:107DFC00012306E0012304E0012302E0012300E05B
:107E0C000023184602B0704730010010E00F00F05C
:107E1C00E80F00F03401001082B0174B1B68DBB286
:107E2C000193164B1B681B0903F00F030093019B76
:107E3C00062B1DD1009B033B042B17D801A252F833
:107E4C0023F000BF657E0200697E02006D7E020099
:107E5C00717E0200757E020001230AE0002308E017
:107E6C00002306E0002304E0002302E0002300E0EE
:107E7C000023184602B07047E00F00F0E80F00F046
:107E8C0082B01D4B1B68B3F1FF3F0AD11B4B1B6823
:107E9C00DBB201931A4B1B681B0903F00F03009311
:107EAC0005E0154B1B680193164B1B680093019B57
:107EBC00062B1DD1009B033B042B17D801A252F8B3
:107ECC0023F000BFE57E0200E97E0200ED7E020099
:107EDC00F17E0200F57E020001230AE0012308E096
:107EEC00012306E0012304E0012302E0012300E06A
:107EFC000023184602B0704730010010E00F00F06C
:107F0C00E80F00F03401001082B0174B1B68DBB295
:107F1C000193164B1B681B0903F00F030093019B85
:107F2C00062B1DD1009B033B042B17D801A252F842
:107F3C0023F000BF557F0200597F02005D7F0200D5
:107F4C00617F0200657F020001230AE0002308E044
:107F5C00002306E0002304E0002302E0002300E0FD
:107F6C000023184602B07047E00F00F0E80F00F055
:107F7C0082B01D4B1B68B3F1FF3F0AD11B4B1B6832
:107F8C00DBB201931A4B1B681B0903F00F03009320
:107F9C0005E0154B1B680193164B1B680093019B66
:107FAC00062B1DD1009B033B042B17D801A252F8C2
:107FBC0023F000BFD57F0200D97F0200DD7F0200D5
:107FCC00E17F0200E57F020001230AE0012308E0C3
:107FDC00012306E0012304E0012302E0012300E079
:107FEC000023184602B0704730010010E00F00F07B
:107FFC00E80F00F03401001082B0174B1B68DBB2A5
:10800C000193164B1B681B0903F00F030093019B94
:10801C00062B1DD1009B033B042B17D801A252F851
:10802C0023F000BF45800200498002004D80020011
:10803C00518002005580020001230AE0002308E071
:10804C00002306E0002304E0002302E0002300E00C
:10805C000023184602B07047E00F00F0E80F00F064
:10806C0082B0174B1B68DBB20193164B1B681B09C4
:10807C0003F00F030093019B062B1DD1009B033BC8
:10808C00042B17D801A252F823F000BFAD800200D8
:10809C00B1800200B5800200B9800200BD800200F0
:1080AC0001230AE0002308E0002306E0002304E09B
:1080BC00002302E0002300E00023184602B07047C2
:1080CC00E00F00F0E80F00F082B01D4B1B68B3F11D
:1080DC00FF3F0AD11B4B1B68DBB201931A4B1B6889
:1080EC001B0903F00F03009305E0154B1B6801936C
:1080FC00164B1B680093019B062B1DD1009B033B69
:10810C00042B17D801A252F823F000BF2D810200D6
:10811C003181020035810200398102003D8102006B
:10812C0000230AE0002308E0012306E0012304E019
:10813C00012302E0012300E00023184602B070473F
:10814C0030010010E00F00F0E80F00F034010010D7
:10815C0082B01D4B1B68B3F1FF3F0AD11B4B1B6850
:10816C00DBB201931A4B1B681B0903F00F0300933E
:10817C0005E0154B1B680193164B1B680093019B84
:10818C00062B1DD1009B033B042B17D801A252F8E0
:10819C0023F000BFB5810200B9810200BD8102004D
:1081AC00C1810200C581020001230AE0012308E01D
:1081BC00012306E0012304E0012302E0012300E097
:1081CC000023184602B0704730010010E00F00F099
:1081DC00E80F00F03401001082B01D4B1B68B3F1A6
:1081EC00FF3F0AD11B4B1B68DBB201931A4B1B6878
:1081FC001B0903F00F03009305E0154B1B6801935B
:10820C00164B1B680093019B062B1DD1009B033B57
:10821C00042B17D801A252F823F000BF3D820200B4
:10822C004182020045820200498202004D82020016
:10823C0001230AE0012308E0012306E0012304E006
:10824C00012302E0012300E00023184602B070472E
:10825C0030010010E00F00F0E80F00F034010010C6
:10826C0082B0154B1B680193144B1B680093019B48
:10827C00062B1DD1009B033B042B17D801A252F8EF
:10828C0023F000BFA5820200A9820200AD82020089
:10829C00B1820200B582020000230AE0002308E04C
:1082AC00002306E0012304E0012302E0012300E0A7
:1082BC000023184602B07047300100103401001042
:1082CC0082B0154B1B680193144B1B680093019BE8
:1082DC00062B1DD1009B033B042B17D801A252F88F
:1082EC0023F000BF05830200098302000D83020006
:1082FC00118302001583020000230AE0002308E02A
:10830C00002306E0002304E0012302E0012300E047
:10831C000023184602B070473001001034010010E1
:10832C0008B5FFF7CDFF0346002B07D04FF0102305
:10833C004FF08042D3F80832C2F8583500BF08BD60
:10834C0000BF044BD3F80034002BFAD000BF00BFA1
:10835C00704700BF00E0014000B583B00190054AB2
:10836C00019BC2F80435FFF7EBFF00BF03B05DF8CB
:10837C0004FB00BF00E00140024B034A1A6000BF3F
:10838C00704700BF402300200090D00308B5FFF7D2
:10839C00FFFC0346002B06D0964B1B681B0A964A23
:1083AC0003F01F031360FFF737FD0346002B02D0C9
:1083BC00924B934A1A60FFF763FD0346002B06D0DD
:1083CC00904B1B685B0B904A03F007031360FFF79D
:1083DC009BFD0346002B05D08C4BDB688B4A23F0AE
:1083EC008073D360FFF7C4FD0346002B0ED04FF013
:1083FC0080430022C3F80C214FF080430022C3F8C5
:10840C0010214FF080430022C3F83825FFF7F4FD0C
:10841C000346002B02D07E4B03221A60FFF720FE8E
:10842C000346002B0BD07B4B05221A607A4B0122A2
:10843C001A607A4B00221A60794B3F221A60FFF7C0
:10844C0043FE0346002B76D04FF08053754AD3F889
:10845C000434C2F820354FF08053724AD3F80834F4
:10846C00C2F824354FF080536E4AD3F80C34C2F85E
:10847C0028354FF080536B4AD3F81034C2F82C35A2
:10848C004FF08053674AD3F81434C2F830354FF0AC
:10849C008053644AD3F81834C2F834354FF0805303
:1084AC00604AD3F81C34C2F840354FF080535D4A13
:1084BC00D3F82034C2F844354FF08053594AD3F8DE
:1084CC002434C2F848354FF08053564AD3F8283438
:1084DC00C2F84C354FF08053524AD3F82C34C2F8C2
:1084EC0050354FF080534F4AD3F83034C2F85435DE
:1084FC004FF080534B4AD3F83434C2F860354FF008
:10850C008053484AD3F83834C2F864354FF080535E
:10851C00444AD3F83C34C2F868354FF08053414A92
:10852C00D3F84034C2F86C354FF080533D4AD3F841
:10853C004434C2F87035FFF70BFE0346002B05D010
:10854C00394B1B68394A03F04F031360FFF744FEA5
:10855C000346002B0DD04FF08043D3F8003403F0CA
:10856C000103002B05D04FF080436FF00102C3F8DC
:10857C000024FFF775FE0346002B05D02C4B1B681F
:10858C002B4A43F4806313602A4BD3F88830294A72
:10859C0043F47003C2F88830BFF34F8F00BFBFF3B2
:1085AC006F8F00BFFFF7BCFE4FF01023D3F80032E3
:1085BC00002B05DB4FF01023D3F80432002B15DA17
:1085CC000120FFF7C9FE4FF010231522C3F800223B
:1085DC00FFF7B6FE4FF010231522C3F80422FFF765
:1085EC00AFFE0020FFF7B8FEFFF7BEFBFFF7C4FE9F
:1085FC0000BF08BD240300104035014074C0074083
:10860C000DF0ADBA440200103C050040F0ED00E066
:10861C00A0050040105600408856004018560040F7
:10862C001456004000C0004058020010E40E0040F8
:10863C003C17004000ED00E06DDF704700BF1846AE
:10864C0079DF704700BF18467DDF704700BF1846C2
:10865C0064DF704700BF184682B003460091ADF846
:10866C000630BDF80630DAB2009B1A70BDF8063041
:10867C001B0A9AB2009B0133D2B21A70022318461D
:10868C0002B0704700B589B0039002911346ADF863
:10869C000630029B1B8803F10902BDF806309A4292
:1086AC0001D90C2353E004AB1846FFF7C5FF079024
:1086BC00079B0693069B002B01D0069B47E0029B71
:1086CC001B881A46039B134408221A70029B1B88B2
:1086DC0001339AB2029B1A80029B1B881A46039B99
:1086EC0013441B221A70029B1B8801339AB2029B03
:1086FC001A80029B1B881A46039B981804AB013303
:10870C000622194609F00CFB029B1B8806339AB211
:10871C00029B1A809DF8103023F00103DBB2002B72
:10872C0007D1029B1B881A46039B134400221A7024
:10873C0006E0029B1B881A46039B134401221A7005
:10874C00029B1B8801339AB2029B1A8000231846A5
:10875C0009B05DF804FB00B589B003900291019259
:10876C00ADF80230039B1B78012B05D1039B5B7882
:10877C00002B01D1072392E0019B1B889A1CBDF8AA
:10878C0002309A420ED8039B1B78012B0CD1019B13
:10879C001B881A46039B5B7813449A1CBDF8023065
:1087AC009A4201D90C237AE0019B1B88BDF8022068
:1087BC00D31A9BB2023BADF81C30BDF81C30ADF89F
:1087CC001230019B1B880233029A13440DF11202E2
:1087DC0011461846FFF738FF0690069B0593059B3C
:1087EC00002B01D0059B5AE0039B1B78022B06D073
:1087FC00039B5B789AB2BDF812309A4209D3BDF84C
:10880C001230BDF81C209A4203D309238DF81F3077
:10881C0017E008238DF81F30039B1B78012B0CD11C
:10882C00039B5B789BB2BDF81C209A4205D3039B3B
:10883C005B789BB2ADF8123003E0BDF81C30ADF89C
:10884C001230BDF81230FE2B01D90C2327E0BDF8F5
:10885C001230DAB2019B1B881946029B0B44013281
:10886C00D2B21A70019B1B8801339AB2019B1A80F9
:10887C00019B1B881A46029B13449DF81F201A70FB
:10888C00019B1B8801339AB2019B1A80019B1A88A9
:10889C00BDF8123013449AB2019B1A80002318467B
:1088AC0009B05DF804FB00B589B003900291134642
:1088BC00ADF80630029B1B881A1DBDF806309A4293
:1088CC0001D90C233BE00DF116031846FFF7B8FE57
:1088DC000790079B0693069B002B01D0069B2EE06E
:1088EC00029B1B881A46039B134403221A70029B9B
:1088FC001B8801339AB2029B1A80029B1B881A4672
:10890C00039B134419221A70029B1B8801339AB2E1
:10891C00029B1A80BDF81620029B1B881946039BEC
:10892C000B4419461046FFF797FE03461946029B67
:10893C001A888BB213449AB2029B1A8000231846F1
:10894C0009B05DF804FB84B0029101921A4603460B
:10895C008DF80F301346ADF80C30019B1B88DA1CD8
:10896C00BDF80C309A4201D90C2328E0019B1B88DE
:10897C001A46029B134402221A70019B1B88013376
:10898C009AB2019B1A80019B1B881A46029B1344C6
:10899C0001221A70019B1B8801339AB2019B1A8029
:1089AC00019B1B881A46029B13449DF80F201A70DA
:1089BC00019B1B8801339AB2019B1A800023184635
:1089CC0004B0704784B0029101921A4603468DF8A8
:1089DC000F301346ADF80C30019B1B88DA1CBDF828
:1089EC000C309A4201D90C2328E0019B1B881A46B3
:1089FC00029B134402221A70019B1B8801339AB20A
:108A0C00019B1A80019B1B881A46029B13440A2265
:108A1C001A70019B1B8801339AB2019B1A80019B2F
:108A2C001B881A46029B13449DF80F201A70019B59
:108A3C001B8801339AB2019B1A800023184604B09C
:108A4C00704700B58FB0039001930B468DF80B3037
:108A5C0013468DF80A3000238DF83330109B1B8899
:108A6C00ADF8303000230D9371E0039B5A680D9BD9
:108A7C009B001A4405AB106818600DF11B0105AB87
:108A8C0000221846FFF7E4FD0A900A9B0993099B04
:108A9C00002B01D0099B7CE09DF81B309DF80A202F
:108AAC009A4251D19DF83330002B01D0002300E0C5
:108ABC0002238DF82330109B1B881A469DF81B301F
:108ACC001A449DF823301A44BDF844309A4201DD13
:108ADC000C235EE09DF8333083F00103DBB2002BF6
:108AEC0016D0109B1B8801339AB2109B1A80109BD6
:108AFC001B881A46019B13449DF80B201A70109B7F
:108B0C001B8801339AB2109B1A8001238DF83330E5
:108B1C00109B1B881A46019B1A440DF11B0105ABD7
:108B2C001846FFF795FD0A900A9B0793079B002BAD
:108B3C0001D0079B2DE0109B1A889DF81B309BB22F
:108B4C0013449AB2109B1A800D9B01330D93039B17
:108B5C001B881A460D9B934287DB9DF83330002B04
:108B6C0016D0109B1A88BDF83030D31A9BB2013B3B
:108B7C00ADF82E30BDF82E30FF2B01D90C2308E0B8
:108B8C00BDF83030019A1344BDF82E20D2B21A70C1
:108B9C00002318460FB05DF804FB00B58BB00590B0
:108BAC0003930B468DF8133013468DF812309DF855
:108BBC001310BDF8343001930C9B0093039B0222DD
:108BCC000598FFF73EFF0990099B0893089B002B23
:108BDC0001D0089B14E09DF81210BDF834300193BD
:108BEC000C9B0093039B10220598FFF72AFF09901A
:108BFC00099B0793079B002B01D0079B00E00023E8
:108C0C0018460BB05DF804FB82B00190019B1B88E9
:108C1C00052B0AD9019B1B88B3F5486F07D9019B1B
:108C2C001B884FF6FF72934201D0072325E0019B6E
:108C3C005B88052B0AD9019B5B88B3F5486F07D974
:108C4C00019B5B884FF6FF72934201D0072314E01F
:108C5C00019B1B884FF6FF7293420DD0019B5B88E2
:108C6C004FF6FF72934207D0019B1A88019B5B88D9
:108C7C009A4201D9072300E00023184602B070473E
:108C8C0000B587B0039002910192ADF80230019BC0
:108C9C001B889A1DBDF802309A4201D90C234DE075
:108CAC000398FFF7B1FF0590059B0493049B002BE1
:108CBC0001D0049B42E0019B1B881A46029B134483
:108CCC0005221A70019B1B8801339AB2019B1A80F2
:108CDC00019B1B881A46029B134412221A70019B9B
:108CEC001B8801339AB2019B1A80039B1A88019B43
:108CFC001B881946029B0B4419461046FFF7ACFC27
:108D0C0003461946019B1A888BB213449AB2019BF5
:108D1C001A80039B5A88019B1B881946029B0B44A3
:108D2C0019461046FFF798FC03461946019B1A8812
:108D3C008BB213449AB2019B1A800023184607B0D9
:108D4C005DF804FB00B587B0039002910192ADF879
:108D5C000230039B9B8802330593019B1B881A46A8
:108D6C00059B13449A1CBDF802309A4201D90C237E
:108D7C0054E0059BFE2B01D90C234FE0059BDAB286
:108D8C00019B1B881946029B0B440132D2B21A700C
:108D9C00019B1B8801339AB2019B1A80019B1B8893
:108DAC001A46029B1344FF221A70019B1B88013345
:108DBC009AB2019B1A80039B1A88019B1B88194647
:108DCC00029B0B4419461046FFF746FC0346194616
:108DDC00019B1A888BB213449AB2019B1A80039B95
:108DEC009B88002B19D0039B9B68002B01D1072378
:108DFC0014E0019B1B881A46029B9818039B9968E8
:108E0C00039B9B881A4608F08BFF019B1A88039BD7
:108E1C009B8813449AB2019B1A800023184607B012
:108E2C005DF804FB00B589B0039002910192ADF896
:108E3C000230039B9B6A002B01D1072372E00023B5
:108E4C008DF81F3066E0039B996A9DF81F2013462E
:108E5C005B0013449B000B440693069B9B880233D8
:108E6C000593059BFE2B01D90C235BE0059BDAB225
:108E7C00019B1B881946029B0B440132D2B21A701B
:108E8C00019B1B8801339AB2019B1A80019B1B88A2
:108E9C001A46029B134416221A70019B1B8801333D
:108EAC009AB2019B1A80069B1A88019B1B88194653
:108EBC00029B0B4419461046FFF7CEFB034619469E
:108ECC00019B1A888BB213449AB2019B1A80069BA1
:108EDC009B88002B19D0069B9B68002B01D1072384
:108EEC0020E0019B1B881A46029B9818069B9968E8
:108EFC00069B9B881A4608F013FF019B1A88069B59
:108F0C009B8813449AB2019B1A809DF81F30013341
:108F1C008DF81F30039B93F82C309DF81F209A423C
:108F2C0091D30023184609B05DF804FB00B595B049
:108F3C0005900491039200231393039B1B88ADF8B7
:108F4C004A30039B00221A80059B93F82D30002B8E
:108F5C000ED0BDF84A301A4603990498FFF792FBDD
:108F6C001390139B1193119B002B01D0119BD8E0F4
:108F7C00059B9B78002B0ED0BDF84A301A460399FE
:108F8C000498FFF790FC1390139B1093109B002BED
:108F9C0001D0109BC5E0059BDB78002B10D0059B06
:108FAC00DB7858B2BDF84A30039A0499FFF7CBFC32
:108FBC001390139B0F930F9B002B01D00F9BB0E0D2
:108FCC00059B5B68002B11D0059B5B6893F9000037
:108FDC00BDF84A30039A0499FFF7F4FC1390139BE5
:108FEC000E930E9B002B01D00E9B9AE0059B1B89C8
:108FFC00002B14D0059B03F10800BDF84A300193F7
:10900C00039B0093049B06220221FFF7C6FD1390DD
:10901C00139B0D930D9B002B01D00D9B81E0059BA9
:10902C001B8A002B14D0059B03F11000BDF84A30AD
:10903C000193039B0093049B07220321FFF7ADFDD3
:10904C001390139B0C930C9B002B01D00C9B68E092
:10905C00059B1B8B002B14D0059B03F11800BDF84E
:10906C004A300193039B0093049B15221421FFF7B4
:10907C0094FD1390139B0B930B9B002B01D00B9B1C
:10908C004FE0059B1B6A002B0FD0059B186ABDF89F
:10909C004A30039A0499FFF7F3FD1390139B0A933C
:1090AC000A9B002B01D00A9B3BE0059B5B6A002BC3
:1090BC000FD0059B586ABDF84A30039A0499FFF704
:1090CC0041FE1390139B0993099B002B01D0099B24
:1090DC0027E0059B93F82C30002B0ED0BDF84A30BE
:1090EC00039A04990598FFF79DFE1390139B089320
:1090FC00089B002B01D0089B13E0059B1B78002BD1
:10910C000ED0BDF84A30039A04990598FFF723FB5B
:10911C001390139B0793079B002B01D0079B00E038
:10912C00139B184615B05DF804FB86B003900192B2
:10913C001A460B46ADF80A3013468DF80930039BDE
:10914C00002B02D0019B002B01D100235CE00023FB
:10915C00ADF816300CE0BDF81630039A13441B78AA
:10916C009AB2BDF8163013449BB20133ADF81630E9
:10917C00BDF816305A1CBDF80A309A420FDA019B22
:10918C001B88BDF816209A42E5D3BDF81630013382
:10919C00039A13441B789DF809209A42DBD1BDF841
:1091AC001620BDF80A309A4201D300232CE0BDF8FA
:1091BC0016300233ADF81430BDF81630039A134450
:1091CC001B78002B08D0BDF81630039A13441B787B
:1091DC009BB2013B9BB200E00023ADF81230BDF80E
:1091EC001230002B08D0BDF81420BDF812301A44F0
:1091FC00BDF80A309A4201DD002305E0019BBDF861
:10920C0014201A80BDF81230184606B0704700B50D
:10921C0085B001900B46ADF8023013468DF8013045
:10922C000023ADF80C309DF8013003AABDF80210F4
:10923C000198FFF77AFF0346ADF80E30BDF80E30FB
:10924C00002B01D1002304E0BDF80C301A46019B21
:10925C001344184605B05DF804FB72DF704700BF7D
:10926C00184673DF704700BF184682B00190019B0F
:10927C0093F83034184602B0704784B00190002344
:10928C0003930AE0019A039B13441B78002B01D033
:10929C00012306E0039B01330393039B052BF1D9B8
:1092AC000023184604B0704782B003468DF807308F
:1092BC009DF807305A1C074B83FB02135910D31728
:1092CC00C91A0B469B000B44D11ACBB2184602B0FC
:1092DC00704700BF6766666682B001900091009B84
:1092EC00DB7B012B04D1009B9A88019BA3F82424DF
:1092FC0000BF02B0704700B585B001900091019B92
:10930C00002283F82E24009B9A88019BB3F8243406
:10931C009A4216D1019B1B7983F00103DBB2002B1F
:10932C000FD00121019800F0B1FA0390039B002BA0
:10933C0007D0019B9B6B002B03D0019B9B6B03986D
:10934C00984700BF05B05DF804FB00B585B00190EF
:10935C000091009B1B88262B1ED1009B1B7A012B96
:10936C0003D0009B1B7A022B17D1019B9B781846CC
:10937C00FFF79AFF03461946019800F087FA03900D
:10938C00039B002B09D0019B9B6B002B05D0019BF1
:10939C009B6B0398984700E000BF05B05DF804FB99
:1093AC0000B585B001900B468DF80330019B03F29C
:1093BC0027431846FFF761FF03468DF80F309DF8E1
:1093CC000330013B032B33D801A252F823F000BF2A
:1093DC00ED930200119402002594020031940200D6
:1093EC00019B9B79002B0DD0019B93F8243083F0CB
:1093FC000103DBB2002B05D09DF80F30002B01D000
:10940C00012316E0019BDB79002B05D09DF80F3072
:10941C00002B01D002230CE0019B1B7A002B01D006
:10942C00032306E0019B5B7A002B01D0042300E0B0
:10943C000023184605B05DF804FB00BF82B0019014
:10944C000091019B012283F83120019B0022C3F87B
:10945C002024019B03F22642009B5A60009B0022B1
:10946C009A60009B02221A70009B80229A81002332
:10947C00184602B0704782B001900091019B022205
:10948C0083F83120019B93F82430002B03D0009BF0
:10949C0007221A7002E0009B03221A70019B1B69C1
:1094AC009AB2009B9A81019B0022C3F82024019B55
:1094BC0003F22642009B5A60019BDA68009B9A607B
:1094CC000023184602B0704700B583B00190019B91
:1094DC005B79002B0FD0019B93F82E3483F00103A2
:1094EC00DBB2002B07D00198FFF7BFFE0346002B21
:1094FC0001D0012300E0002303F00103DBB2184686
:10950C0003B05DF804FB00B585B001900B468DF8F7
:10951C000330019BD3F81004019BB3F814340122DF
:10952C001946FFF774FE0390039B002B03D0039B9B
:10953C009DF803201A70019B03F15400019B03F565
:10954C008261019B3C331A46FFF787FE034618469F
:10955C0005B05DF804FB00B585B001900091019B4E
:10956C005A69009B9A60019B9B699AB2009B9A81F5
:10957C00019B93F82430002B04D0019B062283F826
:10958C003C2003E0019B012283F83C200198FFF76B
:10959C009BFF0346002B13D0009B02221A7504215B
:1095AC000198FFF7B0FF0390039B0293029B002BE3
:1095BC0001D0029B0FE0019B052283F8312003E0D0
:1095CC00019B032283F83120019B03F58262019BEE
:1095DC00C3F820240023184605B05DF804FB00B541
:1095EC0085B001900091019BDA69009B9A60019B08
:1095FC001B6A9AB2009B9A81019B93F82430002B32
:10960C0004D0019B062283F83C2003E0019B01223D
:10961C0083F83C200198FFF757FF0346002B13D02B
:10962C00009B02221A7504210198FFF76CFF03902E
:10963C00039B0293029B002B01D0029B0FE0019B2A
:10964C00062283F8312003E0019B042283F83120A9
:10965C00019B03F58262019BC3F82024002318466A
:10966C0005B05DF804FB82B00190019B9B78002B48
:10967C0006D0019B93F82030002B01D000230AE088
:10968C00019B9B6A042B03D0019B5B6A042B01D1C9
:10969C00002300E00123184602B0704784B001900B
:1096AC00019B93F82430002B03D0EE23ADF80E3041
:1096BC0002E01F23ADF80E30BDF80E30184604B092
:1096CC00704782B001900B468DF80330019B9DF8DA
:1096DC00032083F8302000BF02B0704730B587B04C
:1096EC0001900091009B002B02D0019B002B01D11B
:1096FC000E23B8E0009B78331846FFF7B4FF0346FF
:10970C0083F00103DBB2002B01D00723ABE0019BFC
:10971C0000229A70019A009B141D03F178050FCD5D
:10972C000FC40FCD0FC495E8070084E80700019B18
:10973C00002283F83020009BD3F8A420019B5A63AD
:10974C00009BD3F8A820019B9A63019B4FF6FF72F4
:10975C00A3F82424019B03F58262019BC3F8202407
:10976C00019B03F2264307220021184608F00EFB4A
:10977C00019B1B7883F00103DBB2002B03D0019B10
:10978C00FF2283F85420019B03F15502019BC3F87F
:10979C0010240198FFF782FF03461A46019BA3F899
:1097AC0014240098019B03F15501019B03F214430F
:1097BC001A46FFF7BBFB0590059B0493049B002BFB
:1097CC0001D0049B4FE0019B03F23122019BC3F8B3
:1097DC0018240198FFF762FF03461A46019BA3F871
:1097EC001C24009B03F13C00019BD3F81814019B33
:1097FC0003F21C431A46FFF799FB0590059B039354
:10980C00039B002B01D0039B2DE0019B012283F8CD
:10981C005120019B9B699AB2019BA3F84820019BA4
:10982C00012283F83C20019B00221A64019B002238
:10983C0083F85020019B5A69019B5A64019B03F1E8
:10984C005400019B3C331A460021FFF706FD05909E
:10985C00059B0293029B002B01D0029B03E0019B12
:10986C0001221A70059B184607B030BD82B00190DA
:10987C00019B1B68012B03D0019B1B68022B01D1A0
:10988C00012300E00023184602B0704700B585B0F4
:10989C0001900B468DF80330019B1B7883F001037C
:1098AC00DBB2002B01D0082309E1019B9DF80320BA
:1098BC009A70019B03F2264307220021184608F0F8
:1098CC0065FA019B9B79002B03D0019B9B78012BA4
:1098DC000FD0019BDB79002B03D0019B9B78012BD4
:1098EC0007D0019BDB79002B14D0019B9B78022BBA
:1098FC0010D1019B5B6B002B08D0019B012283F8DC
:10990C002D24019B5B6B0820984703E0019B0022F0
:10991C0083F82D249DF8033019460198FFF740FD7C
:10992C0003461A46019B9A70019B5B6B002B20D05F
:10993C00019B9B78032B03D0019B9B78042B18D1A4
:10994C00019B5B79002B14D0019B93F82E3483F090
:10995C000103DBB2002B0CD0019B002283F83024D6
:10996C00019B012283F82F24019B5B6B07209847F6
:10997C0003E0019B002283F82F24019B3C33182227
:10998C000021184608F002FA019B012283F83C20C2
:10999C00019B2C331846FFF769FF0346002B06D0BA
:1099AC00019BDB6ADAB2019B83F8512003E0019B37
:1099BC00012283F85120019B93F82430002B12D004
:1099CC00019B28331846FFF751FF0346002B06D0A6
:1099DC00019B9B6ADAB2019B83F8522003E0019B46
:1099EC00012283F85220019B002283F85020019B16
:1099FC009B78042B31D801A252F823F05D9A020017
:109A0C001D9A02002D9A02003D9A02004D9A020006
:109A1C00019B3C3319460198FFF710FD03901DE0A4
:109A2C00019B3C3319460198FFF725FD039015E087
:109A3C00019B3C3319460198FFF78DFD03900DE017
:109A4C00019B3C3319460198FFF7C9FD039005E0D3
:109A5C00019B002283F8312000E000BF019B9B7822
:109A6C00002B20D0019B03F15400019BD3F8201450
:109A7C00019B3C331A46FFF7F0FB0390039B002B32
:109A8C0001D0039B1BE0019B93F85420019B93F89E
:109A9C00303019461046FFF7E4FB0390039B002B74
:109AAC0001D0039B0BE0019B5B6B002B06D0019B51
:109ABC005B6B019A92F831201046984700231846A8
:109ACC0005B05DF804FB00BF00B585B001900091B6
:109ADC00009B0393019B1B88262B10D0262B13DC99
:109AEC00102B02D0112B05D00EE001990398FFF733
:109AFC00F3FB0AE001990398FFF7FDFB05E00199E0
:109B0C000398FFF722FC00E000BF00BF05B05DF832
:109B1C0004FB75DF704700BF184676DF704700BF47
:109B2C0018467ADF704700BF18467BDF704700BFCE
:109B3C001846000084B00346ADF8063000230393AA
:109B4C0016E00F49039A13469B0013449B000B44E9
:109B5C001B88BDF806209A4207D1039A13469B0036
:109B6C0013449B00064A134406E0039B0133039302
:109B7C00039B002BE5D00023184604B0704700BFB0
:109B8C00D02B002082B001900B46ADF80230019B27
:109B9C00BDF802201A80019B00221A72019B054914
:109BAC0003F10A020B4603CB1060516000BF02B0F8
:109BBC00704700BF002C002082B00190019B4FF633
:109BCC00FF721A8000BF02B0704788B003900291F8
:109BDC0011461A460B46ADF806301346ADF8043064
:109BEC00039B9B881A46BDF8063013440793039BCE
:109BFC009B881946039B9B88BDF80620934228BF7F
:109C0C0013469BB2CB1A0693039BDB881A46BDF80E
:109C1C00043013440593039BDB881946039BDB88B4
:109C2C00BDF80420934228BF13469BB2CB1A049371
:109C3C00029B5A88039B1B889A4205D3029B5A8825
:109C4C00039B5B889A4201D900231CE0029B9B88F2
:109C5C001A46069B934205D8029B9B881A46079B83
:109C6C00934201D200230EE0029BDB881A46049B30
:109C7C00934205D8029BDB881A46059B934201D27E
:109C8C00002300E00123184608B0704700B583B0EC
:109C9C000190064B9B69002B03D0044B9B690198E8
:109CAC00984700BF03B05DF804FB00BFE42B002015
:109CBC0000B585B003460091ADF80630BDF806300E
:109CCC0000991846FFF725FF0390039B002B05D046
:109CDC00039B112B02D00398FFF7D8FF039B002B9B
:109CEC000CBF01230023DBB2184605B05DF804FB62
:109CFC0000B589B00190019B0793079B9BB2184656
:109D0C00FFF718FF0690069B002B42D0069B1A7A91
:109D1C00224B1B7B9A4215D2079B9AB2069B0A33A5
:109D2C0019461046FFF7C4FF03468DF813309DF813
:109D3C001330002B2DD0069B1B7A0133DAB2069B15
:109D4C001A7226E0069B00221A72144B1B7C002B05
:109D5C000FD0079B9BB23B211846FFF7DEFE059008
:109D6C00059B002B05D0059B082B02D00598FFF70F
:109D7C008DFF0A4B5B69002B0BD000238DF80C3048
:109D8C00079B9BB2ADF80E30044B5B6903AA1046DF
:109D9C00984700BF09B05DF804FB00BFE42B00201E
:109DAC0030B587B00190019B002B01D10E2353E0FD
:109DBC002B4A019B14461D460FCD0FC495E8070096
:109DCC0084E80700264B274A1A60019B1B68002B6E
:109DDC0011D0019B1B681846FFF7A3FE0490049B4F
:109DEC00002B01D0049B37E0019B1A681D4B1068B7
:109DFC00516803C308E01B48FFF797FE0490049BCF
:109E0C00002B01D0049B27E00023059320E0059A4A
:109E1C0013469B0013449B00134A1344039303986B
:109E2C00FFF7CAFE059B5B01104A1A44039B5A605C
:109E3C00039B04330E4A0021184603F0E9FE0490FC
:109E4C00049B002B01D0032306E0059B01330593F3
:109E5C00059B002BDBD00023184607B030BD00BF9C
:109E6C00E42B0020002C0020D02B0020B02B002055
:109E7C00FD9C020000B587B003460091ADF806309A
:109E8C00009B5B7A002B1AD1009B1B7A002B03D111
:109E9C00164B5B68059302E0144B9B680593009B83
:109EAC005B68BDF806200599184603F0EBFE04909C
:109EBC00049B002B16D00498FFF7E8FE12E0009BE1
:109ECC0000221A72094B5B69002B0BD001238DF811
:109EDC000C30BDF80630ADF80E30044B5B6903AAAC
:109EEC001046984700BF07B05DF804FBE42B002038
:109EFC0000B585B00190019BDB7B8DF80F30019B89
:109F0C009B88ADF80C309DF80F30012B2CD14FF6FF
:109F1C00FF70FFF70FFE0290029B002B03D1042071
:109F2C00FFF7B4FE21E0BDF80C3019460298FFF79C
:109F3C0029FE029B03F10A00019B03F110014FF66D
:109F4C00FF7340F2F312FFF740FE03461A46029BE2
:109F5C005A72074BDB89002B07D1BDF80C300299E4
:109F6C001846FFF787FF00E000BF05B05DF804FB63
:109F7C00E42B002000B587B00190019B9B88ADF8C5
:109F8C001630BDF816301846FFF7D4FD0490049B2C
:109F9C00002B0ED0049B5B68184603F0CBFE03909D
:109FAC00039B002B02D00398FFF770FE0498FFF779
:109FBC0003FE00BF07B05DF804FB000000B587B0DE
:109FCC000190019B06330593059B1A88194BDB897D
:109FDC009A422BD1059B5B89022B27D1019B9B8835
:109FEC00ADF81230BDF812301846FFF7A3FD039000
:109FFC00039B002B1AD0059B0C33184600F0FAF982
:10A00C000346002B06D0BDF8123003991846FFF713
:10A01C0031FF0BE0039B5B68184603F08BFE02904C
:10A02C00029B002B02D00298FFF730FE00BF07B056
:10A03C005DF804FBE42B002000B585B00190019B7A
:10A04C009B88ADF80E30BDF80E301846FFF772FD48
:10A05C000290029B002B15D0029B03F10A00019B7E
:10A06C0003F108014FF6FF7340F2F312FFF7ADFD59
:10A07C0003461A46029B5A72BDF80E3002991846D6
:10A08C00FFF7F8FE00BF05B05DF804FB00B583B028
:10A09C0001900091019B1B88502B12D0502B18DC87
:10A0AC00122B12D0122B14DC102B02D0112B04D03B
:10A0BC000FE00198FFF71CFF0CE00198FFF75AFF27
:10A0CC0008E00198FFF77AFF04E00198FFF7B4FF6E
:10A0DC0000E000BF00BF03B05DF804FB30B58FB0EB
:10A0EC000190009100230293009B002B1AD00023B7
:10A0FC000D9314E06B460D99184604F058FC03467A
:10A10C00002B09D0029B5A1C02920D9A92B25B0052
:10A11C0038336B4423F82C2C0D9B01330D930D9B82
:10A12C00132BE7D9019B1D4602AC0FCC0FC50FCCEE
:10A13C000FC594E8070085E8070001980FB030BD03
:10A14C0000B583B00346ADF80630BDF80630132BCE
:10A15C0001D900230CE0BDF806301946064804F07E
:10A16C00F5FBBDF806301946044804F0EFFB01235B
:10A17C00184603B05DF804FB102C00200C2C0020BA
:10A18C0000B585B00346ADF80630002303930DE00F
:10A19C00039B9B00094A13440433BDF80620114667
:10A1AC00184604F0EBFB039B01330393039B1D2B1D
:10A1BC00EED900BF00BF05B05DF804FB082C0020F1
:10A1CC0000B583B00346ADF80630BDF8063019462D
:10A1DC00034804F0D3FB00BF03B05DF804FB00BFE1
:10A1EC00102C002030B59BB0184B9B68DB431893A8
:10A1FC00164B5A6818AB1146184604F037FC189ADF
:10A20C006B4611461846FFF769FF0DAC6D460FCD36
:10A21C000FC40FCD0FC495E8070084E80700002396
:10A22C0019930BE0199B5B0068336B4433F8303C9B
:10A23C001846FFF7A5FF199B013319930D9B199A2B
:10A24C009A42EFD300BF00BF1BB030BD082C0020DA
:10A25C0000B583B001900B46ADF8023013468DF873
:10A26C0001309DF80130002B06D0BDF802301946A4
:10A27C00019804F06BFB05E0BDF80230194601981B
:10A28C0004F07CFB00BF03B05DF804FB00B585B0A7
:10A29C0001900091019B9B88ADF80E30019B1B88AF
:10A2AC00103B0A2B00F2888001A252F823F000BF69
:10A2BC00E9A2020025A30200C5A30200C5A3020067
:10A2CC00C5A30200C5A30200C5A30200C5A30200DA
:10A2DC00C5A302008FA3020031A30200FFF782FF87
:10A2EC00BDF80E301846FFF72BFF034683F0010331
:10A2FC00DBB2002B05D0324AF021042003F09AF88F
:10A30C0057E0019BDB7B022B53D1BDF80E30194675
:10A31C002C4804F01BFB4CE0BDF80E301846FFF740
:10A32C004FFF49E0019B1B7AC3F30313DBB28DF89B
:10A33C000D309DF80D30032B8CBF01230023DAB2B6
:10A34C00BDF80E3019462048FFF782FF9DF80D30FE
:10A35C00022B8CBF01230023DAB2BDF80E30194654
:10A36C001A48FFF775FF9DF80D30012B8CBF0123A8
:10A37C000023DAB2BDF80E3019461548FFF768FF16
:10A38C001AE0019B1B7A002B15D1019B5B7AC3F35E
:10A39C00C003DBB2002B14BF012300238DF80C305B
:10A3AC009DF80C20BDF80E3019460748FFF750FFFA
:10A3BC0001E000BF00E000BF00BF05B05DF804FB8A
:10A3CC0020210300142C0020202C00201C2C002009
:10A3DC00182C002082B00190019B1B781AB2019BB3
:10A3EC0001331B781B021BB213431BB29BB21846E2
:10A3FC0002B0704700B585B001900198FFF7EAFFF5
:10A40C000346ADF80E30BDF80E3003F00103002BFF
:10A41C0014BF01230023DBB2184605B05DF804FB22
:10A42C0000B585B001900198FFF7D4FF0346ADF855
:10A43C000E30BDF80E3003F00203002B14BF0123C5
:10A44C000023DBB2184605B05DF804FB00B583B001
:10A45C0001900091009807F033FC03469AB2019BDF
:10A46C001A80019B009A5A6000BF03B05DF804FB90
:10A47C0090DF704700BF1846A5DF704700BF184635
:10A48C00B5DF704700BF184682B00190019B1722C0
:10A49C001A80019B17225A80019B00221A71019B82
:10A4AC0000225A71019B1B229A71019B1B22DA71AB
:10A4BC0000BF02B07047000030B589B003460A46B1
:10A4CC00ADF806301346ADF80430BDF80430ADF8E5
:10A4DC001430BDF80430ADF816300023ADF8183048
:10A4EC000023ADF81A3003AB00221A609A8003AA3D
:10A4FC0005A9BDF806301846FFF7BAFF0790079B71
:10A50C00002B39D01E4A1F4BD31ADB081B0443F017
:10A51C000104BDF80650079805F038FB03462A469F
:10A52C001949204606F02DF9BDF80C30002B03D14B
:10A53C00BDF80E30002B0ED0114A124BD31ADB088B
:10A54C001B0443F00100BDF80C301A46BDF80E3068
:10A55C000E4906F016F9BDF81030002B0CD0084A45
:10A56C00084BD31ADB081B0443F00103BDF8102081
:10A57C000749184606F0F4F8079B184609B030BD99
:10A58C00C81E0300801E030080210300CC210300A1
:10A59C000C22030010B586B001900091009B9B88A3
:10A5AC00ADF80E30BDF80E30DB00019A13440633C3
:10A5BC000593019B1A79059B9A71009BDB7B012B00
:10A5CC0002D0022B05D009E0019B1A88059B1A804A
:10A5DC0004E0019B5A88059B1A8000BF059B1A88D2
:10A5EC00059B5B889A4226D9059B1A88BDF80E30CC
:10A5FC0011461846FFF740FF0490049B002B03D133
:10A60C00059B01225A7116E0049B112B03D1059B6B
:10A61C0001221A710FE0114A114BD31ADB081B04EB
:10A62C0043F00104049805F0B1FA03461A460D49AB
:10A63C00204606F095F8059B9A79059BDB799A42A2
:10A64C0008D9059B9B799AB2BDF80E301146184675
:10A65C00FFF732FF00BF06B010BD00BFC81E0300DD
:10A66C00801E03006422030000B583B001900091AA
:10A67C00009B9B88DB00019A134406331846FFF7B6
:10A68C0003FF00BF03B05DF804FB00B587B0019079
:10A69C000091009B9B88ADF81630009B5B89ADF850
:10A6AC001430BDF81630DB00019A134406330493C2
:10A6BC00049B1B88BDF81420934228BF13469AB202
:10A6CC00049B5A80049B5B88172B38BF17239AB2C4
:10A6DC00049B5A80019B1B69002B15D0049B5B7952
:10A6EC00002B11D040F67723ADF80830BDF81630AA
:10A6FC00ADF80A30049B5B88ADF80C30019B1B69EC
:10A70C0002AA114601989847049B00225A71049B97
:10A71C0000221A7100BF07B05DF804FB10B588B0B9
:10A72C0001900091009B9B88ADF81A30009BDB8850
:10A73C00ADF81830BDF81A30DB00019A134406331B
:10A74C000593BDF81830172B38BF1723ADF8183008
:10A75C00059B1B88BDF81820934228BF13469AB25C
:10A76C00059B5A80059B00221A71059B1A88BDF81F
:10A77C001A3011461846FFF783FE0790079B002BF3
:10A78C000FD0174A174BD31ADB081B0443F00104F4
:10A79C00079805F0FBF903461A461349204605F0C5
:10A7AC00DFFF059B5B79002B16D1019B1B69002BEE
:10A7BC0013D040F67723ADF80C30BDF81A30ADF855
:10A7CC000E30059B5B88ADF81030019B1B6903AA0A
:10A7DC0011460198984700E000BF08B010BD00BFBB
:10A7EC00C81E0300801E03009822030030B591B0F0
:10A7FC0001900091009B04AC1D1D0FCD0FC40FCD1B
:10A80C000FC495E8070084E80700BDF81030ADF8D8
:10A81C003E30BDF81420BDF83E30D1B2019ADB00B9
:10A82C0013440A465A73019B1B69002B19D002ABC7
:10A83C0000221A609A804DF67A23ADF80830BDF8E4
:10A84C003E30ADF80A30BDF83E30019ADB001344BF
:10A85C005B7B8DF80C30019B1B6902AA1146019899
:10A86C00984700BF11B030BD00B587B00190009182
:10A87C00009B04330593059B1B88DB00019A134452
:10A88C0006330493059B9B888DF80F30049B9B79B2
:10A89C009DF80F20934228BF13468DF80E30059B70
:10A8AC001B889DF80E2092B211461846FFF704FE45
:10A8BC0000BF07B05DF804FB00B585B001900091B6
:10A8CC00019B002B01D10E231DE0019B009A1A6104
:10A8DC00019B17221A80019B17225A80019B1B2275
:10A8EC001A71002303930AE0039BDB00019A1344C3
:10A8FC0006331846FFF7C8FD039B01330393039BF4
:10A90C00002BF1D00023184605B05DF804FB0000C5
:10A91C0010B586B001900091009B0593019B9B881C
:10A92C00ADF81230BDF81230002B40F09880019B2E
:10A93C001B88552B48D0552B55DC242B32DC102B87
:10A94C0051DB103B142B4ED801A252F823F000BF60
:10A95C00B7A90200C1A90200F3A90200F3A90200E1
:10A96C00F3A90200F3A90200F3A90200F3A9020063
:10A97C00F3A90200F3A90200F3A90200F3A9020053
:10A98C00F3A90200F3A90200F3A90200F3A9020043
:10A99C00F3A90200F3A90200F3A90200E9A902003D
:10A9AC00DFA902003A2B0AD01DE001990598FFF7A8
:10A9BC00F1FD19E001990598FFF756FE14E0019995
:10A9CC000598FFF762FE0FE001990598FFF7A6FEC8
:10A9DC000AE001990598FFF709FF05E00199059830
:10A9EC00FFF742FF00E000BFBDF81230059ADB0014
:10A9FC0013449B7A002B33D0BDF81230059ADB0040
:10AA0C001344DA88BDF8123011461846FFF734FDAE
:10AA1C000390039B002B0ED1BDF81230059ADB007E
:10AA2C00134400229A72BDF81230059ADB001344CD
:10AA3C000122DA7214E0039B112B11D0094A0A4B44
:10AA4C00D31ADB081B0443F00104039805F09EF8AD
:10AA5C0003461A460549204605F082FE00E000BF79
:10AA6C0006B010BDC81E0300801E03006422030044
:10AA7C00B0DF704700BF184666DF704700BF18464E
:10AA8C0082B001900091019B002B01D10E2316E0A6
:10AA9C00009B002B01D10E2311E0019B1B78DE2BB8
:10AAAC0001D108230BE0009B1A68019B5A60019BA3
:10AABC00DE221A70019B4FF6FF725A800023184653
:10AACC0002B0704782B001900B46ADF80230019B8A
:10AADC00002B01D10E230AE0019B1B78DE2B01D049
:10AAEC00082304E0019BBDF802205A80002318467D
:10AAFC0002B0704700B585B00190019B1B7A002B0A
:10AB0C0018D0019B5B8800211846FFF7B5FF039016
:10AB1C00039B002B03D1019B00221A720AE0039BBA
:10AB2C00112B03D1019B01221A7203E0019B5B687C
:10AB3C000398984700BF05B05DF804FB00B583B0DF
:10AB4C0001900091009B1B79012B0BD1009B1A8863
:10AB5C00019B5B889A4205D1019B01221A720198D4
:10AB6C00FFF7C8FF00BF03B05DF804FB82B0019093
:10AB7C00009100BF02B0704700B589B00190009100
:10AB8C00009B1A88019B5B889A4236D1009B02334A
:10AB9C000793079B1B78022B31D1079B1B7A042B45
:10ABAC0007D0079B1B7A062B03D0079B1B7A052B20
:10ABBC0027D102AB00221A605A609A60DA60022335
:10ABCC008DF808304FF4C073ADF80C30079B1B7A2E
:10ABDC00052B02D10023ADF80C30009B1B8802AA78
:10ABEC0011461846FFF744FF0690069B002B09D030
:10ABFC00019B5B680698984704E000BF02E000BF29
:10AC0C0000E000BF09B05DF804FB00B585B0019011
:10AC1C000091009B002B43D0019B002B40D0009B4C
:10AC2C000393039B1B78DE2B3AD1019B9A88039BE1
:10AC3C005B889A4202D10398FFF75CFF019B1B884B
:10AC4C00512B18D0512B28DC112B1BD0112B24DCB1
:10AC5C00012B02D0022B07D01FE0019B04331946B5
:10AC6C000398FFF76BFF1BE0019B04331946039815
:10AC7C00FFF77CFF14E0019B043319460398FFF7A0
:10AC8C007BFF0DE0019B9A88039B5B889A4206D15F
:10AC9C00039B4FF6FF725A8001E000BF00E000BF3B
:10ACAC0005B05DF804FB000082B003468DF8073058
:10ACBC009DF90730002B13DB9DF8073003F01F02C2
:10ACCC0009499DF907305B09012000FA02F2203393
:10ACDC0041F82320BFF34F8F00BFBFF36F8F00BF2E
:10ACEC0000BF02B0704700BF00E100E0044BD3F896
:10ACFC000034002B14BF01230023DBB2184670472D
:10AD0C000000014008B506F07DFC034683F001030A
:10AD1C00DBB2002B03D109497B20FBF7E5FEFFF7E3
:10AD2C00E5FF034683F00103DBB2002B04D000F0F7
:10AD3C0041FB034B00229A7000BF08BDD0220300D8
:10AD4C00842C002000B583B000230193184B1B7892
:10AD5C00002B02D0852301931CE0154B00229A6036
:10AD6C00134B00225A60124B00221A61104B002226
:10AD7C00DA60104800F0E4FA019006F043FC034658
:10AD8C0083F00103DBB2002B01D000F0FFFA084B7B
:10AD9C0001221A70FFF7AAFF0346002B02D0044BC6
:10ADAC0001229A70019B184603B05DF804FB00BFAA
:10ADBC00842C002099AE020084B00190019B1B688A
:10ADCC000393039B002B03D0039B1A68019B1A600F
:10ADDC00039B184604B0704700B583B0164B1B7824
:10ADEC00002B04D1154940F21710FBF77DFE124BD6
:10ADFC00DB68002B04D111494FF48C70FBF774FE07
:10AE0C0000238DF807300DF10703184603F062F8A4
:10AE1C00094BDB68013B084AD360074BDB68002B0E
:10AE2C0001D1FFF76FFF9DF80730184603F068F863
:10AE3C0000BF03B05DF804FB842C0020D02203007B
:10AE4C0000B585B003468DF807309DF80730002B10
:10AE5C0002D10C4B039301E00B4B03930398FFF7C8
:10AE6C00ABFF0290029B002B06D0029B5B689DF807
:10AE7C00072010469847F1E700BF00BF05B05DF80A
:10AE8C0004FB00BF8C2C0020942C002000B583B058
:10AE9C0003468DF807309DF80730002B05D10A4B7F
:10AEAC0001225A700020FFF7CBFF9DF80730012BD1
:10AEBC0005D1054B01229A700120FFF7C1FF00BF9D
:10AECC0003B05DF804FB00BF842C002000B583B0F8
:10AEDC0001900091019B002B05D1054B01225A706A
:10AEEC000020FFF7ADFF00BF03B05DF804FB00BF0F
:10AEFC00842C002000B585B0034600918DF80730F6
:10AF0C009DF80730032B29D0032B35DC002B02D006
:10AF1C00012B04D030E00020FFF7C6FE2DE000230B
:10AF2C008DF80F300DF10F03184602F0D3FF154BBF
:10AF3C001B7883F00103DBB2002B01D0FFF702FF7B
:10AF4C00104BDB6801330F4AD3600E4B01229A7011
:10AF5C009DF80F30184602F0D3FF0EE0094B1B781A
:10AF6C00002B04D1084940F25220FBF7BDFD00F044
:10AF7C000DFAFFF731FF00E000BF00BF05B05DF830
:10AF8C0004FB00BF842C0020D022030000B589B044
:10AF9C0001900091009B0793019B1B788DF80C305E
:10AFAC00019B5B680493019B9B68DBB28DF81430AA
:10AFBC00019BDB680693074A079B52F8233006492E
:10AFCC00079A51F8221003AA1046984700BF09B0FF
:10AFDC005DF804FB982C00209C2C002000B589B057
:10AFEC0001900091009B0793019B1B788DF80C300E
:10AFFC00019B5B680493019B9B68DBB28DF814305A
:10B00C00019BDB680693074A079B52F823300649DD
:10B01C00079A51F8221003AA1046984700BF09B0AE
:10B02C005DF804FB982C00209C2C002030B58FB0D0
:10B03C00039002910192039B1B780C9326490C9B65
:10B04C00019A41F82320029B1A6924490C9B41F870
:10B05C002320029B5B7F1946214A0C9B13440A4612
:10B06C001A70029B04AC1D460FCD0FC495E80F005F
:10B07C0084E80F000C9B089300230D93039B1B7813
:10B08C001A46174B9B5C002B0DD0039B181D019B84
:10B09C00002B01D0134A00E0002204AB194601F04A
:10B0AC00DBFE0D9014E0039B1B781A460C4B9B5C4B
:10B0BC00002B0DD1039B03F10C00019B002B01D045
:10B0CC00094A00E0002204AB194601F053F80D9038
:10B0DC000D9B18460FB030BD982C00209C2C0020E6
:10B0EC00A02C002099AF0200E9AF020082B0034609
:10B0FC008DF807309DF90730002B0CDB9DF80730DD
:10B10C0003F01F0205499DF907305B09012000FA85
:10B11C0002F241F8232000BF02B0704700E100E0CA
:10B12C0082B0034600918DF807309DF90730002B53
:10B13C000ADB009BDAB20C499DF907305201D2B2FE
:10B14C000B4483F800230BE0009BDAB207499DF80F
:10B15C00073003F00F03043B5201D2B20B441A76B2
:10B16C0000BF02B0704700BF00E100E000ED00E05E
:10B17C0082B00190019B1B0B5BB2184602B070476A
:10B18C0000B583B003460A468DF8073013468DF898
:10B19C0006309DF80630012B03D99DF80630032BA1
:10B1AC000BD99DF80630042B03D99DF80630072BDC
:10B1BC0003D908496B20FBF797FC9DF806209DF9F5
:10B1CC00073011461846FFF7ABFF00BF03B05DF820
:10B1DC0004FB00BF2023030000B583B003468DF8A9
:10B1EC0007309DF907301846FFF780FF00BF03B00A
:10B1FC005DF804FB82B003468DF807300F4A9DF9C9
:10B20C000730002B00DA1F335B115BB252F823209E
:10B21C009DF90730594203F01F0301F01F0158BF7D
:10B22C004B425BB222FA03F303F00103002B14BF71
:10B23C0001230023DBB2184602B0704700E100E0A6
:10B24C0082B001904FF08042019BC2F8083300BFDE
:10B25C0002B0704782B003468DF807309DF8073076
:10B26C0003F1804301221A6000BF02B0704784B022
:10B27C000346ADF80630BDF8063003F180430022DA
:10B28C001A60BDF8063003F180431B680393039BDF
:10B29C0000BF04B0704782B00346ADF80630BDF86D
:10B2AC00063003F180431B68002B14BF01230023DD
:10B2BC00DBB2184602B0704782B001904FF080426A
:10B2CC00019BC2F8183500BF02B070474FF08043A5
:10B2DC00D3F818341B0C03F00103002B14BF01230B
:10B2EC000023DBB21846704700B583B006238DF8F7
:10B2FC0007304FF08040FFF73BFF03461846FFF73F
:10B30C0079FF034683F00103DBB2002B13D04FF01F
:10B31C008040FFF72DFF03461A469DF8073019466B
:10B32C001046FFF72DFF4FF08040FFF721FF03463B
:10B33C001846FFF751FF00BF03B05DF804FB000097
:10B34C0000B585B00190019B002B03D10D49A420C1
:10B35C00FBF7CAFB002303930B4B1B79002B02D08A
:10B36C008523039308E0084A019B1360064B0122D6
:10B37C001A71054B00225A71039B184605B05DF8F3
:10B38C0004FB00BF58230300A42C002008B5074B76
:10B39C001B79002B03D10649BD20FBF7A5FBFFF75A
:10B3AC00A3FF0120FFF788FF00BF08BDA42C0020DD
:10B3BC005823030008B50D4B1B79002B03D10C4906
:10B3CC00F720FBF791FB0220FFF73AFF4FF4827056
:10B3DC00FFF74DFF0C20FFF73DFF00BFFFF776FF97
:10B3EC000346002BFAD100BF00BF08BDA42C0020DF
:10B3FC005823030008B54FF48070FFF74CFF034649
:10B40C00002B14D04FF48070FFF731FF0120FFF7B1
:10B41C0017FF114B5B7983F00103DBB2002B06D0D5
:10B42C000D4B01225A710C4B1B68002098474FF4AE
:10B43C008270FFF730FF0346002B0AD04FF4827066
:10B44C00FFF715FF0220FFF7FBFE034B1B680120E3
:10B45C00984700BF08BD00BFA42C002000B583B0E6
:10B46C000346ADF80630BDF80630184600F026F855
:10B47C0003461B68012B0CBF01230023DBB21846CB
:10B48C0003B05DF804FB00B585B00346ADF806309B
:10B49C00BDF80630184600F011F803461A46002392
:10B4AC001360BDF80630184600F008F803461B6818
:10B4BC000393039B00BF05B05DF804FB82B0034609
:10B4CC00ADF80630BDF8063003F1804303F5C043F8
:10B4DC00184602B07047000082B00190034BD3F8BD
:10B4EC000423019B1340184602B0704700600040D3
:10B4FC0082B00190054A019B03F5A27352F82330E8
:10B50C001B0A03F01F03184602B07047006000408E
:10B51C0082B00190064A019B03F5A27352F82330C6
:10B52C001B0C03F00303DBB2184602B0704700BFDC
:10B53C000060004000B583B00190019B1B68184669
:10B54C0000F096F80346002B04D105494FF4F67031
:10B55C00FBF7CAFA4FF0A043184603B05DF804FBA2
:10B56C00D423030000B585B001900B468DF8033051
:10B57C0001AB1846FFF7DEFF0390019A039B02F51F
:10B58C00E07253F82230019A23F44031039B02F508
:10B59C00E07243F82210019A039B02F5E07253F813
:10B5AC0022309DF8032012041146019A1943039B83
:10B5BC0002F5E07243F8221000BF05B05DF804FB01
:10B5CC0000B585B0019001AB1846FFF7B3FF0390AF
:10B5DC00019A039B02F5E07253F822301B0C03F026
:10B5EC000303DBB2184605B05DF804FB86B003908C
:10B5FC00029101924FF0A0430493039B059319E031
:10B60C00059B9B0018336B4453F8083CD3F820255A
:10B61C00019B1A60059B9B0018336B4453F8083C44
:10B62C00019A1268C3F82025019B04330193059BF2
:10B63C0001330593039A029B1344059A9A42DFD374
:10B64C0000BF00BF06B0704700B585B0019001ABDC
:10B65C001846FFF76FFF0390019B012202FA03F3D8
:10B66C001A46039BC3F8202500BF05B05DF804FB08
:10B67C0084B00190019B5B09029300230393029B0E
:10B68C00002B03D14FF0FF33039300BF019B03F05A
:10B69C001F030193039A019B22FA03F303F00103A6
:10B6AC00002B14BF01230023DBB2184604B07047F3
:10B6BC0084B001900091009B0393019BDB080293E3
:10B6CC00019B03F0070301930122019B02FA03F390
:10B6DC000399029A0A4412781340184604B0704732
:10B6EC0082B00190044A019B1344303393F900302B
:10B6FC00184602B0704700BFAC2C002082B00190FD
:10B70C00034A019B52F82330184602B0704700BF21
:10B71C00AC2C002084B00190074A019B1344503399
:10B72C0093F900308DF80F309DF80F3023F0C003E3
:10B73C00184604B0704700BFAC2C002084B00190B8
:10B74C00074A019B1344503393F900308DF80F30A6
:10B75C009DF80F309B09DBB2184604B0704700BF50
:10B76C00AC2C002000B585B00190019A012100207D
:10B77C00FFF73CFF002303930BE0039B9B00019A14
:10B78C0013441B68002B01D0012306E0039B0133FB
:10B79C000393039B002BF0D00023184605B05DF8F3
:10B7AC0004FB000000B587B00190002305935BE01B
:10B7BC00344A059B1344503393F90030B3F1FF3FE7
:10B7CC004ED00598FFF7A6FF049001990498FFF757
:10B7DC006FFF0346002B44D00598FFF7AFFF0346DD
:10B7EC008DF80F300498FFF7EBFE03468DF80E3002
:10B7FC009DF80E30022B01D1032300E002238DF8BB
:10B80C000D309DF80D3019460498FFF7ABFE0498E7
:10B81C00FFF71AFF0498FFF763FF03461846FFF77C
:10B82C006DFF0290029B002B1BD09DF80F30032B59
:10B83C000FD09DF80E30022B03D19DF80F30012B49
:10B84C0007D09DF80E30032B0BD19DF80F30022B37
:10B85C0007D19DF80F20029B11460498984700E0F1
:10B86C0000BF059B01330593059B032BA0D90198C1
:10B87C00FFF778FF0346002B97D100BF00BF07B03E
:10B88C005DF804FBAC2C002000B589B000230693B6
:10B89C00002300934FF48073ADF81230012307930B
:10B8AC000023059321E0BDF812301846FFF7D6FDB2
:10B8BC000346002B0ED00798FFF70EFE0346002B15
:10B8CC0008D0BDF812301846FFF7DDFD069A079B2D
:10B8DC0013430693079B5B000793BDF812300433A8
:10B8EC00ADF81230059B01330593059B072BDAD974
:10B8FC004FF4BE70FFF7B2FD0346002B0DD04FF492
:10B90C00BE70FFF7C0FD069B43F0004306936B46E9
:10B91C001A4601210020FFF769FE069BDBB2002BC3
:10B92C0029D0012307930023059321E0079A069B56
:10B93C001340002B16D00598FFF7DAFD03900598FD
:10B94C00FFF7E6FD03468DF80B300598FFF7D6FEA2
:10B95C000190019B002B05D09DF80B20019B1146FB
:10B96C0003989847079B5B000793059B013305934E
:10B97C00059B072BDAD9069B002B03DA6B4618467E
:10B98C00FFF710FF00BF09B05DF804FB08B5064BCC
:10B99C001B68002B03D105495120FBF7A5F8024B7E
:10B9AC001B68984708BD00BF082D002060240300C9
:10B9BC0082B00190019B044A934201D1034B00E0F9
:10B9CC000023184602B0704700200040082D0020CC
:10B9DC0000B587B001900091019B002B03D11C494D
:10B9EC007720FBF781F80198FFF7E2FF0590059BA4
:10B9FC00002B25D000238DF8133000238DF80B304D
:10BA0C000DF10B03184602F065FA059B1B79002B10
:10BA1C0003D001238DF8133005E0059B009A1A60C2
:10BA2C00059B01221A719DF80B30184602F068FA3A
:10BA3C009DF81330002B03D011230393039B02E0DA
:10BA4C0000230393039B184607B05DF804FB00BF6B
:10BA5C006024030000B585B00190019B002B03D13D
:10BA6C000A499B20FBF740F80198FFF7A1FF0390D0
:10BA7C00039B002B05D0039B00221A60039B002222
:10BA8C001A7100BF05B05DF804FB00BF6024030011
:10BA9C0082B003468DF807309DF90730002B0CDB84
:10BAAC009DF8073003F01F0205499DF907305B092B
:10BABC00012000FA02F241F8232000BF02B07047C7
:10BACC0000E100E082B003468DF807309DF90730A5
